{
	"data": {
		"bytecode": {
			"linkReferences": {},
			"object": "60806040523480156200001157600080fd5b506040516200616b3803806200616b8339818101604052810190620000379190620009a7565b6040518060400160405280601381526020017f47726f757020382053686f77205469636b6574000000000000000000000000008152506040518060400160405280600481526020017f47385354000000000000000000000000000000000000000000000000000000008152508160009080519060200190620000bb9291906200068e565b508060019080519060200190620000d49291906200068e565b50505033600660006101000a81548173ffffffffffffffffffffffffffffffffffffffff021916908373ffffffffffffffffffffffffffffffffffffffff1602179055506000600960003073ffffffffffffffffffffffffffffffffffffffff1673ffffffffffffffffffffffffffffffffffffffff168152602001908152602001600020905088816000019080519060200190620001759291906200068e565b50858160010181905550868160020181905550878160030181905550848160040181905550838160050181905550620001d38160010154826002015483600301548460040154856005015460006200027260201b62001a0b1760201c565b8160060181905550620001ec83620002e760201b60201c565b604051602001620001fe919062000b0b565b604051602081830303815290604052816007019080519060200190620002269291906200071f565b50816040516020016200023a919062000b40565b604051602081830303815290604052816008019080519060200190620002629291906200071f565b5050505050505050505062001084565b600081603c8462000284919062000b8c565b610e108662000294919062000b8c565b62015180620002ab8b8b8b620004fc60201b60201c565b620002b7919062000b8c565b620002c3919062000bed565b620002cf919062000bed565b620002db919062000bed565b90509695505050505050565b606060008290506000815167ffffffffffffffff8111156200030e576200030d620007fe565b5b6040519080825280601f01601f191660200182016040528015620003415781602001600182028036833780820191505090505b50905060005b8251811015620004f157606160f81b8382815181106200036c576200036b62000c4a565b5b602001015160f81c60f81b7effffffffffffffffffffffffffffffffffffffffffffffffffffffffffffff191610158015620003ee5750607a60f81b838281518110620003be57620003bd62000c4a565b5b602001015160f81c60f81b7effffffffffffffffffffffffffffffffffffffffffffffffffffffffffffff191611155b15620004745760208382815181106200040c576200040b62000c4a565b5b602001015160f81c60f81b60f81c62000426919062000c86565b60f81b8282815181106200043f576200043e62000c4a565b5b60200101907effffffffffffffffffffffffffffffffffffffffffffffffffffffffffffff1916908160001a905350620004db565b8281815181106200048a576200048962000c4a565b5b602001015160f81c60f81b828281518110620004ab57620004aa62000c4a565b5b60200101907effffffffffffffffffffffffffffffffffffffffffffffffffffffffffffff1916908160001a9053505b8080620004e89062000cc1565b91505062000347565b508092505050919050565b60006107b28410156200050e57600080fd5b600084905060008490506000849050600062253d8c60046064600c600e8762000538919062000d19565b62000544919062000de6565b6113248862000554919062000e5a565b62000560919062000e5a565b6200056c919062000de6565b60036200057a919062000ef8565b62000586919062000de6565b600c80600c600e886200059a919062000d19565b620005a6919062000de6565b620005b2919062000ef8565b600287620005c1919062000d19565b620005cd919062000d19565b61016f620005dc919062000ef8565b620005e8919062000de6565b6004600c600e88620005fb919062000d19565b62000607919062000de6565b6112c08962000617919062000e5a565b62000623919062000e5a565b6105b562000632919062000ef8565b6200063e919062000de6565b617d4b866200064e919062000d19565b6200065a919062000e5a565b62000666919062000e5a565b62000672919062000d19565b6200067e919062000d19565b9050809450505050509392505050565b8280546200069c906200104e565b90600052602060002090601f016020900481019282620006c057600085556200070c565b82601f10620006db57805160ff19168380011785556200070c565b828001600101855582156200070c579182015b828111156200070b578251825591602001919060010190620006ee565b5b5090506200071b9190620007b0565b5090565b8280546200072d906200104e565b90600052602060002090601f0160209004810192826200075157600085556200079d565b82601f106200076c57805160ff19168380011785556200079d565b828001600101855582156200079d579182015b828111156200079c5782518255916020019190600101906200077f565b5b509050620007ac9190620007b0565b5090565b5b80821115620007cb576000816000905550600101620007b1565b5090565b6000604051905090565b600080fd5b600080fd5b600080fd5b600080fd5b6000601f19601f8301169050919050565b7f4e487b7100000000000000000000000000000000000000000000000000000000600052604160045260246000fd5b6200083882620007ed565b810181811067ffffffffffffffff821117156200085a5762000859620007fe565b5b80604052505050565b60006200086f620007cf565b90506200087d82826200082d565b919050565b600067ffffffffffffffff821115620008a0576200089f620007fe565b5b620008ab82620007ed565b9050602081019050919050565b60005b83811015620008d8578082015181840152602081019050620008bb565b83811115620008e8576000848401525b50505050565b600062000905620008ff8462000882565b62000863565b905082815260208101848484011115620009245762000923620007e8565b5b62000931848285620008b8565b509392505050565b600082601f830112620009515762000950620007e3565b5b815162000963848260208601620008ee565b91505092915050565b6000819050919050565b62000981816200096c565b81146200098d57600080fd5b50565b600081519050620009a18162000976565b92915050565b600080600080600080600080610100898b031215620009cb57620009ca620007d9565b5b600089015167ffffffffffffffff811115620009ec57620009eb620007de565b5b620009fa8b828c0162000939565b985050602062000a0d8b828c0162000990565b975050604062000a208b828c0162000990565b965050606062000a338b828c0162000990565b955050608062000a468b828c0162000990565b94505060a062000a598b828c0162000990565b93505060c089015167ffffffffffffffff81111562000a7d5762000a7c620007de565b5b62000a8b8b828c0162000939565b92505060e062000a9e8b828c0162000990565b9150509295985092959890939650565b600081519050919050565b600082825260208201905092915050565b600062000ad78262000aae565b62000ae3818562000ab9565b935062000af5818560208601620008b8565b62000b0081620007ed565b840191505092915050565b6000602082019050818103600083015262000b27818462000aca565b905092915050565b62000b3a816200096c565b82525050565b600060208201905062000b57600083018462000b2f565b92915050565b7f4e487b7100000000000000000000000000000000000000000000000000000000600052601160045260246000fd5b600062000b99826200096c565b915062000ba6836200096c565b9250817fffffffffffffffffffffffffffffffffffffffffffffffffffffffffffffffff048311821515161562000be25762000be162000b5d565b5b828202905092915050565b600062000bfa826200096c565b915062000c07836200096c565b9250827fffffffffffffffffffffffffffffffffffffffffffffffffffffffffffffffff0382111562000c3f5762000c3e62000b5d565b5b828201905092915050565b7f4e487b7100000000000000000000000000000000000000000000000000000000600052603260045260246000fd5b600060ff82169050919050565b600062000c938262000c79565b915062000ca08362000c79565b92508282101562000cb65762000cb562000b5d565b5b828203905092915050565b600062000cce826200096c565b91507fffffffffffffffffffffffffffffffffffffffffffffffffffffffffffffffff82141562000d045762000d0362000b5d565b5b600182019050919050565b6000819050919050565b600062000d268262000d0f565b915062000d338362000d0f565b9250827f80000000000000000000000000000000000000000000000000000000000000000182126000841215161562000d715762000d7062000b5d565b5b827f7fffffffffffffffffffffffffffffffffffffffffffffffffffffffffffffff01821360008412161562000dac5762000dab62000b5d565b5b828203905092915050565b7f4e487b7100000000000000000000000000000000000000000000000000000000600052601260045260246000fd5b600062000df38262000d0f565b915062000e008362000d0f565b92508262000e135762000e1262000db7565b5b600160000383147f80000000000000000000000000000000000000000000000000000000000000008314161562000e4f5762000e4e62000b5d565b5b828205905092915050565b600062000e678262000d0f565b915062000e748362000d0f565b9250817f7fffffffffffffffffffffffffffffffffffffffffffffffffffffffffffffff0383136000831215161562000eb25762000eb162000b5d565b5b817f800000000000000000000000000000000000000000000000000000000000000003831260008312161562000eed5762000eec62000b5d565b5b828201905092915050565b600062000f058262000d0f565b915062000f128362000d0f565b9250827f7fffffffffffffffffffffffffffffffffffffffffffffffffffffffffffffff048211600084136000841316161562000f545762000f5362000b5d565b5b817f8000000000000000000000000000000000000000000000000000000000000000058312600084126000841316161562000f945762000f9362000b5d565b5b827f8000000000000000000000000000000000000000000000000000000000000000058212600084136000841216161562000fd45762000fd362000b5d565b5b827f7fffffffffffffffffffffffffffffffffffffffffffffffffffffffffffffff058212600084126000841216161562001014576200101362000b5d565b5b828202905092915050565b7f4e487b7100000000000000000000000000000000000000000000000000000000600052602260045260246000fd5b600060028204905060018216806200106757607f821691505b602082108114156200107e576200107d6200101f565b5b50919050565b6150d780620010946000396000f3fe608060405234801561001057600080fd5b50600436106101165760003560e01c806370a08231116100a2578063b88d4fde11610071578063b88d4fde14610324578063bb63fc3e14610340578063c129ff3214610362578063c87b56dd14610397578063e985e9c5146103c757610116565b806370a082311461028a57806395d89b41146102ba578063a22cb465146102d8578063a28f161c146102f457610116565b806323b872dd116100e957806323b872dd146101b557806324c14160146101d1578063287a61e41461020657806342842e0e1461023e5780636352211e1461025a57610116565b806301ffc9a71461011b57806306fdde031461014b578063081812fc14610169578063095ea7b314610199575b600080fd5b61013560048036038101906101309190613361565b6103f7565b60405161014291906133a9565b60405180910390f35b6101536104d9565b604051610160919061345d565b60405180910390f35b610183600480360381019061017e91906134b5565b61056b565b6040516101909190613523565b60405180910390f35b6101b360048036038101906101ae919061356a565b6105f0565b005b6101cf60048036038101906101ca91906135aa565b610708565b005b6101eb60048036038101906101e691906134b5565b610768565b6040516101fd9695949392919061360c565b60405180910390f35b610220600480360381019061021b9190613689565b610a1d565b6040516102359998979695949392919061370b565b60405180910390f35b610258600480360381019061025391906135aa565b610c03565b005b610274600480360381019061026f91906134b5565b610c23565b6040516102819190613523565b60405180910390f35b6102a4600480360381019061029f9190613689565b610cd5565b6040516102b191906137ad565b60405180910390f35b6102c2610d8d565b6040516102cf919061345d565b60405180910390f35b6102f260048036038101906102ed91906137f4565b610e1f565b005b61030e60048036038101906103099190613969565b610fa0565b60405161031b91906137ad565b60405180910390f35b61033e60048036038101906103399190613a66565b6112f4565b005b610348611356565b604051610359959493929190613bf5565b60405180910390f35b61037c600480360381019061037791906134b5565b611674565b60405161038e96959493929190613c64565b60405180910390f35b6103b160048036038101906103ac91906134b5565b6118d0565b6040516103be919061345d565b60405180910390f35b6103e160048036038101906103dc9190613ce1565b611977565b6040516103ee91906133a9565b60405180910390f35b60007f80ac58cd000000000000000000000000000000000000000000000000000000007bffffffffffffffffffffffffffffffffffffffffffffffffffffffff1916827bffffffffffffffffffffffffffffffffffffffffffffffffffffffff191614806104c257507f5b5e139f000000000000000000000000000000000000000000000000000000007bffffffffffffffffffffffffffffffffffffffffffffffffffffffff1916827bffffffffffffffffffffffffffffffffffffffffffffffffffffffff1916145b806104d257506104d182611a6c565b5b9050919050565b6060600080546104e890613d50565b80601f016020809104026020016040519081016040528092919081815260200182805461051490613d50565b80156105615780601f1061053657610100808354040283529160200191610561565b820191906000526020600020905b81548152906001019060200180831161054457829003601f168201915b5050505050905090565b600061057682611ad6565b6105b5576040517f08c379a00000000000000000000000000000000000000000000000000000000081526004016105ac90613df4565b60405180910390fd5b6004600083815260200190815260200160002060009054906101000a900473ffffffffffffffffffffffffffffffffffffffff169050919050565b60006105fb82610c23565b90508073ffffffffffffffffffffffffffffffffffffffff168373ffffffffffffffffffffffffffffffffffffffff16141561066c576040517f08c379a000000000000000000000000000000000000000000000000000000000815260040161066390613e86565b60405180910390fd5b8073ffffffffffffffffffffffffffffffffffffffff1661068b611b42565b73ffffffffffffffffffffffffffffffffffffffff1614806106ba57506106b9816106b4611b42565b611977565b5b6106f9576040517f08c379a00000000000000000000000000000000000000000000000000000000081526004016106f090613f18565b60405180910390fd5b6107038383611b4a565b505050565b610719610713611b42565b82611c03565b610758576040517f08c379a000000000000000000000000000000000000000000000000000000000815260040161074f90613faa565b60405180910390fd5b610763838383611ce1565b505050565b606080606060008060606000600a60008981526020019081526020016000209050600081600201805461079a90613d50565b80601f01602080910402602001604051908101604052809291908181526020018280546107c690613d50565b80156108135780601f106107e857610100808354040283529160200191610813565b820191906000526020600020905b8154815290600101906020018083116107f657829003601f168201915b505050505080602001905181019061082b919061403a565b9050600082600301805461083e90613d50565b80601f016020809104026020016040519081016040528092919081815260200182805461086a90613d50565b80156108b75780601f1061088c576101008083540402835291602001916108b7565b820191906000526020600020905b81548152906001019060200180831161089a57829003601f168201915b50505050508060200190518101906108cf9190614098565b9050826000016108e28460010154611f3d565b83838660040154876005018580546108f990613d50565b80601f016020809104026020016040519081016040528092919081815260200182805461092590613d50565b80156109725780601f1061094757610100808354040283529160200191610972565b820191906000526020600020905b81548152906001019060200180831161095557829003601f168201915b5050505050955080805461098590613d50565b80601f01602080910402602001604051908101604052809291908181526020018280546109b190613d50565b80156109fe5780601f106109d3576101008083540402835291602001916109fe565b820191906000526020600020905b8154815290600101906020018083116109e157829003601f168201915b5050505050905098509850985098509850985050505091939550919395565b6009602052806000526040600020600091509050806000018054610a4090613d50565b80601f0160208091040260200160405190810160405280929190818152602001828054610a6c90613d50565b8015610ab95780601f10610a8e57610100808354040283529160200191610ab9565b820191906000526020600020905b815481529060010190602001808311610a9c57829003601f168201915b505050505090806001015490806002015490806003015490806004015490806005015490806006015490806007018054610af290613d50565b80601f0160208091040260200160405190810160405280929190818152602001828054610b1e90613d50565b8015610b6b5780601f10610b4057610100808354040283529160200191610b6b565b820191906000526020600020905b815481529060010190602001808311610b4e57829003601f168201915b505050505090806008018054610b8090613d50565b80601f0160208091040260200160405190810160405280929190818152602001828054610bac90613d50565b8015610bf95780601f10610bce57610100808354040283529160200191610bf9565b820191906000526020600020905b815481529060010190602001808311610bdc57829003601f168201915b5050505050905089565b610c1e838383604051806020016040528060008152506112f4565b505050565b6000806002600084815260200190815260200160002060009054906101000a900473ffffffffffffffffffffffffffffffffffffffff169050600073ffffffffffffffffffffffffffffffffffffffff168173ffffffffffffffffffffffffffffffffffffffff161415610ccc576040517f08c379a0000000000000000000000000000000000000000000000000000000008152600401610cc390614137565b60405180910390fd5b80915050919050565b60008073ffffffffffffffffffffffffffffffffffffffff168273ffffffffffffffffffffffffffffffffffffffff161415610d46576040517f08c379a0000000000000000000000000000000000000000000000000000000008152600401610d3d906141c9565b60405180910390fd5b600360008373ffffffffffffffffffffffffffffffffffffffff1673ffffffffffffffffffffffffffffffffffffffff168152602001908152602001600020549050919050565b606060018054610d9c90613d50565b80601f0160208091040260200160405190810160405280929190818152602001828054610dc890613d50565b8015610e155780601f10610dea57610100808354040283529160200191610e15565b820191906000526020600020905b815481529060010190602001808311610df857829003601f168201915b5050505050905090565b610e27611b42565b73ffffffffffffffffffffffffffffffffffffffff168273ffffffffffffffffffffffffffffffffffffffff161415610e95576040517f08c379a0000000000000000000000000000000000000000000000000000000008152600401610e8c90614235565b60405180910390fd5b8060056000610ea2611b42565b73ffffffffffffffffffffffffffffffffffffffff1673ffffffffffffffffffffffffffffffffffffffff16815260200190815260200160002060008473ffffffffffffffffffffffffffffffffffffffff1673ffffffffffffffffffffffffffffffffffffffff16815260200190815260200160002060006101000a81548160ff0219169083151502179055508173ffffffffffffffffffffffffffffffffffffffff16610f4f611b42565b73ffffffffffffffffffffffffffffffffffffffff167f17307eab39ab6107e8899845ad3d59bd9653f200f220920489ca2b5937696c3183604051610f9491906133a9565b60405180910390a35050565b6000610fab83611fba565b9250610fb783836121b0565b610ff6576040517f08c379a0000000000000000000000000000000000000000000000000000000008152600401610fed906142c7565b60405180910390fd5b60006002848460405160200161100d9291906142e7565b6040516020818303038152906040526040516110299190614353565b602060405180830381855afa158015611046573d6000803e3d6000fd5b5050506040513d601f19601f8201168201806040525081019061106991906143a0565b60001c90506000600960003073ffffffffffffffffffffffffffffffffffffffff1673ffffffffffffffffffffffffffffffffffffffff16815260200190815260200160002090508060090185856040516020016110c89291906142e7565b60405160208183030381529060405290806001815401808255809150506001900390600052602060002001600090919091909150908051906020019061110f9291906131cc565b506040518060c0016040528082600001805461112a90613d50565b80601f016020809104026020016040519081016040528092919081815260200182805461115690613d50565b80156111a35780601f10611178576101008083540402835291602001916111a3565b820191906000526020600020905b81548152906001019060200180831161118657829003601f168201915b5050505050815260200182600601548152602001866040516020016111c8919061345d565b6040516020818303038152906040528152602001856040516020016111ed91906137ad565b6040516020818303038152906040528152602001600181526020016040518060400160405280601081526020017f7777772e73656174706c616e2e636f6d00000000000000000000000000000000815250815250600a60008481526020019081526020016000206000820151816000019080519060200190611270929190613252565b506020820151816001015560408201518160020190805190602001906112979291906131cc565b5060608201518160030190805190602001906112b49291906131cc565b506080820151816004015560a08201518160050190805190602001906112db929190613252565b509050506112e933836125ca565b819250505092915050565b6113056112ff611b42565b83611c03565b611344576040517f08c379a000000000000000000000000000000000000000000000000000000000815260040161133b90613faa565b60405180910390fd5b611350848484846125e8565b50505050565b6060806060600060606000600960003073ffffffffffffffffffffffffffffffffffffffff1673ffffffffffffffffffffffffffffffffffffffff168152602001908152602001600020905060008160070180546113b390613d50565b80601f01602080910402602001604051908101604052809291908181526020018280546113df90613d50565b801561142c5780601f106114015761010080835404028352916020019161142c565b820191906000526020600020905b81548152906001019060200180831161140f57829003601f168201915b5050505050806020019051810190611444919061403a565b9050600082600801805461145790613d50565b80601f016020809104026020016040519081016040528092919081815260200182805461148390613d50565b80156114d05780601f106114a5576101008083540402835291602001916114d0565b820191906000526020600020905b8154815290600101906020018083116114b357829003601f168201915b50505050508060200190518101906114e89190614098565b9050826000016114fb8460060154611f3d565b83838660090184805461150d90613d50565b80601f016020809104026020016040519081016040528092919081815260200182805461153990613d50565b80156115865780601f1061155b57610100808354040283529160200191611586565b820191906000526020600020905b81548152906001019060200180831161156957829003601f168201915b5050505050945080805480602002602001604051908101604052809291908181526020016000905b8282101561165a5783829060005260206000200180546115cd90613d50565b80601f01602080910402602001604051908101604052809291908181526020018280546115f990613d50565b80156116465780601f1061161b57610100808354040283529160200191611646565b820191906000526020600020905b81548152906001019060200180831161162957829003601f168201915b5050505050815260200190600101906115ae565b505050509050975097509750975097505050509091929394565b600a60205280600052604060002060009150905080600001805461169790613d50565b80601f01602080910402602001604051908101604052809291908181526020018280546116c390613d50565b80156117105780601f106116e557610100808354040283529160200191611710565b820191906000526020600020905b8154815290600101906020018083116116f357829003601f168201915b50505050509080600101549080600201805461172b90613d50565b80601f016020809104026020016040519081016040528092919081815260200182805461175790613d50565b80156117a45780601f10611779576101008083540402835291602001916117a4565b820191906000526020600020905b81548152906001019060200180831161178757829003601f168201915b5050505050908060030180546117b990613d50565b80601f01602080910402602001604051908101604052809291908181526020018280546117e590613d50565b80156118325780601f1061180757610100808354040283529160200191611832565b820191906000526020600020905b81548152906001019060200180831161181557829003601f168201915b50505050509080600401549080600501805461184d90613d50565b80601f016020809104026020016040519081016040528092919081815260200182805461187990613d50565b80156118c65780601f1061189b576101008083540402835291602001916118c6565b820191906000526020600020905b8154815290600101906020018083116118a957829003601f168201915b5050505050905086565b60606118db82611ad6565b61191a576040517f08c379a00000000000000000000000000000000000000000000000000000000081526004016119119061443f565b60405180910390fd5b6000611924612644565b90506000815111611944576040518060200160405280600081525061196f565b8061194e8461265b565b60405160200161195f92919061449b565b6040516020818303038152906040525b915050919050565b6000600560008473ffffffffffffffffffffffffffffffffffffffff1673ffffffffffffffffffffffffffffffffffffffff16815260200190815260200160002060008373ffffffffffffffffffffffffffffffffffffffff1673ffffffffffffffffffffffffffffffffffffffff16815260200190815260200160002060009054906101000a900460ff16905092915050565b600081603c84611a1b91906144ee565b610e1086611a2991906144ee565b62015180611a388b8b8b6127bc565b611a4291906144ee565b611a4c9190614548565b611a569190614548565b611a609190614548565b90509695505050505050565b60007f01ffc9a7000000000000000000000000000000000000000000000000000000007bffffffffffffffffffffffffffffffffffffffffffffffffffffffff1916827bffffffffffffffffffffffffffffffffffffffffffffffffffffffff1916149050919050565b60008073ffffffffffffffffffffffffffffffffffffffff166002600084815260200190815260200160002060009054906101000a900473ffffffffffffffffffffffffffffffffffffffff1673ffffffffffffffffffffffffffffffffffffffff1614159050919050565b600033905090565b816004600083815260200190815260200160002060006101000a81548173ffffffffffffffffffffffffffffffffffffffff021916908373ffffffffffffffffffffffffffffffffffffffff160217905550808273ffffffffffffffffffffffffffffffffffffffff16611bbd83610c23565b73ffffffffffffffffffffffffffffffffffffffff167f8c5be1e5ebec7d5bd14f71427d1e84f3dd0314c0f7b2291e5b200ac8c7c3b92560405160405180910390a45050565b6000611c0e82611ad6565b611c4d576040517f08c379a0000000000000000000000000000000000000000000000000000000008152600401611c4490614610565b60405180910390fd5b6000611c5883610c23565b90508073ffffffffffffffffffffffffffffffffffffffff168473ffffffffffffffffffffffffffffffffffffffff161480611cc757508373ffffffffffffffffffffffffffffffffffffffff16611caf8461056b565b73ffffffffffffffffffffffffffffffffffffffff16145b80611cd85750611cd78185611977565b5b91505092915050565b8273ffffffffffffffffffffffffffffffffffffffff16611d0182610c23565b73ffffffffffffffffffffffffffffffffffffffff1614611d57576040517f08c379a0000000000000000000000000000000000000000000000000000000008152600401611d4e906146a2565b60405180910390fd5b600073ffffffffffffffffffffffffffffffffffffffff168273ffffffffffffffffffffffffffffffffffffffff161415611dc7576040517f08c379a0000000000000000000000000000000000000000000000000000000008152600401611dbe90614734565b60405180910390fd5b611dd283838361291b565b611ddd600082611b4a565b6001600360008573ffffffffffffffffffffffffffffffffffffffff1673ffffffffffffffffffffffffffffffffffffffff1681526020019081526020016000206000828254611e2d9190614754565b925050819055506001600360008473ffffffffffffffffffffffffffffffffffffffff1673ffffffffffffffffffffffffffffffffffffffff1681526020019081526020016000206000828254611e849190614548565b92505081905550816002600083815260200190815260200160002060006101000a81548173ffffffffffffffffffffffffffffffffffffffff021916908373ffffffffffffffffffffffffffffffffffffffff160217905550808273ffffffffffffffffffffffffffffffffffffffff168473ffffffffffffffffffffffffffffffffffffffff167fddf252ad1be2c89b69c2b068fc378daa952ba7f163c4a11628f55a4df523b3ef60405160405180910390a4505050565b6060600080600080600080611f5188612920565b955095509550955095509550611f66846129a7565b611f6f866129a7565b611f78886129a7565b611f81866129a7565b611f8a866129a7565b604051602001611f9e95949392919061486c565b6040516020818303038152906040529650505050505050919050565b606060008290506000815167ffffffffffffffff811115611fde57611fdd61383e565b5b6040519080825280601f01601f1916602001820160405280156120105781602001600182028036833780820191505090505b50905060005b82518110156121a557606160f81b838281518110612037576120366148e3565b5b602001015160f81c60f81b7effffffffffffffffffffffffffffffffffffffffffffffffffffffffffffff1916101580156120b55750607a60f81b838281518110612085576120846148e3565b5b602001015160f81c60f81b7effffffffffffffffffffffffffffffffffffffffffffffffffffffffffffff191611155b156121315760208382815181106120cf576120ce6148e3565b5b602001015160f81c60f81b60f81c6120e7919061491f565b60f81b8282815181106120fd576120fc6148e3565b5b60200101907effffffffffffffffffffffffffffffffffffffffffffffffffffffffffffff1916908160001a905350612192565b828181518110612144576121436148e3565b5b602001015160f81c60f81b828281518110612162576121616148e3565b5b60200101907effffffffffffffffffffffffffffffffffffffffffffffffffffffffffffff1916908160001a9053505b808061219d90614953565b915050612016565b508092505050919050565b600080600090506000600960003073ffffffffffffffffffffffffffffffffffffffff1673ffffffffffffffffffffffffffffffffffffffff168152602001908152602001600020905080600801805461220990613d50565b80601f016020809104026020016040519081016040528092919081815260200182805461223590613d50565b80156122825780601f1061225757610100808354040283529160200191612282565b820191906000526020600020905b81548152906001019060200180831161226557829003601f168201915b505050505080602001905181019061229a9190614098565b8411156122dc576040517f08c379a00000000000000000000000000000000000000000000000000000000081526004016122d390614a0e565b60405180910390fd5b6000856040516020016122ef919061345d565b604051602081830303815290604052905061230981612a01565b612348576040517f08c379a000000000000000000000000000000000000000000000000000000000815260040161233f90614aa0565b60405180910390fd5b805182600701805461235990613d50565b9050141561259f5760005b82600701805461237390613d50565b90508110156125995781818151811061238f5761238e6148e3565b5b602001015160f81c60f81b7effffffffffffffffffffffffffffffffffffffffffffffffffffffffffffff1916836007018281546123cc90613d50565b81106123db576123da6148e3565b5b8154600116156123fa5790600052602060002090602091828204019190065b9054901a7f0100000000000000000000000000000000000000000000000000000000000000027effffffffffffffffffffffffffffffffffffffffffffffffffffffffffffff19161115612464576001935082600701805461245b90613d50565b90509050612594565b818181518110612477576124766148e3565b5b602001015160f81c60f81b7effffffffffffffffffffffffffffffffffffffffffffffffffffffffffffff1916836007018281546124b490613d50565b81106124c3576124c26148e3565b5b8154600116156124e25790600052602060002090602091828204019190065b9054901a7f0100000000000000000000000000000000000000000000000000000000000000027effffffffffffffffffffffffffffffffffffffffffffffffffffffffffffff191610156125485782600701805461253f90613d50565b90509050612593565b600183600701805461255990613d50565b90506125659190614754565b8114156125835760019350808061257b90614953565b915050612592565b808061258e90614953565b9150505b5b5b612364565b506125be565b80518260070180546125b090613d50565b905011156125bd57600192505b5b82935050505092915050565b6125e4828260405180602001604052806000815250612ad1565b5050565b6125f3848484611ce1565b6125ff84848484612b2c565b61263e576040517f08c379a000000000000000000000000000000000000000000000000000000000815260040161263590614b32565b60405180910390fd5b50505050565b606060405180602001604052806000815250905090565b606060008214156126a3576040518060400160405280600181526020017f300000000000000000000000000000000000000000000000000000000000000081525090506127b7565b600082905060005b600082146126d55780806126be90614953565b915050600a826126ce9190614b81565b91506126ab565b60008167ffffffffffffffff8111156126f1576126f061383e565b5b6040519080825280601f01601f1916602001820160405280156127235781602001600182028036833780820191505090505b5090505b600085146127b05760018261273c9190614754565b9150600a8561274b9190614bb2565b60306127579190614548565b60f81b81838151811061276d5761276c6148e3565b5b60200101907effffffffffffffffffffffffffffffffffffffffffffffffffffffffffffff1916908160001a905350600a856127a99190614b81565b9450612727565b8093505050505b919050565b60006107b28410156127cd57600080fd5b600084905060008490506000849050600062253d8c60046064600c600e876127f59190614bed565b6127ff9190614c81565b6113248861280d9190614ceb565b6128179190614ceb565b6128219190614c81565b600361282d9190614d7f565b6128379190614c81565b600c80600c600e886128499190614bed565b6128539190614c81565b61285d9190614d7f565b60028761286a9190614bed565b6128749190614bed565b61016f6128819190614d7f565b61288b9190614c81565b6004600c600e8861289c9190614bed565b6128a69190614c81565b6112c0896128b49190614ceb565b6128be9190614ceb565b6105b56128cb9190614d7f565b6128d59190614c81565b617d4b866128e39190614bed565b6128ed9190614ceb565b6128f79190614ceb565b6129019190614bed565b61290b9190614bed565b9050809450505050509392505050565b505050565b600080600080600080612940620151808861293b9190614b81565b612cc3565b8096508197508298505050506000620151808861295d9190614bb2565b9050610e108161296d9190614b81565b9350610e108161297d9190614bb2565b9050603c8161298c9190614b81565b9250603c8161299b9190614bb2565b91505091939550919395565b606060006129b483612e62565b90506001815114156129ef576129c983612e62565b6040516020016129d99190614ee2565b60405160208183030381529060405291506129fb565b6129f883612e62565b91505b50919050565b6000806000905060005b8351811015612ac757604160f81b848281518110612a2c57612a2b6148e3565b5b602001015160f81c60f81b7effffffffffffffffffffffffffffffffffffffffffffffffffffffffffffff191610158015612aaa5750605a60f81b848281518110612a7a57612a796148e3565b5b602001015160f81c60f81b7effffffffffffffffffffffffffffffffffffffffffffffffffffffffffffff191611155b15612ab457600191505b8080612abf90614953565b915050612a0b565b5080915050919050565b612adb8383612feb565b612ae86000848484612b2c565b612b27576040517f08c379a0000000000000000000000000000000000000000000000000000000008152600401612b1e90614b32565b60405180910390fd5b505050565b6000612b4d8473ffffffffffffffffffffffffffffffffffffffff166131b9565b15612cb6578373ffffffffffffffffffffffffffffffffffffffff1663150b7a02612b76611b42565b8786866040518563ffffffff1660e01b8152600401612b989493929190614f04565b602060405180830381600087803b158015612bb257600080fd5b505af1925050508015612be357506040513d601f19601f82011682018060405250810190612be09190614f65565b60015b612c66573d8060008114612c13576040519150601f19603f3d011682016040523d82523d6000602084013e612c18565b606091505b50600081511415612c5e576040517f08c379a0000000000000000000000000000000000000000000000000000000008152600401612c5590614b32565b60405180910390fd5b805181602001fd5b63150b7a0260e01b7bffffffffffffffffffffffffffffffffffffffffffffffffffffffff1916817bffffffffffffffffffffffffffffffffffffffffffffffffffffffff191614915050612cbb565b600190505b949350505050565b600080600080849050600062253d8c62010bd983612ce19190614ceb565b612ceb9190614ceb565b9050600062023ab1826004612d009190614d7f565b612d0a9190614c81565b9050600460038262023ab1612d1f9190614d7f565b612d299190614ceb565b612d339190614c81565b82612d3e9190614bed565b9150600062164b09600184612d539190614ceb565b610fa0612d609190614d7f565b612d6a9190614c81565b9050601f6004826105b5612d7e9190614d7f565b612d889190614c81565b84612d939190614bed565b612d9d9190614ceb565b9250600061098f846050612db19190614d7f565b612dbb9190614c81565b9050600060508261098f612dcf9190614d7f565b612dd99190614c81565b85612de49190614bed565b9050600b82612df39190614c81565b945084600c612e029190614d7f565b600283612e0f9190614ceb565b612e199190614bed565b91508483603186612e2a9190614bed565b6064612e369190614d7f565b612e409190614ceb565b612e4a9190614ceb565b92508298508197508096505050505050509193909250565b60606000821415612eaa576040518060400160405280600181526020017f30000000000000000000000000000000000000000000000000000000000000008152509050612fe6565b600082905060005b60008214612edc578080612ec590614953565b915050600a82612ed59190614b81565b9150612eb2565b60008167ffffffffffffffff811115612ef857612ef761383e565b5b6040519080825280601f01601f191660200182016040528015612f2a5781602001600182028036833780820191505090505b50905060008290505b60008614612fde57600181612f489190614754565b90506000600a8088612f5a9190614b81565b612f6491906144ee565b87612f6f9190614754565b6030612f7b9190614f92565b905060008160f81b905080848481518110612f9957612f986148e3565b5b60200101907effffffffffffffffffffffffffffffffffffffffffffffffffffffffffffff1916908160001a905350600a88612fd59190614b81565b97505050612f33565b819450505050505b919050565b600073ffffffffffffffffffffffffffffffffffffffff168273ffffffffffffffffffffffffffffffffffffffff16141561305b576040517f08c379a000000000000000000000000000000000000000000000000000000000815260040161305290615015565b60405180910390fd5b61306481611ad6565b156130a4576040517f08c379a000000000000000000000000000000000000000000000000000000000815260040161309b90615081565b60405180910390fd5b6130b06000838361291b565b6001600360008473ffffffffffffffffffffffffffffffffffffffff1673ffffffffffffffffffffffffffffffffffffffff16815260200190815260200160002060008282546131009190614548565b92505081905550816002600083815260200190815260200160002060006101000a81548173ffffffffffffffffffffffffffffffffffffffff021916908373ffffffffffffffffffffffffffffffffffffffff160217905550808273ffffffffffffffffffffffffffffffffffffffff16600073ffffffffffffffffffffffffffffffffffffffff167fddf252ad1be2c89b69c2b068fc378daa952ba7f163c4a11628f55a4df523b3ef60405160405180910390a45050565b600080823b905060008111915050919050565b8280546131d890613d50565b90600052602060002090601f0160209004810192826131fa5760008555613241565b82601f1061321357805160ff1916838001178555613241565b82800160010185558215613241579182015b82811115613240578251825591602001919060010190613225565b5b50905061324e91906132d8565b5090565b82805461325e90613d50565b90600052602060002090601f01602090048101928261328057600085556132c7565b82601f1061329957805160ff19168380011785556132c7565b828001600101855582156132c7579182015b828111156132c65782518255916020019190600101906132ab565b5b5090506132d491906132d8565b5090565b5b808211156132f15760008160009055506001016132d9565b5090565b6000604051905090565b600080fd5b600080fd5b60007fffffffff0000000000000000000000000000000000000000000000000000000082169050919050565b61333e81613309565b811461334957600080fd5b50565b60008135905061335b81613335565b92915050565b600060208284031215613377576133766132ff565b5b60006133858482850161334c565b91505092915050565b60008115159050919050565b6133a38161338e565b82525050565b60006020820190506133be600083018461339a565b92915050565b600081519050919050565b600082825260208201905092915050565b60005b838110156133fe5780820151818401526020810190506133e3565b8381111561340d576000848401525b50505050565b6000601f19601f8301169050919050565b600061342f826133c4565b61343981856133cf565b93506134498185602086016133e0565b61345281613413565b840191505092915050565b600060208201905081810360008301526134778184613424565b905092915050565b6000819050919050565b6134928161347f565b811461349d57600080fd5b50565b6000813590506134af81613489565b92915050565b6000602082840312156134cb576134ca6132ff565b5b60006134d9848285016134a0565b91505092915050565b600073ffffffffffffffffffffffffffffffffffffffff82169050919050565b600061350d826134e2565b9050919050565b61351d81613502565b82525050565b60006020820190506135386000830184613514565b92915050565b61354781613502565b811461355257600080fd5b50565b6000813590506135648161353e565b92915050565b60008060408385031215613581576135806132ff565b5b600061358f85828601613555565b92505060206135a0858286016134a0565b9150509250929050565b6000806000606084860312156135c3576135c26132ff565b5b60006135d186828701613555565b93505060206135e286828701613555565b92505060406135f3868287016134a0565b9150509250925092565b6136068161347f565b82525050565b600060c08201905081810360008301526136268189613424565b9050818103602083015261363a8188613424565b9050818103604083015261364e8187613424565b905061365d60608301866135fd565b61366a60808301856135fd565b81810360a083015261367c8184613424565b9050979650505050505050565b60006020828403121561369f5761369e6132ff565b5b60006136ad84828501613555565b91505092915050565b600081519050919050565b600082825260208201905092915050565b60006136dd826136b6565b6136e781856136c1565b93506136f78185602086016133e0565b61370081613413565b840191505092915050565b6000610120820190508181036000830152613726818c613424565b9050613735602083018b6135fd565b613742604083018a6135fd565b61374f60608301896135fd565b61375c60808301886135fd565b61376960a08301876135fd565b61377660c08301866135fd565b81810360e083015261378881856136d2565b905081810361010083015261379d81846136d2565b90509a9950505050505050505050565b60006020820190506137c260008301846135fd565b92915050565b6137d18161338e565b81146137dc57600080fd5b50565b6000813590506137ee816137c8565b92915050565b6000806040838503121561380b5761380a6132ff565b5b600061381985828601613555565b925050602061382a858286016137df565b9150509250929050565b600080fd5b600080fd5b7f4e487b7100000000000000000000000000000000000000000000000000000000600052604160045260246000fd5b61387682613413565b810181811067ffffffffffffffff821117156138955761389461383e565b5b80604052505050565b60006138a86132f5565b90506138b4828261386d565b919050565b600067ffffffffffffffff8211156138d4576138d361383e565b5b6138dd82613413565b9050602081019050919050565b82818337600083830152505050565b600061390c613907846138b9565b61389e565b90508281526020810184848401111561392857613927613839565b5b6139338482856138ea565b509392505050565b600082601f8301126139505761394f613834565b5b81356139608482602086016138f9565b91505092915050565b600080604083850312156139805761397f6132ff565b5b600083013567ffffffffffffffff81111561399e5761399d613304565b5b6139aa8582860161393b565b92505060206139bb858286016134a0565b9150509250929050565b600067ffffffffffffffff8211156139e0576139df61383e565b5b6139e982613413565b9050602081019050919050565b6000613a09613a04846139c5565b61389e565b905082815260208101848484011115613a2557613a24613839565b5b613a308482856138ea565b509392505050565b600082601f830112613a4d57613a4c613834565b5b8135613a5d8482602086016139f6565b91505092915050565b60008060008060808587031215613a8057613a7f6132ff565b5b6000613a8e87828801613555565b9450506020613a9f87828801613555565b9350506040613ab0878288016134a0565b925050606085013567ffffffffffffffff811115613ad157613ad0613304565b5b613add87828801613a38565b91505092959194509250565b600081519050919050565b600082825260208201905092915050565b6000819050602082019050919050565b600082825260208201905092915050565b6000613b31826136b6565b613b3b8185613b15565b9350613b4b8185602086016133e0565b613b5481613413565b840191505092915050565b6000613b6b8383613b26565b905092915050565b6000602082019050919050565b6000613b8b82613ae9565b613b958185613af4565b935083602082028501613ba785613b05565b8060005b85811015613be35784840389528151613bc48582613b5f565b9450613bcf83613b73565b925060208a01995050600181019050613bab565b50829750879550505050505092915050565b600060a0820190508181036000830152613c0f8188613424565b90508181036020830152613c238187613424565b90508181036040830152613c378186613424565b9050613c4660608301856135fd565b8181036080830152613c588184613b80565b90509695505050505050565b600060c0820190508181036000830152613c7e8189613424565b9050613c8d60208301886135fd565b8181036040830152613c9f81876136d2565b90508181036060830152613cb381866136d2565b9050613cc260808301856135fd565b81810360a0830152613cd48184613424565b9050979650505050505050565b60008060408385031215613cf857613cf76132ff565b5b6000613d0685828601613555565b9250506020613d1785828601613555565b9150509250929050565b7f4e487b7100000000000000000000000000000000000000000000000000000000600052602260045260246000fd5b60006002820490506001821680613d6857607f821691505b60208210811415613d7c57613d7b613d21565b5b50919050565b7f4552433732313a20617070726f76656420717565727920666f72206e6f6e657860008201527f697374656e7420746f6b656e0000000000000000000000000000000000000000602082015250565b6000613dde602c836133cf565b9150613de982613d82565b604082019050919050565b60006020820190508181036000830152613e0d81613dd1565b9050919050565b7f4552433732313a20617070726f76616c20746f2063757272656e74206f776e6560008201527f7200000000000000000000000000000000000000000000000000000000000000602082015250565b6000613e706021836133cf565b9150613e7b82613e14565b604082019050919050565b60006020820190508181036000830152613e9f81613e63565b9050919050565b7f4552433732313a20617070726f76652063616c6c6572206973206e6f74206f7760008201527f6e6572206e6f7220617070726f76656420666f7220616c6c0000000000000000602082015250565b6000613f026038836133cf565b9150613f0d82613ea6565b604082019050919050565b60006020820190508181036000830152613f3181613ef5565b9050919050565b7f4552433732313a207472616e736665722063616c6c6572206973206e6f74206f60008201527f776e6572206e6f7220617070726f766564000000000000000000000000000000602082015250565b6000613f946031836133cf565b9150613f9f82613f38565b604082019050919050565b60006020820190508181036000830152613fc381613f87565b9050919050565b6000613fdd613fd8846138b9565b61389e565b905082815260208101848484011115613ff957613ff8613839565b5b6140048482856133e0565b509392505050565b600082601f83011261402157614020613834565b5b8151614031848260208601613fca565b91505092915050565b6000602082840312156140505761404f6132ff565b5b600082015167ffffffffffffffff81111561406e5761406d613304565b5b61407a8482850161400c565b91505092915050565b60008151905061409281613489565b92915050565b6000602082840312156140ae576140ad6132ff565b5b60006140bc84828501614083565b91505092915050565b7f4552433732313a206f776e657220717565727920666f72206e6f6e657869737460008201527f656e7420746f6b656e0000000000000000000000000000000000000000000000602082015250565b60006141216029836133cf565b915061412c826140c5565b604082019050919050565b6000602082019050818103600083015261415081614114565b9050919050565b7f4552433732313a2062616c616e636520717565727920666f7220746865207a6560008201527f726f206164647265737300000000000000000000000000000000000000000000602082015250565b60006141b3602a836133cf565b91506141be82614157565b604082019050919050565b600060208201905081810360008301526141e2816141a6565b9050919050565b7f4552433732313a20617070726f766520746f2063616c6c657200000000000000600082015250565b600061421f6019836133cf565b915061422a826141e9565b602082019050919050565b6000602082019050818103600083015261424e81614212565b9050919050565b7f5365617420726f7720657863656564732074686520746865617472652773206360008201527f617061636974792e000000000000000000000000000000000000000000000000602082015250565b60006142b16028836133cf565b91506142bc82614255565b604082019050919050565b600060208201905081810360008301526142e0816142a4565b9050919050565b600060408201905081810360008301526143018185613424565b905061431060208301846135fd565b9392505050565b600081905092915050565b600061432d826136b6565b6143378185614317565b93506143478185602086016133e0565b80840191505092915050565b600061435f8284614322565b915081905092915050565b6000819050919050565b61437d8161436a565b811461438857600080fd5b50565b60008151905061439a81614374565b92915050565b6000602082840312156143b6576143b56132ff565b5b60006143c48482850161438b565b91505092915050565b7f4552433732314d657461646174613a2055524920717565727920666f72206e6f60008201527f6e6578697374656e7420746f6b656e0000000000000000000000000000000000602082015250565b6000614429602f836133cf565b9150614434826143cd565b604082019050919050565b600060208201905081810360008301526144588161441c565b9050919050565b600081905092915050565b6000614475826133c4565b61447f818561445f565b935061448f8185602086016133e0565b80840191505092915050565b60006144a7828561446a565b91506144b3828461446a565b91508190509392505050565b7f4e487b7100000000000000000000000000000000000000000000000000000000600052601160045260246000fd5b60006144f98261347f565b91506145048361347f565b9250817fffffffffffffffffffffffffffffffffffffffffffffffffffffffffffffffff048311821515161561453d5761453c6144bf565b5b828202905092915050565b60006145538261347f565b915061455e8361347f565b9250827fffffffffffffffffffffffffffffffffffffffffffffffffffffffffffffffff03821115614593576145926144bf565b5b828201905092915050565b7f4552433732313a206f70657261746f7220717565727920666f72206e6f6e657860008201527f697374656e7420746f6b656e0000000000000000000000000000000000000000602082015250565b60006145fa602c836133cf565b91506146058261459e565b604082019050919050565b60006020820190508181036000830152614629816145ed565b9050919050565b7f4552433732313a207472616e73666572206f6620746f6b656e2074686174206960008201527f73206e6f74206f776e0000000000000000000000000000000000000000000000602082015250565b600061468c6029836133cf565b915061469782614630565b604082019050919050565b600060208201905081810360008301526146bb8161467f565b9050919050565b7f4552433732313a207472616e7366657220746f20746865207a65726f2061646460008201527f7265737300000000000000000000000000000000000000000000000000000000602082015250565b600061471e6024836133cf565b9150614729826146c2565b604082019050919050565b6000602082019050818103600083015261474d81614711565b9050919050565b600061475f8261347f565b915061476a8361347f565b92508282101561477d5761477c6144bf565b5b828203905092915050565b7f2f00000000000000000000000000000000000000000000000000000000000000600082015250565b60006147be60018361445f565b91506147c982614788565b600182019050919050565b7f2000000000000000000000000000000000000000000000000000000000000000600082015250565b600061480a60018361445f565b9150614815826147d4565b600182019050919050565b7f3a00000000000000000000000000000000000000000000000000000000000000600082015250565b600061485660018361445f565b915061486182614820565b600182019050919050565b6000614878828861446a565b9150614883826147b1565b915061488f828761446a565b915061489a826147b1565b91506148a6828661446a565b91506148b1826147fd565b91506148bd828561446a565b91506148c882614849565b91506148d4828461446a565b91508190509695505050505050565b7f4e487b7100000000000000000000000000000000000000000000000000000000600052603260045260246000fd5b600060ff82169050919050565b600061492a82614912565b915061493583614912565b925082821015614948576149476144bf565b5b828203905092915050565b600061495e8261347f565b91507fffffffffffffffffffffffffffffffffffffffffffffffffffffffffffffffff821415614991576149906144bf565b5b600182019050919050565b7f53656174206e756d62657220657863656564732074686520746865617472652760008201527f732063617061636974792e000000000000000000000000000000000000000000602082015250565b60006149f8602b836133cf565b9150614a038261499c565b604082019050919050565b60006020820190508181036000830152614a27816149eb565b9050919050565b7f56616c6964206c65747465722066726f6d204120746f205a207265717569726560008201527f642e000000000000000000000000000000000000000000000000000000000000602082015250565b6000614a8a6022836133cf565b9150614a9582614a2e565b604082019050919050565b60006020820190508181036000830152614ab981614a7d565b9050919050565b7f4552433732313a207472616e7366657220746f206e6f6e20455243373231526560008201527f63656976657220696d706c656d656e7465720000000000000000000000000000602082015250565b6000614b1c6032836133cf565b9150614b2782614ac0565b604082019050919050565b60006020820190508181036000830152614b4b81614b0f565b9050919050565b7f4e487b7100000000000000000000000000000000000000000000000000000000600052601260045260246000fd5b6000614b8c8261347f565b9150614b978361347f565b925082614ba757614ba6614b52565b5b828204905092915050565b6000614bbd8261347f565b9150614bc88361347f565b925082614bd857614bd7614b52565b5b828206905092915050565b6000819050919050565b6000614bf882614be3565b9150614c0383614be3565b9250827f800000000000000000000000000000000000000000000000000000000000000001821260008412151615614c3e57614c3d6144bf565b5b827f7fffffffffffffffffffffffffffffffffffffffffffffffffffffffffffffff018213600084121615614c7657614c756144bf565b5b828203905092915050565b6000614c8c82614be3565b9150614c9783614be3565b925082614ca757614ca6614b52565b5b600160000383147f800000000000000000000000000000000000000000000000000000000000000083141615614ce057614cdf6144bf565b5b828205905092915050565b6000614cf682614be3565b9150614d0183614be3565b9250817f7fffffffffffffffffffffffffffffffffffffffffffffffffffffffffffffff03831360008312151615614d3c57614d3b6144bf565b5b817f8000000000000000000000000000000000000000000000000000000000000000038312600083121615614d7457614d736144bf565b5b828201905092915050565b6000614d8a82614be3565b9150614d9583614be3565b9250827f7fffffffffffffffffffffffffffffffffffffffffffffffffffffffffffffff0482116000841360008413161615614dd457614dd36144bf565b5b817f80000000000000000000000000000000000000000000000000000000000000000583126000841260008413161615614e1157614e106144bf565b5b827f80000000000000000000000000000000000000000000000000000000000000000582126000841360008412161615614e4e57614e4d6144bf565b5b827f7fffffffffffffffffffffffffffffffffffffffffffffffffffffffffffffff0582126000841260008412161615614e8b57614e8a6144bf565b5b828202905092915050565b7f3000000000000000000000000000000000000000000000000000000000000000600082015250565b6000614ecc60018361445f565b9150614ed782614e96565b600182019050919050565b6000614eed82614ebf565b9150614ef9828461446a565b915081905092915050565b6000608082019050614f196000830187613514565b614f266020830186613514565b614f3360408301856135fd565b8181036060830152614f4581846136d2565b905095945050505050565b600081519050614f5f81613335565b92915050565b600060208284031215614f7b57614f7a6132ff565b5b6000614f8984828501614f50565b91505092915050565b6000614f9d82614912565b9150614fa883614912565b92508260ff03821115614fbe57614fbd6144bf565b5b828201905092915050565b7f4552433732313a206d696e7420746f20746865207a65726f2061646472657373600082015250565b6000614fff6020836133cf565b915061500a82614fc9565b602082019050919050565b6000602082019050818103600083015261502e81614ff2565b9050919050565b7f4552433732313a20746f6b656e20616c7265616479206d696e74656400000000600082015250565b600061506b601c836133cf565b915061507682615035565b602082019050919050565b6000602082019050818103600083015261509a8161505e565b905091905056fea26469706673582212202fc1659db125c96c25315b5b9132513067f3f2123a40fe39a7973d050996d04664736f6c63430008090033",
			"opcodes": "PUSH1 0x80 PUSH1 0x40 MSTORE CALLVALUE DUP1 ISZERO PUSH3 0x11 JUMPI PUSH1 0x0 DUP1 REVERT JUMPDEST POP PUSH1 0x40 MLOAD PUSH3 0x616B CODESIZE SUB DUP1 PUSH3 0x616B DUP4 CODECOPY DUP2 DUP2 ADD PUSH1 0x40 MSTORE DUP2 ADD SWAP1 PUSH3 0x37 SWAP2 SWAP1 PUSH3 0x9A7 JUMP JUMPDEST PUSH1 0x40 MLOAD DUP1 PUSH1 0x40 ADD PUSH1 0x40 MSTORE DUP1 PUSH1 0x13 DUP2 MSTORE PUSH1 0x20 ADD PUSH32 0x47726F757020382053686F77205469636B657400000000000000000000000000 DUP2 MSTORE POP PUSH1 0x40 MLOAD DUP1 PUSH1 0x40 ADD PUSH1 0x40 MSTORE DUP1 PUSH1 0x4 DUP2 MSTORE PUSH1 0x20 ADD PUSH32 0x4738535400000000000000000000000000000000000000000000000000000000 DUP2 MSTORE POP DUP2 PUSH1 0x0 SWAP1 DUP1 MLOAD SWAP1 PUSH1 0x20 ADD SWAP1 PUSH3 0xBB SWAP3 SWAP2 SWAP1 PUSH3 0x68E JUMP JUMPDEST POP DUP1 PUSH1 0x1 SWAP1 DUP1 MLOAD SWAP1 PUSH1 0x20 ADD SWAP1 PUSH3 0xD4 SWAP3 SWAP2 SWAP1 PUSH3 0x68E JUMP JUMPDEST POP POP POP CALLER PUSH1 0x6 PUSH1 0x0 PUSH2 0x100 EXP DUP2 SLOAD DUP2 PUSH20 0xFFFFFFFFFFFFFFFFFFFFFFFFFFFFFFFFFFFFFFFF MUL NOT AND SWAP1 DUP4 PUSH20 0xFFFFFFFFFFFFFFFFFFFFFFFFFFFFFFFFFFFFFFFF AND MUL OR SWAP1 SSTORE POP PUSH1 0x0 PUSH1 0x9 PUSH1 0x0 ADDRESS PUSH20 0xFFFFFFFFFFFFFFFFFFFFFFFFFFFFFFFFFFFFFFFF AND PUSH20 0xFFFFFFFFFFFFFFFFFFFFFFFFFFFFFFFFFFFFFFFF AND DUP2 MSTORE PUSH1 0x20 ADD SWAP1 DUP2 MSTORE PUSH1 0x20 ADD PUSH1 0x0 KECCAK256 SWAP1 POP DUP9 DUP2 PUSH1 0x0 ADD SWAP1 DUP1 MLOAD SWAP1 PUSH1 0x20 ADD SWAP1 PUSH3 0x175 SWAP3 SWAP2 SWAP1 PUSH3 0x68E JUMP JUMPDEST POP DUP6 DUP2 PUSH1 0x1 ADD DUP2 SWAP1 SSTORE POP DUP7 DUP2 PUSH1 0x2 ADD DUP2 SWAP1 SSTORE POP DUP8 DUP2 PUSH1 0x3 ADD DUP2 SWAP1 SSTORE POP DUP5 DUP2 PUSH1 0x4 ADD DUP2 SWAP1 SSTORE POP DUP4 DUP2 PUSH1 0x5 ADD DUP2 SWAP1 SSTORE POP PUSH3 0x1D3 DUP2 PUSH1 0x1 ADD SLOAD DUP3 PUSH1 0x2 ADD SLOAD DUP4 PUSH1 0x3 ADD SLOAD DUP5 PUSH1 0x4 ADD SLOAD DUP6 PUSH1 0x5 ADD SLOAD PUSH1 0x0 PUSH3 0x272 PUSH1 0x20 SHL PUSH3 0x1A0B OR PUSH1 0x20 SHR JUMP JUMPDEST DUP2 PUSH1 0x6 ADD DUP2 SWAP1 SSTORE POP PUSH3 0x1EC DUP4 PUSH3 0x2E7 PUSH1 0x20 SHL PUSH1 0x20 SHR JUMP JUMPDEST PUSH1 0x40 MLOAD PUSH1 0x20 ADD PUSH3 0x1FE SWAP2 SWAP1 PUSH3 0xB0B JUMP JUMPDEST PUSH1 0x40 MLOAD PUSH1 0x20 DUP2 DUP4 SUB SUB DUP2 MSTORE SWAP1 PUSH1 0x40 MSTORE DUP2 PUSH1 0x7 ADD SWAP1 DUP1 MLOAD SWAP1 PUSH1 0x20 ADD SWAP1 PUSH3 0x226 SWAP3 SWAP2 SWAP1 PUSH3 0x71F JUMP JUMPDEST POP DUP2 PUSH1 0x40 MLOAD PUSH1 0x20 ADD PUSH3 0x23A SWAP2 SWAP1 PUSH3 0xB40 JUMP JUMPDEST PUSH1 0x40 MLOAD PUSH1 0x20 DUP2 DUP4 SUB SUB DUP2 MSTORE SWAP1 PUSH1 0x40 MSTORE DUP2 PUSH1 0x8 ADD SWAP1 DUP1 MLOAD SWAP1 PUSH1 0x20 ADD SWAP1 PUSH3 0x262 SWAP3 SWAP2 SWAP1 PUSH3 0x71F JUMP JUMPDEST POP POP POP POP POP POP POP POP POP POP PUSH3 0x1084 JUMP JUMPDEST PUSH1 0x0 DUP2 PUSH1 0x3C DUP5 PUSH3 0x284 SWAP2 SWAP1 PUSH3 0xB8C JUMP JUMPDEST PUSH2 0xE10 DUP7 PUSH3 0x294 SWAP2 SWAP1 PUSH3 0xB8C JUMP JUMPDEST PUSH3 0x15180 PUSH3 0x2AB DUP12 DUP12 DUP12 PUSH3 0x4FC PUSH1 0x20 SHL PUSH1 0x20 SHR JUMP JUMPDEST PUSH3 0x2B7 SWAP2 SWAP1 PUSH3 0xB8C JUMP JUMPDEST PUSH3 0x2C3 SWAP2 SWAP1 PUSH3 0xBED JUMP JUMPDEST PUSH3 0x2CF SWAP2 SWAP1 PUSH3 0xBED JUMP JUMPDEST PUSH3 0x2DB SWAP2 SWAP1 PUSH3 0xBED JUMP JUMPDEST SWAP1 POP SWAP7 SWAP6 POP POP POP POP POP POP JUMP JUMPDEST PUSH1 0x60 PUSH1 0x0 DUP3 SWAP1 POP PUSH1 0x0 DUP2 MLOAD PUSH8 0xFFFFFFFFFFFFFFFF DUP2 GT ISZERO PUSH3 0x30E JUMPI PUSH3 0x30D PUSH3 0x7FE JUMP JUMPDEST JUMPDEST PUSH1 0x40 MLOAD SWAP1 DUP1 DUP3 MSTORE DUP1 PUSH1 0x1F ADD PUSH1 0x1F NOT AND PUSH1 0x20 ADD DUP3 ADD PUSH1 0x40 MSTORE DUP1 ISZERO PUSH3 0x341 JUMPI DUP2 PUSH1 0x20 ADD PUSH1 0x1 DUP3 MUL DUP1 CALLDATASIZE DUP4 CALLDATACOPY DUP1 DUP3 ADD SWAP2 POP POP SWAP1 POP JUMPDEST POP SWAP1 POP PUSH1 0x0 JUMPDEST DUP3 MLOAD DUP2 LT ISZERO PUSH3 0x4F1 JUMPI PUSH1 0x61 PUSH1 0xF8 SHL DUP4 DUP3 DUP2 MLOAD DUP2 LT PUSH3 0x36C JUMPI PUSH3 0x36B PUSH3 0xC4A JUMP JUMPDEST JUMPDEST PUSH1 0x20 ADD ADD MLOAD PUSH1 0xF8 SHR PUSH1 0xF8 SHL PUSH31 0xFFFFFFFFFFFFFFFFFFFFFFFFFFFFFFFFFFFFFFFFFFFFFFFFFFFFFFFFFFFFFF NOT AND LT ISZERO DUP1 ISZERO PUSH3 0x3EE JUMPI POP PUSH1 0x7A PUSH1 0xF8 SHL DUP4 DUP3 DUP2 MLOAD DUP2 LT PUSH3 0x3BE JUMPI PUSH3 0x3BD PUSH3 0xC4A JUMP JUMPDEST JUMPDEST PUSH1 0x20 ADD ADD MLOAD PUSH1 0xF8 SHR PUSH1 0xF8 SHL PUSH31 0xFFFFFFFFFFFFFFFFFFFFFFFFFFFFFFFFFFFFFFFFFFFFFFFFFFFFFFFFFFFFFF NOT AND GT ISZERO JUMPDEST ISZERO PUSH3 0x474 JUMPI PUSH1 0x20 DUP4 DUP3 DUP2 MLOAD DUP2 LT PUSH3 0x40C JUMPI PUSH3 0x40B PUSH3 0xC4A JUMP JUMPDEST JUMPDEST PUSH1 0x20 ADD ADD MLOAD PUSH1 0xF8 SHR PUSH1 0xF8 SHL PUSH1 0xF8 SHR PUSH3 0x426 SWAP2 SWAP1 PUSH3 0xC86 JUMP JUMPDEST PUSH1 0xF8 SHL DUP3 DUP3 DUP2 MLOAD DUP2 LT PUSH3 0x43F JUMPI PUSH3 0x43E PUSH3 0xC4A JUMP JUMPDEST JUMPDEST PUSH1 0x20 ADD ADD SWAP1 PUSH31 0xFFFFFFFFFFFFFFFFFFFFFFFFFFFFFFFFFFFFFFFFFFFFFFFFFFFFFFFFFFFFFF NOT AND SWAP1 DUP2 PUSH1 0x0 BYTE SWAP1 MSTORE8 POP PUSH3 0x4DB JUMP JUMPDEST DUP3 DUP2 DUP2 MLOAD DUP2 LT PUSH3 0x48A JUMPI PUSH3 0x489 PUSH3 0xC4A JUMP JUMPDEST JUMPDEST PUSH1 0x20 ADD ADD MLOAD PUSH1 0xF8 SHR PUSH1 0xF8 SHL DUP3 DUP3 DUP2 MLOAD DUP2 LT PUSH3 0x4AB JUMPI PUSH3 0x4AA PUSH3 0xC4A JUMP JUMPDEST JUMPDEST PUSH1 0x20 ADD ADD SWAP1 PUSH31 0xFFFFFFFFFFFFFFFFFFFFFFFFFFFFFFFFFFFFFFFFFFFFFFFFFFFFFFFFFFFFFF NOT AND SWAP1 DUP2 PUSH1 0x0 BYTE SWAP1 MSTORE8 POP JUMPDEST DUP1 DUP1 PUSH3 0x4E8 SWAP1 PUSH3 0xCC1 JUMP JUMPDEST SWAP2 POP POP PUSH3 0x347 JUMP JUMPDEST POP DUP1 SWAP3 POP POP POP SWAP2 SWAP1 POP JUMP JUMPDEST PUSH1 0x0 PUSH2 0x7B2 DUP5 LT ISZERO PUSH3 0x50E JUMPI PUSH1 0x0 DUP1 REVERT JUMPDEST PUSH1 0x0 DUP5 SWAP1 POP PUSH1 0x0 DUP5 SWAP1 POP PUSH1 0x0 DUP5 SWAP1 POP PUSH1 0x0 PUSH3 0x253D8C PUSH1 0x4 PUSH1 0x64 PUSH1 0xC PUSH1 0xE DUP8 PUSH3 0x538 SWAP2 SWAP1 PUSH3 0xD19 JUMP JUMPDEST PUSH3 0x544 SWAP2 SWAP1 PUSH3 0xDE6 JUMP JUMPDEST PUSH2 0x1324 DUP9 PUSH3 0x554 SWAP2 SWAP1 PUSH3 0xE5A JUMP JUMPDEST PUSH3 0x560 SWAP2 SWAP1 PUSH3 0xE5A JUMP JUMPDEST PUSH3 0x56C SWAP2 SWAP1 PUSH3 0xDE6 JUMP JUMPDEST PUSH1 0x3 PUSH3 0x57A SWAP2 SWAP1 PUSH3 0xEF8 JUMP JUMPDEST PUSH3 0x586 SWAP2 SWAP1 PUSH3 0xDE6 JUMP JUMPDEST PUSH1 0xC DUP1 PUSH1 0xC PUSH1 0xE DUP9 PUSH3 0x59A SWAP2 SWAP1 PUSH3 0xD19 JUMP JUMPDEST PUSH3 0x5A6 SWAP2 SWAP1 PUSH3 0xDE6 JUMP JUMPDEST PUSH3 0x5B2 SWAP2 SWAP1 PUSH3 0xEF8 JUMP JUMPDEST PUSH1 0x2 DUP8 PUSH3 0x5C1 SWAP2 SWAP1 PUSH3 0xD19 JUMP JUMPDEST PUSH3 0x5CD SWAP2 SWAP1 PUSH3 0xD19 JUMP JUMPDEST PUSH2 0x16F PUSH3 0x5DC SWAP2 SWAP1 PUSH3 0xEF8 JUMP JUMPDEST PUSH3 0x5E8 SWAP2 SWAP1 PUSH3 0xDE6 JUMP JUMPDEST PUSH1 0x4 PUSH1 0xC PUSH1 0xE DUP9 PUSH3 0x5FB SWAP2 SWAP1 PUSH3 0xD19 JUMP JUMPDEST PUSH3 0x607 SWAP2 SWAP1 PUSH3 0xDE6 JUMP JUMPDEST PUSH2 0x12C0 DUP10 PUSH3 0x617 SWAP2 SWAP1 PUSH3 0xE5A JUMP JUMPDEST PUSH3 0x623 SWAP2 SWAP1 PUSH3 0xE5A JUMP JUMPDEST PUSH2 0x5B5 PUSH3 0x632 SWAP2 SWAP1 PUSH3 0xEF8 JUMP JUMPDEST PUSH3 0x63E SWAP2 SWAP1 PUSH3 0xDE6 JUMP JUMPDEST PUSH2 0x7D4B DUP7 PUSH3 0x64E SWAP2 SWAP1 PUSH3 0xD19 JUMP JUMPDEST PUSH3 0x65A SWAP2 SWAP1 PUSH3 0xE5A JUMP JUMPDEST PUSH3 0x666 SWAP2 SWAP1 PUSH3 0xE5A JUMP JUMPDEST PUSH3 0x672 SWAP2 SWAP1 PUSH3 0xD19 JUMP JUMPDEST PUSH3 0x67E SWAP2 SWAP1 PUSH3 0xD19 JUMP JUMPDEST SWAP1 POP DUP1 SWAP5 POP POP POP POP POP SWAP4 SWAP3 POP POP POP JUMP JUMPDEST DUP3 DUP1 SLOAD PUSH3 0x69C SWAP1 PUSH3 0x104E JUMP JUMPDEST SWAP1 PUSH1 0x0 MSTORE PUSH1 0x20 PUSH1 0x0 KECCAK256 SWAP1 PUSH1 0x1F ADD PUSH1 0x20 SWAP1 DIV DUP2 ADD SWAP3 DUP3 PUSH3 0x6C0 JUMPI PUSH1 0x0 DUP6 SSTORE PUSH3 0x70C JUMP JUMPDEST DUP3 PUSH1 0x1F LT PUSH3 0x6DB JUMPI DUP1 MLOAD PUSH1 0xFF NOT AND DUP4 DUP1 ADD OR DUP6 SSTORE PUSH3 0x70C JUMP JUMPDEST DUP3 DUP1 ADD PUSH1 0x1 ADD DUP6 SSTORE DUP3 ISZERO PUSH3 0x70C JUMPI SWAP2 DUP3 ADD JUMPDEST DUP3 DUP2 GT ISZERO PUSH3 0x70B JUMPI DUP3 MLOAD DUP3 SSTORE SWAP2 PUSH1 0x20 ADD SWAP2 SWAP1 PUSH1 0x1 ADD SWAP1 PUSH3 0x6EE JUMP JUMPDEST JUMPDEST POP SWAP1 POP PUSH3 0x71B SWAP2 SWAP1 PUSH3 0x7B0 JUMP JUMPDEST POP SWAP1 JUMP JUMPDEST DUP3 DUP1 SLOAD PUSH3 0x72D SWAP1 PUSH3 0x104E JUMP JUMPDEST SWAP1 PUSH1 0x0 MSTORE PUSH1 0x20 PUSH1 0x0 KECCAK256 SWAP1 PUSH1 0x1F ADD PUSH1 0x20 SWAP1 DIV DUP2 ADD SWAP3 DUP3 PUSH3 0x751 JUMPI PUSH1 0x0 DUP6 SSTORE PUSH3 0x79D JUMP JUMPDEST DUP3 PUSH1 0x1F LT PUSH3 0x76C JUMPI DUP1 MLOAD PUSH1 0xFF NOT AND DUP4 DUP1 ADD OR DUP6 SSTORE PUSH3 0x79D JUMP JUMPDEST DUP3 DUP1 ADD PUSH1 0x1 ADD DUP6 SSTORE DUP3 ISZERO PUSH3 0x79D JUMPI SWAP2 DUP3 ADD JUMPDEST DUP3 DUP2 GT ISZERO PUSH3 0x79C JUMPI DUP3 MLOAD DUP3 SSTORE SWAP2 PUSH1 0x20 ADD SWAP2 SWAP1 PUSH1 0x1 ADD SWAP1 PUSH3 0x77F JUMP JUMPDEST JUMPDEST POP SWAP1 POP PUSH3 0x7AC SWAP2 SWAP1 PUSH3 0x7B0 JUMP JUMPDEST POP SWAP1 JUMP JUMPDEST JUMPDEST DUP1 DUP3 GT ISZERO PUSH3 0x7CB JUMPI PUSH1 0x0 DUP2 PUSH1 0x0 SWAP1 SSTORE POP PUSH1 0x1 ADD PUSH3 0x7B1 JUMP JUMPDEST POP SWAP1 JUMP JUMPDEST PUSH1 0x0 PUSH1 0x40 MLOAD SWAP1 POP SWAP1 JUMP JUMPDEST PUSH1 0x0 DUP1 REVERT JUMPDEST PUSH1 0x0 DUP1 REVERT JUMPDEST PUSH1 0x0 DUP1 REVERT JUMPDEST PUSH1 0x0 DUP1 REVERT JUMPDEST PUSH1 0x0 PUSH1 0x1F NOT PUSH1 0x1F DUP4 ADD AND SWAP1 POP SWAP2 SWAP1 POP JUMP JUMPDEST PUSH32 0x4E487B7100000000000000000000000000000000000000000000000000000000 PUSH1 0x0 MSTORE PUSH1 0x41 PUSH1 0x4 MSTORE PUSH1 0x24 PUSH1 0x0 REVERT JUMPDEST PUSH3 0x838 DUP3 PUSH3 0x7ED JUMP JUMPDEST DUP2 ADD DUP2 DUP2 LT PUSH8 0xFFFFFFFFFFFFFFFF DUP3 GT OR ISZERO PUSH3 0x85A JUMPI PUSH3 0x859 PUSH3 0x7FE JUMP JUMPDEST JUMPDEST DUP1 PUSH1 0x40 MSTORE POP POP POP JUMP JUMPDEST PUSH1 0x0 PUSH3 0x86F PUSH3 0x7CF JUMP JUMPDEST SWAP1 POP PUSH3 0x87D DUP3 DUP3 PUSH3 0x82D JUMP JUMPDEST SWAP2 SWAP1 POP JUMP JUMPDEST PUSH1 0x0 PUSH8 0xFFFFFFFFFFFFFFFF DUP3 GT ISZERO PUSH3 0x8A0 JUMPI PUSH3 0x89F PUSH3 0x7FE JUMP JUMPDEST JUMPDEST PUSH3 0x8AB DUP3 PUSH3 0x7ED JUMP JUMPDEST SWAP1 POP PUSH1 0x20 DUP2 ADD SWAP1 POP SWAP2 SWAP1 POP JUMP JUMPDEST PUSH1 0x0 JUMPDEST DUP4 DUP2 LT ISZERO PUSH3 0x8D8 JUMPI DUP1 DUP3 ADD MLOAD DUP2 DUP5 ADD MSTORE PUSH1 0x20 DUP2 ADD SWAP1 POP PUSH3 0x8BB JUMP JUMPDEST DUP4 DUP2 GT ISZERO PUSH3 0x8E8 JUMPI PUSH1 0x0 DUP5 DUP5 ADD MSTORE JUMPDEST POP POP POP POP JUMP JUMPDEST PUSH1 0x0 PUSH3 0x905 PUSH3 0x8FF DUP5 PUSH3 0x882 JUMP JUMPDEST PUSH3 0x863 JUMP JUMPDEST SWAP1 POP DUP3 DUP2 MSTORE PUSH1 0x20 DUP2 ADD DUP5 DUP5 DUP5 ADD GT ISZERO PUSH3 0x924 JUMPI PUSH3 0x923 PUSH3 0x7E8 JUMP JUMPDEST JUMPDEST PUSH3 0x931 DUP5 DUP3 DUP6 PUSH3 0x8B8 JUMP JUMPDEST POP SWAP4 SWAP3 POP POP POP JUMP JUMPDEST PUSH1 0x0 DUP3 PUSH1 0x1F DUP4 ADD SLT PUSH3 0x951 JUMPI PUSH3 0x950 PUSH3 0x7E3 JUMP JUMPDEST JUMPDEST DUP2 MLOAD PUSH3 0x963 DUP5 DUP3 PUSH1 0x20 DUP7 ADD PUSH3 0x8EE JUMP JUMPDEST SWAP2 POP POP SWAP3 SWAP2 POP POP JUMP JUMPDEST PUSH1 0x0 DUP2 SWAP1 POP SWAP2 SWAP1 POP JUMP JUMPDEST PUSH3 0x981 DUP2 PUSH3 0x96C JUMP JUMPDEST DUP2 EQ PUSH3 0x98D JUMPI PUSH1 0x0 DUP1 REVERT JUMPDEST POP JUMP JUMPDEST PUSH1 0x0 DUP2 MLOAD SWAP1 POP PUSH3 0x9A1 DUP2 PUSH3 0x976 JUMP JUMPDEST SWAP3 SWAP2 POP POP JUMP JUMPDEST PUSH1 0x0 DUP1 PUSH1 0x0 DUP1 PUSH1 0x0 DUP1 PUSH1 0x0 DUP1 PUSH2 0x100 DUP10 DUP12 SUB SLT ISZERO PUSH3 0x9CB JUMPI PUSH3 0x9CA PUSH3 0x7D9 JUMP JUMPDEST JUMPDEST PUSH1 0x0 DUP10 ADD MLOAD PUSH8 0xFFFFFFFFFFFFFFFF DUP2 GT ISZERO PUSH3 0x9EC JUMPI PUSH3 0x9EB PUSH3 0x7DE JUMP JUMPDEST JUMPDEST PUSH3 0x9FA DUP12 DUP3 DUP13 ADD PUSH3 0x939 JUMP JUMPDEST SWAP9 POP POP PUSH1 0x20 PUSH3 0xA0D DUP12 DUP3 DUP13 ADD PUSH3 0x990 JUMP JUMPDEST SWAP8 POP POP PUSH1 0x40 PUSH3 0xA20 DUP12 DUP3 DUP13 ADD PUSH3 0x990 JUMP JUMPDEST SWAP7 POP POP PUSH1 0x60 PUSH3 0xA33 DUP12 DUP3 DUP13 ADD PUSH3 0x990 JUMP JUMPDEST SWAP6 POP POP PUSH1 0x80 PUSH3 0xA46 DUP12 DUP3 DUP13 ADD PUSH3 0x990 JUMP JUMPDEST SWAP5 POP POP PUSH1 0xA0 PUSH3 0xA59 DUP12 DUP3 DUP13 ADD PUSH3 0x990 JUMP JUMPDEST SWAP4 POP POP PUSH1 0xC0 DUP10 ADD MLOAD PUSH8 0xFFFFFFFFFFFFFFFF DUP2 GT ISZERO PUSH3 0xA7D JUMPI PUSH3 0xA7C PUSH3 0x7DE JUMP JUMPDEST JUMPDEST PUSH3 0xA8B DUP12 DUP3 DUP13 ADD PUSH3 0x939 JUMP JUMPDEST SWAP3 POP POP PUSH1 0xE0 PUSH3 0xA9E DUP12 DUP3 DUP13 ADD PUSH3 0x990 JUMP JUMPDEST SWAP2 POP POP SWAP3 SWAP6 SWAP9 POP SWAP3 SWAP6 SWAP9 SWAP1 SWAP4 SWAP7 POP JUMP JUMPDEST PUSH1 0x0 DUP2 MLOAD SWAP1 POP SWAP2 SWAP1 POP JUMP JUMPDEST PUSH1 0x0 DUP3 DUP3 MSTORE PUSH1 0x20 DUP3 ADD SWAP1 POP SWAP3 SWAP2 POP POP JUMP JUMPDEST PUSH1 0x0 PUSH3 0xAD7 DUP3 PUSH3 0xAAE JUMP JUMPDEST PUSH3 0xAE3 DUP2 DUP6 PUSH3 0xAB9 JUMP JUMPDEST SWAP4 POP PUSH3 0xAF5 DUP2 DUP6 PUSH1 0x20 DUP7 ADD PUSH3 0x8B8 JUMP JUMPDEST PUSH3 0xB00 DUP2 PUSH3 0x7ED JUMP JUMPDEST DUP5 ADD SWAP2 POP POP SWAP3 SWAP2 POP POP JUMP JUMPDEST PUSH1 0x0 PUSH1 0x20 DUP3 ADD SWAP1 POP DUP2 DUP2 SUB PUSH1 0x0 DUP4 ADD MSTORE PUSH3 0xB27 DUP2 DUP5 PUSH3 0xACA JUMP JUMPDEST SWAP1 POP SWAP3 SWAP2 POP POP JUMP JUMPDEST PUSH3 0xB3A DUP2 PUSH3 0x96C JUMP JUMPDEST DUP3 MSTORE POP POP JUMP JUMPDEST PUSH1 0x0 PUSH1 0x20 DUP3 ADD SWAP1 POP PUSH3 0xB57 PUSH1 0x0 DUP4 ADD DUP5 PUSH3 0xB2F JUMP JUMPDEST SWAP3 SWAP2 POP POP JUMP JUMPDEST PUSH32 0x4E487B7100000000000000000000000000000000000000000000000000000000 PUSH1 0x0 MSTORE PUSH1 0x11 PUSH1 0x4 MSTORE PUSH1 0x24 PUSH1 0x0 REVERT JUMPDEST PUSH1 0x0 PUSH3 0xB99 DUP3 PUSH3 0x96C JUMP JUMPDEST SWAP2 POP PUSH3 0xBA6 DUP4 PUSH3 0x96C JUMP JUMPDEST SWAP3 POP DUP2 PUSH32 0xFFFFFFFFFFFFFFFFFFFFFFFFFFFFFFFFFFFFFFFFFFFFFFFFFFFFFFFFFFFFFFFF DIV DUP4 GT DUP3 ISZERO ISZERO AND ISZERO PUSH3 0xBE2 JUMPI PUSH3 0xBE1 PUSH3 0xB5D JUMP JUMPDEST JUMPDEST DUP3 DUP3 MUL SWAP1 POP SWAP3 SWAP2 POP POP JUMP JUMPDEST PUSH1 0x0 PUSH3 0xBFA DUP3 PUSH3 0x96C JUMP JUMPDEST SWAP2 POP PUSH3 0xC07 DUP4 PUSH3 0x96C JUMP JUMPDEST SWAP3 POP DUP3 PUSH32 0xFFFFFFFFFFFFFFFFFFFFFFFFFFFFFFFFFFFFFFFFFFFFFFFFFFFFFFFFFFFFFFFF SUB DUP3 GT ISZERO PUSH3 0xC3F JUMPI PUSH3 0xC3E PUSH3 0xB5D JUMP JUMPDEST JUMPDEST DUP3 DUP3 ADD SWAP1 POP SWAP3 SWAP2 POP POP JUMP JUMPDEST PUSH32 0x4E487B7100000000000000000000000000000000000000000000000000000000 PUSH1 0x0 MSTORE PUSH1 0x32 PUSH1 0x4 MSTORE PUSH1 0x24 PUSH1 0x0 REVERT JUMPDEST PUSH1 0x0 PUSH1 0xFF DUP3 AND SWAP1 POP SWAP2 SWAP1 POP JUMP JUMPDEST PUSH1 0x0 PUSH3 0xC93 DUP3 PUSH3 0xC79 JUMP JUMPDEST SWAP2 POP PUSH3 0xCA0 DUP4 PUSH3 0xC79 JUMP JUMPDEST SWAP3 POP DUP3 DUP3 LT ISZERO PUSH3 0xCB6 JUMPI PUSH3 0xCB5 PUSH3 0xB5D JUMP JUMPDEST JUMPDEST DUP3 DUP3 SUB SWAP1 POP SWAP3 SWAP2 POP POP JUMP JUMPDEST PUSH1 0x0 PUSH3 0xCCE DUP3 PUSH3 0x96C JUMP JUMPDEST SWAP2 POP PUSH32 0xFFFFFFFFFFFFFFFFFFFFFFFFFFFFFFFFFFFFFFFFFFFFFFFFFFFFFFFFFFFFFFFF DUP3 EQ ISZERO PUSH3 0xD04 JUMPI PUSH3 0xD03 PUSH3 0xB5D JUMP JUMPDEST JUMPDEST PUSH1 0x1 DUP3 ADD SWAP1 POP SWAP2 SWAP1 POP JUMP JUMPDEST PUSH1 0x0 DUP2 SWAP1 POP SWAP2 SWAP1 POP JUMP JUMPDEST PUSH1 0x0 PUSH3 0xD26 DUP3 PUSH3 0xD0F JUMP JUMPDEST SWAP2 POP PUSH3 0xD33 DUP4 PUSH3 0xD0F JUMP JUMPDEST SWAP3 POP DUP3 PUSH32 0x8000000000000000000000000000000000000000000000000000000000000000 ADD DUP3 SLT PUSH1 0x0 DUP5 SLT ISZERO AND ISZERO PUSH3 0xD71 JUMPI PUSH3 0xD70 PUSH3 0xB5D JUMP JUMPDEST JUMPDEST DUP3 PUSH32 0x7FFFFFFFFFFFFFFFFFFFFFFFFFFFFFFFFFFFFFFFFFFFFFFFFFFFFFFFFFFFFFFF ADD DUP3 SGT PUSH1 0x0 DUP5 SLT AND ISZERO PUSH3 0xDAC JUMPI PUSH3 0xDAB PUSH3 0xB5D JUMP JUMPDEST JUMPDEST DUP3 DUP3 SUB SWAP1 POP SWAP3 SWAP2 POP POP JUMP JUMPDEST PUSH32 0x4E487B7100000000000000000000000000000000000000000000000000000000 PUSH1 0x0 MSTORE PUSH1 0x12 PUSH1 0x4 MSTORE PUSH1 0x24 PUSH1 0x0 REVERT JUMPDEST PUSH1 0x0 PUSH3 0xDF3 DUP3 PUSH3 0xD0F JUMP JUMPDEST SWAP2 POP PUSH3 0xE00 DUP4 PUSH3 0xD0F JUMP JUMPDEST SWAP3 POP DUP3 PUSH3 0xE13 JUMPI PUSH3 0xE12 PUSH3 0xDB7 JUMP JUMPDEST JUMPDEST PUSH1 0x1 PUSH1 0x0 SUB DUP4 EQ PUSH32 0x8000000000000000000000000000000000000000000000000000000000000000 DUP4 EQ AND ISZERO PUSH3 0xE4F JUMPI PUSH3 0xE4E PUSH3 0xB5D JUMP JUMPDEST JUMPDEST DUP3 DUP3 SDIV SWAP1 POP SWAP3 SWAP2 POP POP JUMP JUMPDEST PUSH1 0x0 PUSH3 0xE67 DUP3 PUSH3 0xD0F JUMP JUMPDEST SWAP2 POP PUSH3 0xE74 DUP4 PUSH3 0xD0F JUMP JUMPDEST SWAP3 POP DUP2 PUSH32 0x7FFFFFFFFFFFFFFFFFFFFFFFFFFFFFFFFFFFFFFFFFFFFFFFFFFFFFFFFFFFFFFF SUB DUP4 SGT PUSH1 0x0 DUP4 SLT ISZERO AND ISZERO PUSH3 0xEB2 JUMPI PUSH3 0xEB1 PUSH3 0xB5D JUMP JUMPDEST JUMPDEST DUP2 PUSH32 0x8000000000000000000000000000000000000000000000000000000000000000 SUB DUP4 SLT PUSH1 0x0 DUP4 SLT AND ISZERO PUSH3 0xEED JUMPI PUSH3 0xEEC PUSH3 0xB5D JUMP JUMPDEST JUMPDEST DUP3 DUP3 ADD SWAP1 POP SWAP3 SWAP2 POP POP JUMP JUMPDEST PUSH1 0x0 PUSH3 0xF05 DUP3 PUSH3 0xD0F JUMP JUMPDEST SWAP2 POP PUSH3 0xF12 DUP4 PUSH3 0xD0F JUMP JUMPDEST SWAP3 POP DUP3 PUSH32 0x7FFFFFFFFFFFFFFFFFFFFFFFFFFFFFFFFFFFFFFFFFFFFFFFFFFFFFFFFFFFFFFF DIV DUP3 GT PUSH1 0x0 DUP5 SGT PUSH1 0x0 DUP5 SGT AND AND ISZERO PUSH3 0xF54 JUMPI PUSH3 0xF53 PUSH3 0xB5D JUMP JUMPDEST JUMPDEST DUP2 PUSH32 0x8000000000000000000000000000000000000000000000000000000000000000 SDIV DUP4 SLT PUSH1 0x0 DUP5 SLT PUSH1 0x0 DUP5 SGT AND AND ISZERO PUSH3 0xF94 JUMPI PUSH3 0xF93 PUSH3 0xB5D JUMP JUMPDEST JUMPDEST DUP3 PUSH32 0x8000000000000000000000000000000000000000000000000000000000000000 SDIV DUP3 SLT PUSH1 0x0 DUP5 SGT PUSH1 0x0 DUP5 SLT AND AND ISZERO PUSH3 0xFD4 JUMPI PUSH3 0xFD3 PUSH3 0xB5D JUMP JUMPDEST JUMPDEST DUP3 PUSH32 0x7FFFFFFFFFFFFFFFFFFFFFFFFFFFFFFFFFFFFFFFFFFFFFFFFFFFFFFFFFFFFFFF SDIV DUP3 SLT PUSH1 0x0 DUP5 SLT PUSH1 0x0 DUP5 SLT AND AND ISZERO PUSH3 0x1014 JUMPI PUSH3 0x1013 PUSH3 0xB5D JUMP JUMPDEST JUMPDEST DUP3 DUP3 MUL SWAP1 POP SWAP3 SWAP2 POP POP JUMP JUMPDEST PUSH32 0x4E487B7100000000000000000000000000000000000000000000000000000000 PUSH1 0x0 MSTORE PUSH1 0x22 PUSH1 0x4 MSTORE PUSH1 0x24 PUSH1 0x0 REVERT JUMPDEST PUSH1 0x0 PUSH1 0x2 DUP3 DIV SWAP1 POP PUSH1 0x1 DUP3 AND DUP1 PUSH3 0x1067 JUMPI PUSH1 0x7F DUP3 AND SWAP2 POP JUMPDEST PUSH1 0x20 DUP3 LT DUP2 EQ ISZERO PUSH3 0x107E JUMPI PUSH3 0x107D PUSH3 0x101F JUMP JUMPDEST JUMPDEST POP SWAP2 SWAP1 POP JUMP JUMPDEST PUSH2 0x50D7 DUP1 PUSH3 0x1094 PUSH1 0x0 CODECOPY PUSH1 0x0 RETURN INVALID PUSH1 0x80 PUSH1 0x40 MSTORE CALLVALUE DUP1 ISZERO PUSH2 0x10 JUMPI PUSH1 0x0 DUP1 REVERT JUMPDEST POP PUSH1 0x4 CALLDATASIZE LT PUSH2 0x116 JUMPI PUSH1 0x0 CALLDATALOAD PUSH1 0xE0 SHR DUP1 PUSH4 0x70A08231 GT PUSH2 0xA2 JUMPI DUP1 PUSH4 0xB88D4FDE GT PUSH2 0x71 JUMPI DUP1 PUSH4 0xB88D4FDE EQ PUSH2 0x324 JUMPI DUP1 PUSH4 0xBB63FC3E EQ PUSH2 0x340 JUMPI DUP1 PUSH4 0xC129FF32 EQ PUSH2 0x362 JUMPI DUP1 PUSH4 0xC87B56DD EQ PUSH2 0x397 JUMPI DUP1 PUSH4 0xE985E9C5 EQ PUSH2 0x3C7 JUMPI PUSH2 0x116 JUMP JUMPDEST DUP1 PUSH4 0x70A08231 EQ PUSH2 0x28A JUMPI DUP1 PUSH4 0x95D89B41 EQ PUSH2 0x2BA JUMPI DUP1 PUSH4 0xA22CB465 EQ PUSH2 0x2D8 JUMPI DUP1 PUSH4 0xA28F161C EQ PUSH2 0x2F4 JUMPI PUSH2 0x116 JUMP JUMPDEST DUP1 PUSH4 0x23B872DD GT PUSH2 0xE9 JUMPI DUP1 PUSH4 0x23B872DD EQ PUSH2 0x1B5 JUMPI DUP1 PUSH4 0x24C14160 EQ PUSH2 0x1D1 JUMPI DUP1 PUSH4 0x287A61E4 EQ PUSH2 0x206 JUMPI DUP1 PUSH4 0x42842E0E EQ PUSH2 0x23E JUMPI DUP1 PUSH4 0x6352211E EQ PUSH2 0x25A JUMPI PUSH2 0x116 JUMP JUMPDEST DUP1 PUSH4 0x1FFC9A7 EQ PUSH2 0x11B JUMPI DUP1 PUSH4 0x6FDDE03 EQ PUSH2 0x14B JUMPI DUP1 PUSH4 0x81812FC EQ PUSH2 0x169 JUMPI DUP1 PUSH4 0x95EA7B3 EQ PUSH2 0x199 JUMPI JUMPDEST PUSH1 0x0 DUP1 REVERT JUMPDEST PUSH2 0x135 PUSH1 0x4 DUP1 CALLDATASIZE SUB DUP2 ADD SWAP1 PUSH2 0x130 SWAP2 SWAP1 PUSH2 0x3361 JUMP JUMPDEST PUSH2 0x3F7 JUMP JUMPDEST PUSH1 0x40 MLOAD PUSH2 0x142 SWAP2 SWAP1 PUSH2 0x33A9 JUMP JUMPDEST PUSH1 0x40 MLOAD DUP1 SWAP2 SUB SWAP1 RETURN JUMPDEST PUSH2 0x153 PUSH2 0x4D9 JUMP JUMPDEST PUSH1 0x40 MLOAD PUSH2 0x160 SWAP2 SWAP1 PUSH2 0x345D JUMP JUMPDEST PUSH1 0x40 MLOAD DUP1 SWAP2 SUB SWAP1 RETURN JUMPDEST PUSH2 0x183 PUSH1 0x4 DUP1 CALLDATASIZE SUB DUP2 ADD SWAP1 PUSH2 0x17E SWAP2 SWAP1 PUSH2 0x34B5 JUMP JUMPDEST PUSH2 0x56B JUMP JUMPDEST PUSH1 0x40 MLOAD PUSH2 0x190 SWAP2 SWAP1 PUSH2 0x3523 JUMP JUMPDEST PUSH1 0x40 MLOAD DUP1 SWAP2 SUB SWAP1 RETURN JUMPDEST PUSH2 0x1B3 PUSH1 0x4 DUP1 CALLDATASIZE SUB DUP2 ADD SWAP1 PUSH2 0x1AE SWAP2 SWAP1 PUSH2 0x356A JUMP JUMPDEST PUSH2 0x5F0 JUMP JUMPDEST STOP JUMPDEST PUSH2 0x1CF PUSH1 0x4 DUP1 CALLDATASIZE SUB DUP2 ADD SWAP1 PUSH2 0x1CA SWAP2 SWAP1 PUSH2 0x35AA JUMP JUMPDEST PUSH2 0x708 JUMP JUMPDEST STOP JUMPDEST PUSH2 0x1EB PUSH1 0x4 DUP1 CALLDATASIZE SUB DUP2 ADD SWAP1 PUSH2 0x1E6 SWAP2 SWAP1 PUSH2 0x34B5 JUMP JUMPDEST PUSH2 0x768 JUMP JUMPDEST PUSH1 0x40 MLOAD PUSH2 0x1FD SWAP7 SWAP6 SWAP5 SWAP4 SWAP3 SWAP2 SWAP1 PUSH2 0x360C JUMP JUMPDEST PUSH1 0x40 MLOAD DUP1 SWAP2 SUB SWAP1 RETURN JUMPDEST PUSH2 0x220 PUSH1 0x4 DUP1 CALLDATASIZE SUB DUP2 ADD SWAP1 PUSH2 0x21B SWAP2 SWAP1 PUSH2 0x3689 JUMP JUMPDEST PUSH2 0xA1D JUMP JUMPDEST PUSH1 0x40 MLOAD PUSH2 0x235 SWAP10 SWAP9 SWAP8 SWAP7 SWAP6 SWAP5 SWAP4 SWAP3 SWAP2 SWAP1 PUSH2 0x370B JUMP JUMPDEST PUSH1 0x40 MLOAD DUP1 SWAP2 SUB SWAP1 RETURN JUMPDEST PUSH2 0x258 PUSH1 0x4 DUP1 CALLDATASIZE SUB DUP2 ADD SWAP1 PUSH2 0x253 SWAP2 SWAP1 PUSH2 0x35AA JUMP JUMPDEST PUSH2 0xC03 JUMP JUMPDEST STOP JUMPDEST PUSH2 0x274 PUSH1 0x4 DUP1 CALLDATASIZE SUB DUP2 ADD SWAP1 PUSH2 0x26F SWAP2 SWAP1 PUSH2 0x34B5 JUMP JUMPDEST PUSH2 0xC23 JUMP JUMPDEST PUSH1 0x40 MLOAD PUSH2 0x281 SWAP2 SWAP1 PUSH2 0x3523 JUMP JUMPDEST PUSH1 0x40 MLOAD DUP1 SWAP2 SUB SWAP1 RETURN JUMPDEST PUSH2 0x2A4 PUSH1 0x4 DUP1 CALLDATASIZE SUB DUP2 ADD SWAP1 PUSH2 0x29F SWAP2 SWAP1 PUSH2 0x3689 JUMP JUMPDEST PUSH2 0xCD5 JUMP JUMPDEST PUSH1 0x40 MLOAD PUSH2 0x2B1 SWAP2 SWAP1 PUSH2 0x37AD JUMP JUMPDEST PUSH1 0x40 MLOAD DUP1 SWAP2 SUB SWAP1 RETURN JUMPDEST PUSH2 0x2C2 PUSH2 0xD8D JUMP JUMPDEST PUSH1 0x40 MLOAD PUSH2 0x2CF SWAP2 SWAP1 PUSH2 0x345D JUMP JUMPDEST PUSH1 0x40 MLOAD DUP1 SWAP2 SUB SWAP1 RETURN JUMPDEST PUSH2 0x2F2 PUSH1 0x4 DUP1 CALLDATASIZE SUB DUP2 ADD SWAP1 PUSH2 0x2ED SWAP2 SWAP1 PUSH2 0x37F4 JUMP JUMPDEST PUSH2 0xE1F JUMP JUMPDEST STOP JUMPDEST PUSH2 0x30E PUSH1 0x4 DUP1 CALLDATASIZE SUB DUP2 ADD SWAP1 PUSH2 0x309 SWAP2 SWAP1 PUSH2 0x3969 JUMP JUMPDEST PUSH2 0xFA0 JUMP JUMPDEST PUSH1 0x40 MLOAD PUSH2 0x31B SWAP2 SWAP1 PUSH2 0x37AD JUMP JUMPDEST PUSH1 0x40 MLOAD DUP1 SWAP2 SUB SWAP1 RETURN JUMPDEST PUSH2 0x33E PUSH1 0x4 DUP1 CALLDATASIZE SUB DUP2 ADD SWAP1 PUSH2 0x339 SWAP2 SWAP1 PUSH2 0x3A66 JUMP JUMPDEST PUSH2 0x12F4 JUMP JUMPDEST STOP JUMPDEST PUSH2 0x348 PUSH2 0x1356 JUMP JUMPDEST PUSH1 0x40 MLOAD PUSH2 0x359 SWAP6 SWAP5 SWAP4 SWAP3 SWAP2 SWAP1 PUSH2 0x3BF5 JUMP JUMPDEST PUSH1 0x40 MLOAD DUP1 SWAP2 SUB SWAP1 RETURN JUMPDEST PUSH2 0x37C PUSH1 0x4 DUP1 CALLDATASIZE SUB DUP2 ADD SWAP1 PUSH2 0x377 SWAP2 SWAP1 PUSH2 0x34B5 JUMP JUMPDEST PUSH2 0x1674 JUMP JUMPDEST PUSH1 0x40 MLOAD PUSH2 0x38E SWAP7 SWAP6 SWAP5 SWAP4 SWAP3 SWAP2 SWAP1 PUSH2 0x3C64 JUMP JUMPDEST PUSH1 0x40 MLOAD DUP1 SWAP2 SUB SWAP1 RETURN JUMPDEST PUSH2 0x3B1 PUSH1 0x4 DUP1 CALLDATASIZE SUB DUP2 ADD SWAP1 PUSH2 0x3AC SWAP2 SWAP1 PUSH2 0x34B5 JUMP JUMPDEST PUSH2 0x18D0 JUMP JUMPDEST PUSH1 0x40 MLOAD PUSH2 0x3BE SWAP2 SWAP1 PUSH2 0x345D JUMP JUMPDEST PUSH1 0x40 MLOAD DUP1 SWAP2 SUB SWAP1 RETURN JUMPDEST PUSH2 0x3E1 PUSH1 0x4 DUP1 CALLDATASIZE SUB DUP2 ADD SWAP1 PUSH2 0x3DC SWAP2 SWAP1 PUSH2 0x3CE1 JUMP JUMPDEST PUSH2 0x1977 JUMP JUMPDEST PUSH1 0x40 MLOAD PUSH2 0x3EE SWAP2 SWAP1 PUSH2 0x33A9 JUMP JUMPDEST PUSH1 0x40 MLOAD DUP1 SWAP2 SUB SWAP1 RETURN JUMPDEST PUSH1 0x0 PUSH32 0x80AC58CD00000000000000000000000000000000000000000000000000000000 PUSH28 0xFFFFFFFFFFFFFFFFFFFFFFFFFFFFFFFFFFFFFFFFFFFFFFFFFFFFFFFF NOT AND DUP3 PUSH28 0xFFFFFFFFFFFFFFFFFFFFFFFFFFFFFFFFFFFFFFFFFFFFFFFFFFFFFFFF NOT AND EQ DUP1 PUSH2 0x4C2 JUMPI POP PUSH32 0x5B5E139F00000000000000000000000000000000000000000000000000000000 PUSH28 0xFFFFFFFFFFFFFFFFFFFFFFFFFFFFFFFFFFFFFFFFFFFFFFFFFFFFFFFF NOT AND DUP3 PUSH28 0xFFFFFFFFFFFFFFFFFFFFFFFFFFFFFFFFFFFFFFFFFFFFFFFFFFFFFFFF NOT AND EQ JUMPDEST DUP1 PUSH2 0x4D2 JUMPI POP PUSH2 0x4D1 DUP3 PUSH2 0x1A6C JUMP JUMPDEST JUMPDEST SWAP1 POP SWAP2 SWAP1 POP JUMP JUMPDEST PUSH1 0x60 PUSH1 0x0 DUP1 SLOAD PUSH2 0x4E8 SWAP1 PUSH2 0x3D50 JUMP JUMPDEST DUP1 PUSH1 0x1F ADD PUSH1 0x20 DUP1 SWAP2 DIV MUL PUSH1 0x20 ADD PUSH1 0x40 MLOAD SWAP1 DUP2 ADD PUSH1 0x40 MSTORE DUP1 SWAP3 SWAP2 SWAP1 DUP2 DUP2 MSTORE PUSH1 0x20 ADD DUP3 DUP1 SLOAD PUSH2 0x514 SWAP1 PUSH2 0x3D50 JUMP JUMPDEST DUP1 ISZERO PUSH2 0x561 JUMPI DUP1 PUSH1 0x1F LT PUSH2 0x536 JUMPI PUSH2 0x100 DUP1 DUP4 SLOAD DIV MUL DUP4 MSTORE SWAP2 PUSH1 0x20 ADD SWAP2 PUSH2 0x561 JUMP JUMPDEST DUP3 ADD SWAP2 SWAP1 PUSH1 0x0 MSTORE PUSH1 0x20 PUSH1 0x0 KECCAK256 SWAP1 JUMPDEST DUP2 SLOAD DUP2 MSTORE SWAP1 PUSH1 0x1 ADD SWAP1 PUSH1 0x20 ADD DUP1 DUP4 GT PUSH2 0x544 JUMPI DUP3 SWAP1 SUB PUSH1 0x1F AND DUP3 ADD SWAP2 JUMPDEST POP POP POP POP POP SWAP1 POP SWAP1 JUMP JUMPDEST PUSH1 0x0 PUSH2 0x576 DUP3 PUSH2 0x1AD6 JUMP JUMPDEST PUSH2 0x5B5 JUMPI PUSH1 0x40 MLOAD PUSH32 0x8C379A000000000000000000000000000000000000000000000000000000000 DUP2 MSTORE PUSH1 0x4 ADD PUSH2 0x5AC SWAP1 PUSH2 0x3DF4 JUMP JUMPDEST PUSH1 0x40 MLOAD DUP1 SWAP2 SUB SWAP1 REVERT JUMPDEST PUSH1 0x4 PUSH1 0x0 DUP4 DUP2 MSTORE PUSH1 0x20 ADD SWAP1 DUP2 MSTORE PUSH1 0x20 ADD PUSH1 0x0 KECCAK256 PUSH1 0x0 SWAP1 SLOAD SWAP1 PUSH2 0x100 EXP SWAP1 DIV PUSH20 0xFFFFFFFFFFFFFFFFFFFFFFFFFFFFFFFFFFFFFFFF AND SWAP1 POP SWAP2 SWAP1 POP JUMP JUMPDEST PUSH1 0x0 PUSH2 0x5FB DUP3 PUSH2 0xC23 JUMP JUMPDEST SWAP1 POP DUP1 PUSH20 0xFFFFFFFFFFFFFFFFFFFFFFFFFFFFFFFFFFFFFFFF AND DUP4 PUSH20 0xFFFFFFFFFFFFFFFFFFFFFFFFFFFFFFFFFFFFFFFF AND EQ ISZERO PUSH2 0x66C JUMPI PUSH1 0x40 MLOAD PUSH32 0x8C379A000000000000000000000000000000000000000000000000000000000 DUP2 MSTORE PUSH1 0x4 ADD PUSH2 0x663 SWAP1 PUSH2 0x3E86 JUMP JUMPDEST PUSH1 0x40 MLOAD DUP1 SWAP2 SUB SWAP1 REVERT JUMPDEST DUP1 PUSH20 0xFFFFFFFFFFFFFFFFFFFFFFFFFFFFFFFFFFFFFFFF AND PUSH2 0x68B PUSH2 0x1B42 JUMP JUMPDEST PUSH20 0xFFFFFFFFFFFFFFFFFFFFFFFFFFFFFFFFFFFFFFFF AND EQ DUP1 PUSH2 0x6BA JUMPI POP PUSH2 0x6B9 DUP2 PUSH2 0x6B4 PUSH2 0x1B42 JUMP JUMPDEST PUSH2 0x1977 JUMP JUMPDEST JUMPDEST PUSH2 0x6F9 JUMPI PUSH1 0x40 MLOAD PUSH32 0x8C379A000000000000000000000000000000000000000000000000000000000 DUP2 MSTORE PUSH1 0x4 ADD PUSH2 0x6F0 SWAP1 PUSH2 0x3F18 JUMP JUMPDEST PUSH1 0x40 MLOAD DUP1 SWAP2 SUB SWAP1 REVERT JUMPDEST PUSH2 0x703 DUP4 DUP4 PUSH2 0x1B4A JUMP JUMPDEST POP POP POP JUMP JUMPDEST PUSH2 0x719 PUSH2 0x713 PUSH2 0x1B42 JUMP JUMPDEST DUP3 PUSH2 0x1C03 JUMP JUMPDEST PUSH2 0x758 JUMPI PUSH1 0x40 MLOAD PUSH32 0x8C379A000000000000000000000000000000000000000000000000000000000 DUP2 MSTORE PUSH1 0x4 ADD PUSH2 0x74F SWAP1 PUSH2 0x3FAA JUMP JUMPDEST PUSH1 0x40 MLOAD DUP1 SWAP2 SUB SWAP1 REVERT JUMPDEST PUSH2 0x763 DUP4 DUP4 DUP4 PUSH2 0x1CE1 JUMP JUMPDEST POP POP POP JUMP JUMPDEST PUSH1 0x60 DUP1 PUSH1 0x60 PUSH1 0x0 DUP1 PUSH1 0x60 PUSH1 0x0 PUSH1 0xA PUSH1 0x0 DUP10 DUP2 MSTORE PUSH1 0x20 ADD SWAP1 DUP2 MSTORE PUSH1 0x20 ADD PUSH1 0x0 KECCAK256 SWAP1 POP PUSH1 0x0 DUP2 PUSH1 0x2 ADD DUP1 SLOAD PUSH2 0x79A SWAP1 PUSH2 0x3D50 JUMP JUMPDEST DUP1 PUSH1 0x1F ADD PUSH1 0x20 DUP1 SWAP2 DIV MUL PUSH1 0x20 ADD PUSH1 0x40 MLOAD SWAP1 DUP2 ADD PUSH1 0x40 MSTORE DUP1 SWAP3 SWAP2 SWAP1 DUP2 DUP2 MSTORE PUSH1 0x20 ADD DUP3 DUP1 SLOAD PUSH2 0x7C6 SWAP1 PUSH2 0x3D50 JUMP JUMPDEST DUP1 ISZERO PUSH2 0x813 JUMPI DUP1 PUSH1 0x1F LT PUSH2 0x7E8 JUMPI PUSH2 0x100 DUP1 DUP4 SLOAD DIV MUL DUP4 MSTORE SWAP2 PUSH1 0x20 ADD SWAP2 PUSH2 0x813 JUMP JUMPDEST DUP3 ADD SWAP2 SWAP1 PUSH1 0x0 MSTORE PUSH1 0x20 PUSH1 0x0 KECCAK256 SWAP1 JUMPDEST DUP2 SLOAD DUP2 MSTORE SWAP1 PUSH1 0x1 ADD SWAP1 PUSH1 0x20 ADD DUP1 DUP4 GT PUSH2 0x7F6 JUMPI DUP3 SWAP1 SUB PUSH1 0x1F AND DUP3 ADD SWAP2 JUMPDEST POP POP POP POP POP DUP1 PUSH1 0x20 ADD SWAP1 MLOAD DUP2 ADD SWAP1 PUSH2 0x82B SWAP2 SWAP1 PUSH2 0x403A JUMP JUMPDEST SWAP1 POP PUSH1 0x0 DUP3 PUSH1 0x3 ADD DUP1 SLOAD PUSH2 0x83E SWAP1 PUSH2 0x3D50 JUMP JUMPDEST DUP1 PUSH1 0x1F ADD PUSH1 0x20 DUP1 SWAP2 DIV MUL PUSH1 0x20 ADD PUSH1 0x40 MLOAD SWAP1 DUP2 ADD PUSH1 0x40 MSTORE DUP1 SWAP3 SWAP2 SWAP1 DUP2 DUP2 MSTORE PUSH1 0x20 ADD DUP3 DUP1 SLOAD PUSH2 0x86A SWAP1 PUSH2 0x3D50 JUMP JUMPDEST DUP1 ISZERO PUSH2 0x8B7 JUMPI DUP1 PUSH1 0x1F LT PUSH2 0x88C JUMPI PUSH2 0x100 DUP1 DUP4 SLOAD DIV MUL DUP4 MSTORE SWAP2 PUSH1 0x20 ADD SWAP2 PUSH2 0x8B7 JUMP JUMPDEST DUP3 ADD SWAP2 SWAP1 PUSH1 0x0 MSTORE PUSH1 0x20 PUSH1 0x0 KECCAK256 SWAP1 JUMPDEST DUP2 SLOAD DUP2 MSTORE SWAP1 PUSH1 0x1 ADD SWAP1 PUSH1 0x20 ADD DUP1 DUP4 GT PUSH2 0x89A JUMPI DUP3 SWAP1 SUB PUSH1 0x1F AND DUP3 ADD SWAP2 JUMPDEST POP POP POP POP POP DUP1 PUSH1 0x20 ADD SWAP1 MLOAD DUP2 ADD SWAP1 PUSH2 0x8CF SWAP2 SWAP1 PUSH2 0x4098 JUMP JUMPDEST SWAP1 POP DUP3 PUSH1 0x0 ADD PUSH2 0x8E2 DUP5 PUSH1 0x1 ADD SLOAD PUSH2 0x1F3D JUMP JUMPDEST DUP4 DUP4 DUP7 PUSH1 0x4 ADD SLOAD DUP8 PUSH1 0x5 ADD DUP6 DUP1 SLOAD PUSH2 0x8F9 SWAP1 PUSH2 0x3D50 JUMP JUMPDEST DUP1 PUSH1 0x1F ADD PUSH1 0x20 DUP1 SWAP2 DIV MUL PUSH1 0x20 ADD PUSH1 0x40 MLOAD SWAP1 DUP2 ADD PUSH1 0x40 MSTORE DUP1 SWAP3 SWAP2 SWAP1 DUP2 DUP2 MSTORE PUSH1 0x20 ADD DUP3 DUP1 SLOAD PUSH2 0x925 SWAP1 PUSH2 0x3D50 JUMP JUMPDEST DUP1 ISZERO PUSH2 0x972 JUMPI DUP1 PUSH1 0x1F LT PUSH2 0x947 JUMPI PUSH2 0x100 DUP1 DUP4 SLOAD DIV MUL DUP4 MSTORE SWAP2 PUSH1 0x20 ADD SWAP2 PUSH2 0x972 JUMP JUMPDEST DUP3 ADD SWAP2 SWAP1 PUSH1 0x0 MSTORE PUSH1 0x20 PUSH1 0x0 KECCAK256 SWAP1 JUMPDEST DUP2 SLOAD DUP2 MSTORE SWAP1 PUSH1 0x1 ADD SWAP1 PUSH1 0x20 ADD DUP1 DUP4 GT PUSH2 0x955 JUMPI DUP3 SWAP1 SUB PUSH1 0x1F AND DUP3 ADD SWAP2 JUMPDEST POP POP POP POP POP SWAP6 POP DUP1 DUP1 SLOAD PUSH2 0x985 SWAP1 PUSH2 0x3D50 JUMP JUMPDEST DUP1 PUSH1 0x1F ADD PUSH1 0x20 DUP1 SWAP2 DIV MUL PUSH1 0x20 ADD PUSH1 0x40 MLOAD SWAP1 DUP2 ADD PUSH1 0x40 MSTORE DUP1 SWAP3 SWAP2 SWAP1 DUP2 DUP2 MSTORE PUSH1 0x20 ADD DUP3 DUP1 SLOAD PUSH2 0x9B1 SWAP1 PUSH2 0x3D50 JUMP JUMPDEST DUP1 ISZERO PUSH2 0x9FE JUMPI DUP1 PUSH1 0x1F LT PUSH2 0x9D3 JUMPI PUSH2 0x100 DUP1 DUP4 SLOAD DIV MUL DUP4 MSTORE SWAP2 PUSH1 0x20 ADD SWAP2 PUSH2 0x9FE JUMP JUMPDEST DUP3 ADD SWAP2 SWAP1 PUSH1 0x0 MSTORE PUSH1 0x20 PUSH1 0x0 KECCAK256 SWAP1 JUMPDEST DUP2 SLOAD DUP2 MSTORE SWAP1 PUSH1 0x1 ADD SWAP1 PUSH1 0x20 ADD DUP1 DUP4 GT PUSH2 0x9E1 JUMPI DUP3 SWAP1 SUB PUSH1 0x1F AND DUP3 ADD SWAP2 JUMPDEST POP POP POP POP POP SWAP1 POP SWAP9 POP SWAP9 POP SWAP9 POP SWAP9 POP SWAP9 POP SWAP9 POP POP POP POP SWAP2 SWAP4 SWAP6 POP SWAP2 SWAP4 SWAP6 JUMP JUMPDEST PUSH1 0x9 PUSH1 0x20 MSTORE DUP1 PUSH1 0x0 MSTORE PUSH1 0x40 PUSH1 0x0 KECCAK256 PUSH1 0x0 SWAP2 POP SWAP1 POP DUP1 PUSH1 0x0 ADD DUP1 SLOAD PUSH2 0xA40 SWAP1 PUSH2 0x3D50 JUMP JUMPDEST DUP1 PUSH1 0x1F ADD PUSH1 0x20 DUP1 SWAP2 DIV MUL PUSH1 0x20 ADD PUSH1 0x40 MLOAD SWAP1 DUP2 ADD PUSH1 0x40 MSTORE DUP1 SWAP3 SWAP2 SWAP1 DUP2 DUP2 MSTORE PUSH1 0x20 ADD DUP3 DUP1 SLOAD PUSH2 0xA6C SWAP1 PUSH2 0x3D50 JUMP JUMPDEST DUP1 ISZERO PUSH2 0xAB9 JUMPI DUP1 PUSH1 0x1F LT PUSH2 0xA8E JUMPI PUSH2 0x100 DUP1 DUP4 SLOAD DIV MUL DUP4 MSTORE SWAP2 PUSH1 0x20 ADD SWAP2 PUSH2 0xAB9 JUMP JUMPDEST DUP3 ADD SWAP2 SWAP1 PUSH1 0x0 MSTORE PUSH1 0x20 PUSH1 0x0 KECCAK256 SWAP1 JUMPDEST DUP2 SLOAD DUP2 MSTORE SWAP1 PUSH1 0x1 ADD SWAP1 PUSH1 0x20 ADD DUP1 DUP4 GT PUSH2 0xA9C JUMPI DUP3 SWAP1 SUB PUSH1 0x1F AND DUP3 ADD SWAP2 JUMPDEST POP POP POP POP POP SWAP1 DUP1 PUSH1 0x1 ADD SLOAD SWAP1 DUP1 PUSH1 0x2 ADD SLOAD SWAP1 DUP1 PUSH1 0x3 ADD SLOAD SWAP1 DUP1 PUSH1 0x4 ADD SLOAD SWAP1 DUP1 PUSH1 0x5 ADD SLOAD SWAP1 DUP1 PUSH1 0x6 ADD SLOAD SWAP1 DUP1 PUSH1 0x7 ADD DUP1 SLOAD PUSH2 0xAF2 SWAP1 PUSH2 0x3D50 JUMP JUMPDEST DUP1 PUSH1 0x1F ADD PUSH1 0x20 DUP1 SWAP2 DIV MUL PUSH1 0x20 ADD PUSH1 0x40 MLOAD SWAP1 DUP2 ADD PUSH1 0x40 MSTORE DUP1 SWAP3 SWAP2 SWAP1 DUP2 DUP2 MSTORE PUSH1 0x20 ADD DUP3 DUP1 SLOAD PUSH2 0xB1E SWAP1 PUSH2 0x3D50 JUMP JUMPDEST DUP1 ISZERO PUSH2 0xB6B JUMPI DUP1 PUSH1 0x1F LT PUSH2 0xB40 JUMPI PUSH2 0x100 DUP1 DUP4 SLOAD DIV MUL DUP4 MSTORE SWAP2 PUSH1 0x20 ADD SWAP2 PUSH2 0xB6B JUMP JUMPDEST DUP3 ADD SWAP2 SWAP1 PUSH1 0x0 MSTORE PUSH1 0x20 PUSH1 0x0 KECCAK256 SWAP1 JUMPDEST DUP2 SLOAD DUP2 MSTORE SWAP1 PUSH1 0x1 ADD SWAP1 PUSH1 0x20 ADD DUP1 DUP4 GT PUSH2 0xB4E JUMPI DUP3 SWAP1 SUB PUSH1 0x1F AND DUP3 ADD SWAP2 JUMPDEST POP POP POP POP POP SWAP1 DUP1 PUSH1 0x8 ADD DUP1 SLOAD PUSH2 0xB80 SWAP1 PUSH2 0x3D50 JUMP JUMPDEST DUP1 PUSH1 0x1F ADD PUSH1 0x20 DUP1 SWAP2 DIV MUL PUSH1 0x20 ADD PUSH1 0x40 MLOAD SWAP1 DUP2 ADD PUSH1 0x40 MSTORE DUP1 SWAP3 SWAP2 SWAP1 DUP2 DUP2 MSTORE PUSH1 0x20 ADD DUP3 DUP1 SLOAD PUSH2 0xBAC SWAP1 PUSH2 0x3D50 JUMP JUMPDEST DUP1 ISZERO PUSH2 0xBF9 JUMPI DUP1 PUSH1 0x1F LT PUSH2 0xBCE JUMPI PUSH2 0x100 DUP1 DUP4 SLOAD DIV MUL DUP4 MSTORE SWAP2 PUSH1 0x20 ADD SWAP2 PUSH2 0xBF9 JUMP JUMPDEST DUP3 ADD SWAP2 SWAP1 PUSH1 0x0 MSTORE PUSH1 0x20 PUSH1 0x0 KECCAK256 SWAP1 JUMPDEST DUP2 SLOAD DUP2 MSTORE SWAP1 PUSH1 0x1 ADD SWAP1 PUSH1 0x20 ADD DUP1 DUP4 GT PUSH2 0xBDC JUMPI DUP3 SWAP1 SUB PUSH1 0x1F AND DUP3 ADD SWAP2 JUMPDEST POP POP POP POP POP SWAP1 POP DUP10 JUMP JUMPDEST PUSH2 0xC1E DUP4 DUP4 DUP4 PUSH1 0x40 MLOAD DUP1 PUSH1 0x20 ADD PUSH1 0x40 MSTORE DUP1 PUSH1 0x0 DUP2 MSTORE POP PUSH2 0x12F4 JUMP JUMPDEST POP POP POP JUMP JUMPDEST PUSH1 0x0 DUP1 PUSH1 0x2 PUSH1 0x0 DUP5 DUP2 MSTORE PUSH1 0x20 ADD SWAP1 DUP2 MSTORE PUSH1 0x20 ADD PUSH1 0x0 KECCAK256 PUSH1 0x0 SWAP1 SLOAD SWAP1 PUSH2 0x100 EXP SWAP1 DIV PUSH20 0xFFFFFFFFFFFFFFFFFFFFFFFFFFFFFFFFFFFFFFFF AND SWAP1 POP PUSH1 0x0 PUSH20 0xFFFFFFFFFFFFFFFFFFFFFFFFFFFFFFFFFFFFFFFF AND DUP2 PUSH20 0xFFFFFFFFFFFFFFFFFFFFFFFFFFFFFFFFFFFFFFFF AND EQ ISZERO PUSH2 0xCCC JUMPI PUSH1 0x40 MLOAD PUSH32 0x8C379A000000000000000000000000000000000000000000000000000000000 DUP2 MSTORE PUSH1 0x4 ADD PUSH2 0xCC3 SWAP1 PUSH2 0x4137 JUMP JUMPDEST PUSH1 0x40 MLOAD DUP1 SWAP2 SUB SWAP1 REVERT JUMPDEST DUP1 SWAP2 POP POP SWAP2 SWAP1 POP JUMP JUMPDEST PUSH1 0x0 DUP1 PUSH20 0xFFFFFFFFFFFFFFFFFFFFFFFFFFFFFFFFFFFFFFFF AND DUP3 PUSH20 0xFFFFFFFFFFFFFFFFFFFFFFFFFFFFFFFFFFFFFFFF AND EQ ISZERO PUSH2 0xD46 JUMPI PUSH1 0x40 MLOAD PUSH32 0x8C379A000000000000000000000000000000000000000000000000000000000 DUP2 MSTORE PUSH1 0x4 ADD PUSH2 0xD3D SWAP1 PUSH2 0x41C9 JUMP JUMPDEST PUSH1 0x40 MLOAD DUP1 SWAP2 SUB SWAP1 REVERT JUMPDEST PUSH1 0x3 PUSH1 0x0 DUP4 PUSH20 0xFFFFFFFFFFFFFFFFFFFFFFFFFFFFFFFFFFFFFFFF AND PUSH20 0xFFFFFFFFFFFFFFFFFFFFFFFFFFFFFFFFFFFFFFFF AND DUP2 MSTORE PUSH1 0x20 ADD SWAP1 DUP2 MSTORE PUSH1 0x20 ADD PUSH1 0x0 KECCAK256 SLOAD SWAP1 POP SWAP2 SWAP1 POP JUMP JUMPDEST PUSH1 0x60 PUSH1 0x1 DUP1 SLOAD PUSH2 0xD9C SWAP1 PUSH2 0x3D50 JUMP JUMPDEST DUP1 PUSH1 0x1F ADD PUSH1 0x20 DUP1 SWAP2 DIV MUL PUSH1 0x20 ADD PUSH1 0x40 MLOAD SWAP1 DUP2 ADD PUSH1 0x40 MSTORE DUP1 SWAP3 SWAP2 SWAP1 DUP2 DUP2 MSTORE PUSH1 0x20 ADD DUP3 DUP1 SLOAD PUSH2 0xDC8 SWAP1 PUSH2 0x3D50 JUMP JUMPDEST DUP1 ISZERO PUSH2 0xE15 JUMPI DUP1 PUSH1 0x1F LT PUSH2 0xDEA JUMPI PUSH2 0x100 DUP1 DUP4 SLOAD DIV MUL DUP4 MSTORE SWAP2 PUSH1 0x20 ADD SWAP2 PUSH2 0xE15 JUMP JUMPDEST DUP3 ADD SWAP2 SWAP1 PUSH1 0x0 MSTORE PUSH1 0x20 PUSH1 0x0 KECCAK256 SWAP1 JUMPDEST DUP2 SLOAD DUP2 MSTORE SWAP1 PUSH1 0x1 ADD SWAP1 PUSH1 0x20 ADD DUP1 DUP4 GT PUSH2 0xDF8 JUMPI DUP3 SWAP1 SUB PUSH1 0x1F AND DUP3 ADD SWAP2 JUMPDEST POP POP POP POP POP SWAP1 POP SWAP1 JUMP JUMPDEST PUSH2 0xE27 PUSH2 0x1B42 JUMP JUMPDEST PUSH20 0xFFFFFFFFFFFFFFFFFFFFFFFFFFFFFFFFFFFFFFFF AND DUP3 PUSH20 0xFFFFFFFFFFFFFFFFFFFFFFFFFFFFFFFFFFFFFFFF AND EQ ISZERO PUSH2 0xE95 JUMPI PUSH1 0x40 MLOAD PUSH32 0x8C379A000000000000000000000000000000000000000000000000000000000 DUP2 MSTORE PUSH1 0x4 ADD PUSH2 0xE8C SWAP1 PUSH2 0x4235 JUMP JUMPDEST PUSH1 0x40 MLOAD DUP1 SWAP2 SUB SWAP1 REVERT JUMPDEST DUP1 PUSH1 0x5 PUSH1 0x0 PUSH2 0xEA2 PUSH2 0x1B42 JUMP JUMPDEST PUSH20 0xFFFFFFFFFFFFFFFFFFFFFFFFFFFFFFFFFFFFFFFF AND PUSH20 0xFFFFFFFFFFFFFFFFFFFFFFFFFFFFFFFFFFFFFFFF AND DUP2 MSTORE PUSH1 0x20 ADD SWAP1 DUP2 MSTORE PUSH1 0x20 ADD PUSH1 0x0 KECCAK256 PUSH1 0x0 DUP5 PUSH20 0xFFFFFFFFFFFFFFFFFFFFFFFFFFFFFFFFFFFFFFFF AND PUSH20 0xFFFFFFFFFFFFFFFFFFFFFFFFFFFFFFFFFFFFFFFF AND DUP2 MSTORE PUSH1 0x20 ADD SWAP1 DUP2 MSTORE PUSH1 0x20 ADD PUSH1 0x0 KECCAK256 PUSH1 0x0 PUSH2 0x100 EXP DUP2 SLOAD DUP2 PUSH1 0xFF MUL NOT AND SWAP1 DUP4 ISZERO ISZERO MUL OR SWAP1 SSTORE POP DUP2 PUSH20 0xFFFFFFFFFFFFFFFFFFFFFFFFFFFFFFFFFFFFFFFF AND PUSH2 0xF4F PUSH2 0x1B42 JUMP JUMPDEST PUSH20 0xFFFFFFFFFFFFFFFFFFFFFFFFFFFFFFFFFFFFFFFF AND PUSH32 0x17307EAB39AB6107E8899845AD3D59BD9653F200F220920489CA2B5937696C31 DUP4 PUSH1 0x40 MLOAD PUSH2 0xF94 SWAP2 SWAP1 PUSH2 0x33A9 JUMP JUMPDEST PUSH1 0x40 MLOAD DUP1 SWAP2 SUB SWAP1 LOG3 POP POP JUMP JUMPDEST PUSH1 0x0 PUSH2 0xFAB DUP4 PUSH2 0x1FBA JUMP JUMPDEST SWAP3 POP PUSH2 0xFB7 DUP4 DUP4 PUSH2 0x21B0 JUMP JUMPDEST PUSH2 0xFF6 JUMPI PUSH1 0x40 MLOAD PUSH32 0x8C379A000000000000000000000000000000000000000000000000000000000 DUP2 MSTORE PUSH1 0x4 ADD PUSH2 0xFED SWAP1 PUSH2 0x42C7 JUMP JUMPDEST PUSH1 0x40 MLOAD DUP1 SWAP2 SUB SWAP1 REVERT JUMPDEST PUSH1 0x0 PUSH1 0x2 DUP5 DUP5 PUSH1 0x40 MLOAD PUSH1 0x20 ADD PUSH2 0x100D SWAP3 SWAP2 SWAP1 PUSH2 0x42E7 JUMP JUMPDEST PUSH1 0x40 MLOAD PUSH1 0x20 DUP2 DUP4 SUB SUB DUP2 MSTORE SWAP1 PUSH1 0x40 MSTORE PUSH1 0x40 MLOAD PUSH2 0x1029 SWAP2 SWAP1 PUSH2 0x4353 JUMP JUMPDEST PUSH1 0x20 PUSH1 0x40 MLOAD DUP1 DUP4 SUB DUP2 DUP6 GAS STATICCALL ISZERO DUP1 ISZERO PUSH2 0x1046 JUMPI RETURNDATASIZE PUSH1 0x0 DUP1 RETURNDATACOPY RETURNDATASIZE PUSH1 0x0 REVERT JUMPDEST POP POP POP PUSH1 0x40 MLOAD RETURNDATASIZE PUSH1 0x1F NOT PUSH1 0x1F DUP3 ADD AND DUP3 ADD DUP1 PUSH1 0x40 MSTORE POP DUP2 ADD SWAP1 PUSH2 0x1069 SWAP2 SWAP1 PUSH2 0x43A0 JUMP JUMPDEST PUSH1 0x0 SHR SWAP1 POP PUSH1 0x0 PUSH1 0x9 PUSH1 0x0 ADDRESS PUSH20 0xFFFFFFFFFFFFFFFFFFFFFFFFFFFFFFFFFFFFFFFF AND PUSH20 0xFFFFFFFFFFFFFFFFFFFFFFFFFFFFFFFFFFFFFFFF AND DUP2 MSTORE PUSH1 0x20 ADD SWAP1 DUP2 MSTORE PUSH1 0x20 ADD PUSH1 0x0 KECCAK256 SWAP1 POP DUP1 PUSH1 0x9 ADD DUP6 DUP6 PUSH1 0x40 MLOAD PUSH1 0x20 ADD PUSH2 0x10C8 SWAP3 SWAP2 SWAP1 PUSH2 0x42E7 JUMP JUMPDEST PUSH1 0x40 MLOAD PUSH1 0x20 DUP2 DUP4 SUB SUB DUP2 MSTORE SWAP1 PUSH1 0x40 MSTORE SWAP1 DUP1 PUSH1 0x1 DUP2 SLOAD ADD DUP1 DUP3 SSTORE DUP1 SWAP2 POP POP PUSH1 0x1 SWAP1 SUB SWAP1 PUSH1 0x0 MSTORE PUSH1 0x20 PUSH1 0x0 KECCAK256 ADD PUSH1 0x0 SWAP1 SWAP2 SWAP1 SWAP2 SWAP1 SWAP2 POP SWAP1 DUP1 MLOAD SWAP1 PUSH1 0x20 ADD SWAP1 PUSH2 0x110F SWAP3 SWAP2 SWAP1 PUSH2 0x31CC JUMP JUMPDEST POP PUSH1 0x40 MLOAD DUP1 PUSH1 0xC0 ADD PUSH1 0x40 MSTORE DUP1 DUP3 PUSH1 0x0 ADD DUP1 SLOAD PUSH2 0x112A SWAP1 PUSH2 0x3D50 JUMP JUMPDEST DUP1 PUSH1 0x1F ADD PUSH1 0x20 DUP1 SWAP2 DIV MUL PUSH1 0x20 ADD PUSH1 0x40 MLOAD SWAP1 DUP2 ADD PUSH1 0x40 MSTORE DUP1 SWAP3 SWAP2 SWAP1 DUP2 DUP2 MSTORE PUSH1 0x20 ADD DUP3 DUP1 SLOAD PUSH2 0x1156 SWAP1 PUSH2 0x3D50 JUMP JUMPDEST DUP1 ISZERO PUSH2 0x11A3 JUMPI DUP1 PUSH1 0x1F LT PUSH2 0x1178 JUMPI PUSH2 0x100 DUP1 DUP4 SLOAD DIV MUL DUP4 MSTORE SWAP2 PUSH1 0x20 ADD SWAP2 PUSH2 0x11A3 JUMP JUMPDEST DUP3 ADD SWAP2 SWAP1 PUSH1 0x0 MSTORE PUSH1 0x20 PUSH1 0x0 KECCAK256 SWAP1 JUMPDEST DUP2 SLOAD DUP2 MSTORE SWAP1 PUSH1 0x1 ADD SWAP1 PUSH1 0x20 ADD DUP1 DUP4 GT PUSH2 0x1186 JUMPI DUP3 SWAP1 SUB PUSH1 0x1F AND DUP3 ADD SWAP2 JUMPDEST POP POP POP POP POP DUP2 MSTORE PUSH1 0x20 ADD DUP3 PUSH1 0x6 ADD SLOAD DUP2 MSTORE PUSH1 0x20 ADD DUP7 PUSH1 0x40 MLOAD PUSH1 0x20 ADD PUSH2 0x11C8 SWAP2 SWAP1 PUSH2 0x345D JUMP JUMPDEST PUSH1 0x40 MLOAD PUSH1 0x20 DUP2 DUP4 SUB SUB DUP2 MSTORE SWAP1 PUSH1 0x40 MSTORE DUP2 MSTORE PUSH1 0x20 ADD DUP6 PUSH1 0x40 MLOAD PUSH1 0x20 ADD PUSH2 0x11ED SWAP2 SWAP1 PUSH2 0x37AD JUMP JUMPDEST PUSH1 0x40 MLOAD PUSH1 0x20 DUP2 DUP4 SUB SUB DUP2 MSTORE SWAP1 PUSH1 0x40 MSTORE DUP2 MSTORE PUSH1 0x20 ADD PUSH1 0x1 DUP2 MSTORE PUSH1 0x20 ADD PUSH1 0x40 MLOAD DUP1 PUSH1 0x40 ADD PUSH1 0x40 MSTORE DUP1 PUSH1 0x10 DUP2 MSTORE PUSH1 0x20 ADD PUSH32 0x7777772E73656174706C616E2E636F6D00000000000000000000000000000000 DUP2 MSTORE POP DUP2 MSTORE POP PUSH1 0xA PUSH1 0x0 DUP5 DUP2 MSTORE PUSH1 0x20 ADD SWAP1 DUP2 MSTORE PUSH1 0x20 ADD PUSH1 0x0 KECCAK256 PUSH1 0x0 DUP3 ADD MLOAD DUP2 PUSH1 0x0 ADD SWAP1 DUP1 MLOAD SWAP1 PUSH1 0x20 ADD SWAP1 PUSH2 0x1270 SWAP3 SWAP2 SWAP1 PUSH2 0x3252 JUMP JUMPDEST POP PUSH1 0x20 DUP3 ADD MLOAD DUP2 PUSH1 0x1 ADD SSTORE PUSH1 0x40 DUP3 ADD MLOAD DUP2 PUSH1 0x2 ADD SWAP1 DUP1 MLOAD SWAP1 PUSH1 0x20 ADD SWAP1 PUSH2 0x1297 SWAP3 SWAP2 SWAP1 PUSH2 0x31CC JUMP JUMPDEST POP PUSH1 0x60 DUP3 ADD MLOAD DUP2 PUSH1 0x3 ADD SWAP1 DUP1 MLOAD SWAP1 PUSH1 0x20 ADD SWAP1 PUSH2 0x12B4 SWAP3 SWAP2 SWAP1 PUSH2 0x31CC JUMP JUMPDEST POP PUSH1 0x80 DUP3 ADD MLOAD DUP2 PUSH1 0x4 ADD SSTORE PUSH1 0xA0 DUP3 ADD MLOAD DUP2 PUSH1 0x5 ADD SWAP1 DUP1 MLOAD SWAP1 PUSH1 0x20 ADD SWAP1 PUSH2 0x12DB SWAP3 SWAP2 SWAP1 PUSH2 0x3252 JUMP JUMPDEST POP SWAP1 POP POP PUSH2 0x12E9 CALLER DUP4 PUSH2 0x25CA JUMP JUMPDEST DUP2 SWAP3 POP POP POP SWAP3 SWAP2 POP POP JUMP JUMPDEST PUSH2 0x1305 PUSH2 0x12FF PUSH2 0x1B42 JUMP JUMPDEST DUP4 PUSH2 0x1C03 JUMP JUMPDEST PUSH2 0x1344 JUMPI PUSH1 0x40 MLOAD PUSH32 0x8C379A000000000000000000000000000000000000000000000000000000000 DUP2 MSTORE PUSH1 0x4 ADD PUSH2 0x133B SWAP1 PUSH2 0x3FAA JUMP JUMPDEST PUSH1 0x40 MLOAD DUP1 SWAP2 SUB SWAP1 REVERT JUMPDEST PUSH2 0x1350 DUP5 DUP5 DUP5 DUP5 PUSH2 0x25E8 JUMP JUMPDEST POP POP POP POP JUMP JUMPDEST PUSH1 0x60 DUP1 PUSH1 0x60 PUSH1 0x0 PUSH1 0x60 PUSH1 0x0 PUSH1 0x9 PUSH1 0x0 ADDRESS PUSH20 0xFFFFFFFFFFFFFFFFFFFFFFFFFFFFFFFFFFFFFFFF AND PUSH20 0xFFFFFFFFFFFFFFFFFFFFFFFFFFFFFFFFFFFFFFFF AND DUP2 MSTORE PUSH1 0x20 ADD SWAP1 DUP2 MSTORE PUSH1 0x20 ADD PUSH1 0x0 KECCAK256 SWAP1 POP PUSH1 0x0 DUP2 PUSH1 0x7 ADD DUP1 SLOAD PUSH2 0x13B3 SWAP1 PUSH2 0x3D50 JUMP JUMPDEST DUP1 PUSH1 0x1F ADD PUSH1 0x20 DUP1 SWAP2 DIV MUL PUSH1 0x20 ADD PUSH1 0x40 MLOAD SWAP1 DUP2 ADD PUSH1 0x40 MSTORE DUP1 SWAP3 SWAP2 SWAP1 DUP2 DUP2 MSTORE PUSH1 0x20 ADD DUP3 DUP1 SLOAD PUSH2 0x13DF SWAP1 PUSH2 0x3D50 JUMP JUMPDEST DUP1 ISZERO PUSH2 0x142C JUMPI DUP1 PUSH1 0x1F LT PUSH2 0x1401 JUMPI PUSH2 0x100 DUP1 DUP4 SLOAD DIV MUL DUP4 MSTORE SWAP2 PUSH1 0x20 ADD SWAP2 PUSH2 0x142C JUMP JUMPDEST DUP3 ADD SWAP2 SWAP1 PUSH1 0x0 MSTORE PUSH1 0x20 PUSH1 0x0 KECCAK256 SWAP1 JUMPDEST DUP2 SLOAD DUP2 MSTORE SWAP1 PUSH1 0x1 ADD SWAP1 PUSH1 0x20 ADD DUP1 DUP4 GT PUSH2 0x140F JUMPI DUP3 SWAP1 SUB PUSH1 0x1F AND DUP3 ADD SWAP2 JUMPDEST POP POP POP POP POP DUP1 PUSH1 0x20 ADD SWAP1 MLOAD DUP2 ADD SWAP1 PUSH2 0x1444 SWAP2 SWAP1 PUSH2 0x403A JUMP JUMPDEST SWAP1 POP PUSH1 0x0 DUP3 PUSH1 0x8 ADD DUP1 SLOAD PUSH2 0x1457 SWAP1 PUSH2 0x3D50 JUMP JUMPDEST DUP1 PUSH1 0x1F ADD PUSH1 0x20 DUP1 SWAP2 DIV MUL PUSH1 0x20 ADD PUSH1 0x40 MLOAD SWAP1 DUP2 ADD PUSH1 0x40 MSTORE DUP1 SWAP3 SWAP2 SWAP1 DUP2 DUP2 MSTORE PUSH1 0x20 ADD DUP3 DUP1 SLOAD PUSH2 0x1483 SWAP1 PUSH2 0x3D50 JUMP JUMPDEST DUP1 ISZERO PUSH2 0x14D0 JUMPI DUP1 PUSH1 0x1F LT PUSH2 0x14A5 JUMPI PUSH2 0x100 DUP1 DUP4 SLOAD DIV MUL DUP4 MSTORE SWAP2 PUSH1 0x20 ADD SWAP2 PUSH2 0x14D0 JUMP JUMPDEST DUP3 ADD SWAP2 SWAP1 PUSH1 0x0 MSTORE PUSH1 0x20 PUSH1 0x0 KECCAK256 SWAP1 JUMPDEST DUP2 SLOAD DUP2 MSTORE SWAP1 PUSH1 0x1 ADD SWAP1 PUSH1 0x20 ADD DUP1 DUP4 GT PUSH2 0x14B3 JUMPI DUP3 SWAP1 SUB PUSH1 0x1F AND DUP3 ADD SWAP2 JUMPDEST POP POP POP POP POP DUP1 PUSH1 0x20 ADD SWAP1 MLOAD DUP2 ADD SWAP1 PUSH2 0x14E8 SWAP2 SWAP1 PUSH2 0x4098 JUMP JUMPDEST SWAP1 POP DUP3 PUSH1 0x0 ADD PUSH2 0x14FB DUP5 PUSH1 0x6 ADD SLOAD PUSH2 0x1F3D JUMP JUMPDEST DUP4 DUP4 DUP7 PUSH1 0x9 ADD DUP5 DUP1 SLOAD PUSH2 0x150D SWAP1 PUSH2 0x3D50 JUMP JUMPDEST DUP1 PUSH1 0x1F ADD PUSH1 0x20 DUP1 SWAP2 DIV MUL PUSH1 0x20 ADD PUSH1 0x40 MLOAD SWAP1 DUP2 ADD PUSH1 0x40 MSTORE DUP1 SWAP3 SWAP2 SWAP1 DUP2 DUP2 MSTORE PUSH1 0x20 ADD DUP3 DUP1 SLOAD PUSH2 0x1539 SWAP1 PUSH2 0x3D50 JUMP JUMPDEST DUP1 ISZERO PUSH2 0x1586 JUMPI DUP1 PUSH1 0x1F LT PUSH2 0x155B JUMPI PUSH2 0x100 DUP1 DUP4 SLOAD DIV MUL DUP4 MSTORE SWAP2 PUSH1 0x20 ADD SWAP2 PUSH2 0x1586 JUMP JUMPDEST DUP3 ADD SWAP2 SWAP1 PUSH1 0x0 MSTORE PUSH1 0x20 PUSH1 0x0 KECCAK256 SWAP1 JUMPDEST DUP2 SLOAD DUP2 MSTORE SWAP1 PUSH1 0x1 ADD SWAP1 PUSH1 0x20 ADD DUP1 DUP4 GT PUSH2 0x1569 JUMPI DUP3 SWAP1 SUB PUSH1 0x1F AND DUP3 ADD SWAP2 JUMPDEST POP POP POP POP POP SWAP5 POP DUP1 DUP1 SLOAD DUP1 PUSH1 0x20 MUL PUSH1 0x20 ADD PUSH1 0x40 MLOAD SWAP1 DUP2 ADD PUSH1 0x40 MSTORE DUP1 SWAP3 SWAP2 SWAP1 DUP2 DUP2 MSTORE PUSH1 0x20 ADD PUSH1 0x0 SWAP1 JUMPDEST DUP3 DUP3 LT ISZERO PUSH2 0x165A JUMPI DUP4 DUP3 SWAP1 PUSH1 0x0 MSTORE PUSH1 0x20 PUSH1 0x0 KECCAK256 ADD DUP1 SLOAD PUSH2 0x15CD SWAP1 PUSH2 0x3D50 JUMP JUMPDEST DUP1 PUSH1 0x1F ADD PUSH1 0x20 DUP1 SWAP2 DIV MUL PUSH1 0x20 ADD PUSH1 0x40 MLOAD SWAP1 DUP2 ADD PUSH1 0x40 MSTORE DUP1 SWAP3 SWAP2 SWAP1 DUP2 DUP2 MSTORE PUSH1 0x20 ADD DUP3 DUP1 SLOAD PUSH2 0x15F9 SWAP1 PUSH2 0x3D50 JUMP JUMPDEST DUP1 ISZERO PUSH2 0x1646 JUMPI DUP1 PUSH1 0x1F LT PUSH2 0x161B JUMPI PUSH2 0x100 DUP1 DUP4 SLOAD DIV MUL DUP4 MSTORE SWAP2 PUSH1 0x20 ADD SWAP2 PUSH2 0x1646 JUMP JUMPDEST DUP3 ADD SWAP2 SWAP1 PUSH1 0x0 MSTORE PUSH1 0x20 PUSH1 0x0 KECCAK256 SWAP1 JUMPDEST DUP2 SLOAD DUP2 MSTORE SWAP1 PUSH1 0x1 ADD SWAP1 PUSH1 0x20 ADD DUP1 DUP4 GT PUSH2 0x1629 JUMPI DUP3 SWAP1 SUB PUSH1 0x1F AND DUP3 ADD SWAP2 JUMPDEST POP POP POP POP POP DUP2 MSTORE PUSH1 0x20 ADD SWAP1 PUSH1 0x1 ADD SWAP1 PUSH2 0x15AE JUMP JUMPDEST POP POP POP POP SWAP1 POP SWAP8 POP SWAP8 POP SWAP8 POP SWAP8 POP SWAP8 POP POP POP POP SWAP1 SWAP2 SWAP3 SWAP4 SWAP5 JUMP JUMPDEST PUSH1 0xA PUSH1 0x20 MSTORE DUP1 PUSH1 0x0 MSTORE PUSH1 0x40 PUSH1 0x0 KECCAK256 PUSH1 0x0 SWAP2 POP SWAP1 POP DUP1 PUSH1 0x0 ADD DUP1 SLOAD PUSH2 0x1697 SWAP1 PUSH2 0x3D50 JUMP JUMPDEST DUP1 PUSH1 0x1F ADD PUSH1 0x20 DUP1 SWAP2 DIV MUL PUSH1 0x20 ADD PUSH1 0x40 MLOAD SWAP1 DUP2 ADD PUSH1 0x40 MSTORE DUP1 SWAP3 SWAP2 SWAP1 DUP2 DUP2 MSTORE PUSH1 0x20 ADD DUP3 DUP1 SLOAD PUSH2 0x16C3 SWAP1 PUSH2 0x3D50 JUMP JUMPDEST DUP1 ISZERO PUSH2 0x1710 JUMPI DUP1 PUSH1 0x1F LT PUSH2 0x16E5 JUMPI PUSH2 0x100 DUP1 DUP4 SLOAD DIV MUL DUP4 MSTORE SWAP2 PUSH1 0x20 ADD SWAP2 PUSH2 0x1710 JUMP JUMPDEST DUP3 ADD SWAP2 SWAP1 PUSH1 0x0 MSTORE PUSH1 0x20 PUSH1 0x0 KECCAK256 SWAP1 JUMPDEST DUP2 SLOAD DUP2 MSTORE SWAP1 PUSH1 0x1 ADD SWAP1 PUSH1 0x20 ADD DUP1 DUP4 GT PUSH2 0x16F3 JUMPI DUP3 SWAP1 SUB PUSH1 0x1F AND DUP3 ADD SWAP2 JUMPDEST POP POP POP POP POP SWAP1 DUP1 PUSH1 0x1 ADD SLOAD SWAP1 DUP1 PUSH1 0x2 ADD DUP1 SLOAD PUSH2 0x172B SWAP1 PUSH2 0x3D50 JUMP JUMPDEST DUP1 PUSH1 0x1F ADD PUSH1 0x20 DUP1 SWAP2 DIV MUL PUSH1 0x20 ADD PUSH1 0x40 MLOAD SWAP1 DUP2 ADD PUSH1 0x40 MSTORE DUP1 SWAP3 SWAP2 SWAP1 DUP2 DUP2 MSTORE PUSH1 0x20 ADD DUP3 DUP1 SLOAD PUSH2 0x1757 SWAP1 PUSH2 0x3D50 JUMP JUMPDEST DUP1 ISZERO PUSH2 0x17A4 JUMPI DUP1 PUSH1 0x1F LT PUSH2 0x1779 JUMPI PUSH2 0x100 DUP1 DUP4 SLOAD DIV MUL DUP4 MSTORE SWAP2 PUSH1 0x20 ADD SWAP2 PUSH2 0x17A4 JUMP JUMPDEST DUP3 ADD SWAP2 SWAP1 PUSH1 0x0 MSTORE PUSH1 0x20 PUSH1 0x0 KECCAK256 SWAP1 JUMPDEST DUP2 SLOAD DUP2 MSTORE SWAP1 PUSH1 0x1 ADD SWAP1 PUSH1 0x20 ADD DUP1 DUP4 GT PUSH2 0x1787 JUMPI DUP3 SWAP1 SUB PUSH1 0x1F AND DUP3 ADD SWAP2 JUMPDEST POP POP POP POP POP SWAP1 DUP1 PUSH1 0x3 ADD DUP1 SLOAD PUSH2 0x17B9 SWAP1 PUSH2 0x3D50 JUMP JUMPDEST DUP1 PUSH1 0x1F ADD PUSH1 0x20 DUP1 SWAP2 DIV MUL PUSH1 0x20 ADD PUSH1 0x40 MLOAD SWAP1 DUP2 ADD PUSH1 0x40 MSTORE DUP1 SWAP3 SWAP2 SWAP1 DUP2 DUP2 MSTORE PUSH1 0x20 ADD DUP3 DUP1 SLOAD PUSH2 0x17E5 SWAP1 PUSH2 0x3D50 JUMP JUMPDEST DUP1 ISZERO PUSH2 0x1832 JUMPI DUP1 PUSH1 0x1F LT PUSH2 0x1807 JUMPI PUSH2 0x100 DUP1 DUP4 SLOAD DIV MUL DUP4 MSTORE SWAP2 PUSH1 0x20 ADD SWAP2 PUSH2 0x1832 JUMP JUMPDEST DUP3 ADD SWAP2 SWAP1 PUSH1 0x0 MSTORE PUSH1 0x20 PUSH1 0x0 KECCAK256 SWAP1 JUMPDEST DUP2 SLOAD DUP2 MSTORE SWAP1 PUSH1 0x1 ADD SWAP1 PUSH1 0x20 ADD DUP1 DUP4 GT PUSH2 0x1815 JUMPI DUP3 SWAP1 SUB PUSH1 0x1F AND DUP3 ADD SWAP2 JUMPDEST POP POP POP POP POP SWAP1 DUP1 PUSH1 0x4 ADD SLOAD SWAP1 DUP1 PUSH1 0x5 ADD DUP1 SLOAD PUSH2 0x184D SWAP1 PUSH2 0x3D50 JUMP JUMPDEST DUP1 PUSH1 0x1F ADD PUSH1 0x20 DUP1 SWAP2 DIV MUL PUSH1 0x20 ADD PUSH1 0x40 MLOAD SWAP1 DUP2 ADD PUSH1 0x40 MSTORE DUP1 SWAP3 SWAP2 SWAP1 DUP2 DUP2 MSTORE PUSH1 0x20 ADD DUP3 DUP1 SLOAD PUSH2 0x1879 SWAP1 PUSH2 0x3D50 JUMP JUMPDEST DUP1 ISZERO PUSH2 0x18C6 JUMPI DUP1 PUSH1 0x1F LT PUSH2 0x189B JUMPI PUSH2 0x100 DUP1 DUP4 SLOAD DIV MUL DUP4 MSTORE SWAP2 PUSH1 0x20 ADD SWAP2 PUSH2 0x18C6 JUMP JUMPDEST DUP3 ADD SWAP2 SWAP1 PUSH1 0x0 MSTORE PUSH1 0x20 PUSH1 0x0 KECCAK256 SWAP1 JUMPDEST DUP2 SLOAD DUP2 MSTORE SWAP1 PUSH1 0x1 ADD SWAP1 PUSH1 0x20 ADD DUP1 DUP4 GT PUSH2 0x18A9 JUMPI DUP3 SWAP1 SUB PUSH1 0x1F AND DUP3 ADD SWAP2 JUMPDEST POP POP POP POP POP SWAP1 POP DUP7 JUMP JUMPDEST PUSH1 0x60 PUSH2 0x18DB DUP3 PUSH2 0x1AD6 JUMP JUMPDEST PUSH2 0x191A JUMPI PUSH1 0x40 MLOAD PUSH32 0x8C379A000000000000000000000000000000000000000000000000000000000 DUP2 MSTORE PUSH1 0x4 ADD PUSH2 0x1911 SWAP1 PUSH2 0x443F JUMP JUMPDEST PUSH1 0x40 MLOAD DUP1 SWAP2 SUB SWAP1 REVERT JUMPDEST PUSH1 0x0 PUSH2 0x1924 PUSH2 0x2644 JUMP JUMPDEST SWAP1 POP PUSH1 0x0 DUP2 MLOAD GT PUSH2 0x1944 JUMPI PUSH1 0x40 MLOAD DUP1 PUSH1 0x20 ADD PUSH1 0x40 MSTORE DUP1 PUSH1 0x0 DUP2 MSTORE POP PUSH2 0x196F JUMP JUMPDEST DUP1 PUSH2 0x194E DUP5 PUSH2 0x265B JUMP JUMPDEST PUSH1 0x40 MLOAD PUSH1 0x20 ADD PUSH2 0x195F SWAP3 SWAP2 SWAP1 PUSH2 0x449B JUMP JUMPDEST PUSH1 0x40 MLOAD PUSH1 0x20 DUP2 DUP4 SUB SUB DUP2 MSTORE SWAP1 PUSH1 0x40 MSTORE JUMPDEST SWAP2 POP POP SWAP2 SWAP1 POP JUMP JUMPDEST PUSH1 0x0 PUSH1 0x5 PUSH1 0x0 DUP5 PUSH20 0xFFFFFFFFFFFFFFFFFFFFFFFFFFFFFFFFFFFFFFFF AND PUSH20 0xFFFFFFFFFFFFFFFFFFFFFFFFFFFFFFFFFFFFFFFF AND DUP2 MSTORE PUSH1 0x20 ADD SWAP1 DUP2 MSTORE PUSH1 0x20 ADD PUSH1 0x0 KECCAK256 PUSH1 0x0 DUP4 PUSH20 0xFFFFFFFFFFFFFFFFFFFFFFFFFFFFFFFFFFFFFFFF AND PUSH20 0xFFFFFFFFFFFFFFFFFFFFFFFFFFFFFFFFFFFFFFFF AND DUP2 MSTORE PUSH1 0x20 ADD SWAP1 DUP2 MSTORE PUSH1 0x20 ADD PUSH1 0x0 KECCAK256 PUSH1 0x0 SWAP1 SLOAD SWAP1 PUSH2 0x100 EXP SWAP1 DIV PUSH1 0xFF AND SWAP1 POP SWAP3 SWAP2 POP POP JUMP JUMPDEST PUSH1 0x0 DUP2 PUSH1 0x3C DUP5 PUSH2 0x1A1B SWAP2 SWAP1 PUSH2 0x44EE JUMP JUMPDEST PUSH2 0xE10 DUP7 PUSH2 0x1A29 SWAP2 SWAP1 PUSH2 0x44EE JUMP JUMPDEST PUSH3 0x15180 PUSH2 0x1A38 DUP12 DUP12 DUP12 PUSH2 0x27BC JUMP JUMPDEST PUSH2 0x1A42 SWAP2 SWAP1 PUSH2 0x44EE JUMP JUMPDEST PUSH2 0x1A4C SWAP2 SWAP1 PUSH2 0x4548 JUMP JUMPDEST PUSH2 0x1A56 SWAP2 SWAP1 PUSH2 0x4548 JUMP JUMPDEST PUSH2 0x1A60 SWAP2 SWAP1 PUSH2 0x4548 JUMP JUMPDEST SWAP1 POP SWAP7 SWAP6 POP POP POP POP POP POP JUMP JUMPDEST PUSH1 0x0 PUSH32 0x1FFC9A700000000000000000000000000000000000000000000000000000000 PUSH28 0xFFFFFFFFFFFFFFFFFFFFFFFFFFFFFFFFFFFFFFFFFFFFFFFFFFFFFFFF NOT AND DUP3 PUSH28 0xFFFFFFFFFFFFFFFFFFFFFFFFFFFFFFFFFFFFFFFFFFFFFFFFFFFFFFFF NOT AND EQ SWAP1 POP SWAP2 SWAP1 POP JUMP JUMPDEST PUSH1 0x0 DUP1 PUSH20 0xFFFFFFFFFFFFFFFFFFFFFFFFFFFFFFFFFFFFFFFF AND PUSH1 0x2 PUSH1 0x0 DUP5 DUP2 MSTORE PUSH1 0x20 ADD SWAP1 DUP2 MSTORE PUSH1 0x20 ADD PUSH1 0x0 KECCAK256 PUSH1 0x0 SWAP1 SLOAD SWAP1 PUSH2 0x100 EXP SWAP1 DIV PUSH20 0xFFFFFFFFFFFFFFFFFFFFFFFFFFFFFFFFFFFFFFFF AND PUSH20 0xFFFFFFFFFFFFFFFFFFFFFFFFFFFFFFFFFFFFFFFF AND EQ ISZERO SWAP1 POP SWAP2 SWAP1 POP JUMP JUMPDEST PUSH1 0x0 CALLER SWAP1 POP SWAP1 JUMP JUMPDEST DUP2 PUSH1 0x4 PUSH1 0x0 DUP4 DUP2 MSTORE PUSH1 0x20 ADD SWAP1 DUP2 MSTORE PUSH1 0x20 ADD PUSH1 0x0 KECCAK256 PUSH1 0x0 PUSH2 0x100 EXP DUP2 SLOAD DUP2 PUSH20 0xFFFFFFFFFFFFFFFFFFFFFFFFFFFFFFFFFFFFFFFF MUL NOT AND SWAP1 DUP4 PUSH20 0xFFFFFFFFFFFFFFFFFFFFFFFFFFFFFFFFFFFFFFFF AND MUL OR SWAP1 SSTORE POP DUP1 DUP3 PUSH20 0xFFFFFFFFFFFFFFFFFFFFFFFFFFFFFFFFFFFFFFFF AND PUSH2 0x1BBD DUP4 PUSH2 0xC23 JUMP JUMPDEST PUSH20 0xFFFFFFFFFFFFFFFFFFFFFFFFFFFFFFFFFFFFFFFF AND PUSH32 0x8C5BE1E5EBEC7D5BD14F71427D1E84F3DD0314C0F7B2291E5B200AC8C7C3B925 PUSH1 0x40 MLOAD PUSH1 0x40 MLOAD DUP1 SWAP2 SUB SWAP1 LOG4 POP POP JUMP JUMPDEST PUSH1 0x0 PUSH2 0x1C0E DUP3 PUSH2 0x1AD6 JUMP JUMPDEST PUSH2 0x1C4D JUMPI PUSH1 0x40 MLOAD PUSH32 0x8C379A000000000000000000000000000000000000000000000000000000000 DUP2 MSTORE PUSH1 0x4 ADD PUSH2 0x1C44 SWAP1 PUSH2 0x4610 JUMP JUMPDEST PUSH1 0x40 MLOAD DUP1 SWAP2 SUB SWAP1 REVERT JUMPDEST PUSH1 0x0 PUSH2 0x1C58 DUP4 PUSH2 0xC23 JUMP JUMPDEST SWAP1 POP DUP1 PUSH20 0xFFFFFFFFFFFFFFFFFFFFFFFFFFFFFFFFFFFFFFFF AND DUP5 PUSH20 0xFFFFFFFFFFFFFFFFFFFFFFFFFFFFFFFFFFFFFFFF AND EQ DUP1 PUSH2 0x1CC7 JUMPI POP DUP4 PUSH20 0xFFFFFFFFFFFFFFFFFFFFFFFFFFFFFFFFFFFFFFFF AND PUSH2 0x1CAF DUP5 PUSH2 0x56B JUMP JUMPDEST PUSH20 0xFFFFFFFFFFFFFFFFFFFFFFFFFFFFFFFFFFFFFFFF AND EQ JUMPDEST DUP1 PUSH2 0x1CD8 JUMPI POP PUSH2 0x1CD7 DUP2 DUP6 PUSH2 0x1977 JUMP JUMPDEST JUMPDEST SWAP2 POP POP SWAP3 SWAP2 POP POP JUMP JUMPDEST DUP3 PUSH20 0xFFFFFFFFFFFFFFFFFFFFFFFFFFFFFFFFFFFFFFFF AND PUSH2 0x1D01 DUP3 PUSH2 0xC23 JUMP JUMPDEST PUSH20 0xFFFFFFFFFFFFFFFFFFFFFFFFFFFFFFFFFFFFFFFF AND EQ PUSH2 0x1D57 JUMPI PUSH1 0x40 MLOAD PUSH32 0x8C379A000000000000000000000000000000000000000000000000000000000 DUP2 MSTORE PUSH1 0x4 ADD PUSH2 0x1D4E SWAP1 PUSH2 0x46A2 JUMP JUMPDEST PUSH1 0x40 MLOAD DUP1 SWAP2 SUB SWAP1 REVERT JUMPDEST PUSH1 0x0 PUSH20 0xFFFFFFFFFFFFFFFFFFFFFFFFFFFFFFFFFFFFFFFF AND DUP3 PUSH20 0xFFFFFFFFFFFFFFFFFFFFFFFFFFFFFFFFFFFFFFFF AND EQ ISZERO PUSH2 0x1DC7 JUMPI PUSH1 0x40 MLOAD PUSH32 0x8C379A000000000000000000000000000000000000000000000000000000000 DUP2 MSTORE PUSH1 0x4 ADD PUSH2 0x1DBE SWAP1 PUSH2 0x4734 JUMP JUMPDEST PUSH1 0x40 MLOAD DUP1 SWAP2 SUB SWAP1 REVERT JUMPDEST PUSH2 0x1DD2 DUP4 DUP4 DUP4 PUSH2 0x291B JUMP JUMPDEST PUSH2 0x1DDD PUSH1 0x0 DUP3 PUSH2 0x1B4A JUMP JUMPDEST PUSH1 0x1 PUSH1 0x3 PUSH1 0x0 DUP6 PUSH20 0xFFFFFFFFFFFFFFFFFFFFFFFFFFFFFFFFFFFFFFFF AND PUSH20 0xFFFFFFFFFFFFFFFFFFFFFFFFFFFFFFFFFFFFFFFF AND DUP2 MSTORE PUSH1 0x20 ADD SWAP1 DUP2 MSTORE PUSH1 0x20 ADD PUSH1 0x0 KECCAK256 PUSH1 0x0 DUP3 DUP3 SLOAD PUSH2 0x1E2D SWAP2 SWAP1 PUSH2 0x4754 JUMP JUMPDEST SWAP3 POP POP DUP2 SWAP1 SSTORE POP PUSH1 0x1 PUSH1 0x3 PUSH1 0x0 DUP5 PUSH20 0xFFFFFFFFFFFFFFFFFFFFFFFFFFFFFFFFFFFFFFFF AND PUSH20 0xFFFFFFFFFFFFFFFFFFFFFFFFFFFFFFFFFFFFFFFF AND DUP2 MSTORE PUSH1 0x20 ADD SWAP1 DUP2 MSTORE PUSH1 0x20 ADD PUSH1 0x0 KECCAK256 PUSH1 0x0 DUP3 DUP3 SLOAD PUSH2 0x1E84 SWAP2 SWAP1 PUSH2 0x4548 JUMP JUMPDEST SWAP3 POP POP DUP2 SWAP1 SSTORE POP DUP2 PUSH1 0x2 PUSH1 0x0 DUP4 DUP2 MSTORE PUSH1 0x20 ADD SWAP1 DUP2 MSTORE PUSH1 0x20 ADD PUSH1 0x0 KECCAK256 PUSH1 0x0 PUSH2 0x100 EXP DUP2 SLOAD DUP2 PUSH20 0xFFFFFFFFFFFFFFFFFFFFFFFFFFFFFFFFFFFFFFFF MUL NOT AND SWAP1 DUP4 PUSH20 0xFFFFFFFFFFFFFFFFFFFFFFFFFFFFFFFFFFFFFFFF AND MUL OR SWAP1 SSTORE POP DUP1 DUP3 PUSH20 0xFFFFFFFFFFFFFFFFFFFFFFFFFFFFFFFFFFFFFFFF AND DUP5 PUSH20 0xFFFFFFFFFFFFFFFFFFFFFFFFFFFFFFFFFFFFFFFF AND PUSH32 0xDDF252AD1BE2C89B69C2B068FC378DAA952BA7F163C4A11628F55A4DF523B3EF PUSH1 0x40 MLOAD PUSH1 0x40 MLOAD DUP1 SWAP2 SUB SWAP1 LOG4 POP POP POP JUMP JUMPDEST PUSH1 0x60 PUSH1 0x0 DUP1 PUSH1 0x0 DUP1 PUSH1 0x0 DUP1 PUSH2 0x1F51 DUP9 PUSH2 0x2920 JUMP JUMPDEST SWAP6 POP SWAP6 POP SWAP6 POP SWAP6 POP SWAP6 POP SWAP6 POP PUSH2 0x1F66 DUP5 PUSH2 0x29A7 JUMP JUMPDEST PUSH2 0x1F6F DUP7 PUSH2 0x29A7 JUMP JUMPDEST PUSH2 0x1F78 DUP9 PUSH2 0x29A7 JUMP JUMPDEST PUSH2 0x1F81 DUP7 PUSH2 0x29A7 JUMP JUMPDEST PUSH2 0x1F8A DUP7 PUSH2 0x29A7 JUMP JUMPDEST PUSH1 0x40 MLOAD PUSH1 0x20 ADD PUSH2 0x1F9E SWAP6 SWAP5 SWAP4 SWAP3 SWAP2 SWAP1 PUSH2 0x486C JUMP JUMPDEST PUSH1 0x40 MLOAD PUSH1 0x20 DUP2 DUP4 SUB SUB DUP2 MSTORE SWAP1 PUSH1 0x40 MSTORE SWAP7 POP POP POP POP POP POP POP SWAP2 SWAP1 POP JUMP JUMPDEST PUSH1 0x60 PUSH1 0x0 DUP3 SWAP1 POP PUSH1 0x0 DUP2 MLOAD PUSH8 0xFFFFFFFFFFFFFFFF DUP2 GT ISZERO PUSH2 0x1FDE JUMPI PUSH2 0x1FDD PUSH2 0x383E JUMP JUMPDEST JUMPDEST PUSH1 0x40 MLOAD SWAP1 DUP1 DUP3 MSTORE DUP1 PUSH1 0x1F ADD PUSH1 0x1F NOT AND PUSH1 0x20 ADD DUP3 ADD PUSH1 0x40 MSTORE DUP1 ISZERO PUSH2 0x2010 JUMPI DUP2 PUSH1 0x20 ADD PUSH1 0x1 DUP3 MUL DUP1 CALLDATASIZE DUP4 CALLDATACOPY DUP1 DUP3 ADD SWAP2 POP POP SWAP1 POP JUMPDEST POP SWAP1 POP PUSH1 0x0 JUMPDEST DUP3 MLOAD DUP2 LT ISZERO PUSH2 0x21A5 JUMPI PUSH1 0x61 PUSH1 0xF8 SHL DUP4 DUP3 DUP2 MLOAD DUP2 LT PUSH2 0x2037 JUMPI PUSH2 0x2036 PUSH2 0x48E3 JUMP JUMPDEST JUMPDEST PUSH1 0x20 ADD ADD MLOAD PUSH1 0xF8 SHR PUSH1 0xF8 SHL PUSH31 0xFFFFFFFFFFFFFFFFFFFFFFFFFFFFFFFFFFFFFFFFFFFFFFFFFFFFFFFFFFFFFF NOT AND LT ISZERO DUP1 ISZERO PUSH2 0x20B5 JUMPI POP PUSH1 0x7A PUSH1 0xF8 SHL DUP4 DUP3 DUP2 MLOAD DUP2 LT PUSH2 0x2085 JUMPI PUSH2 0x2084 PUSH2 0x48E3 JUMP JUMPDEST JUMPDEST PUSH1 0x20 ADD ADD MLOAD PUSH1 0xF8 SHR PUSH1 0xF8 SHL PUSH31 0xFFFFFFFFFFFFFFFFFFFFFFFFFFFFFFFFFFFFFFFFFFFFFFFFFFFFFFFFFFFFFF NOT AND GT ISZERO JUMPDEST ISZERO PUSH2 0x2131 JUMPI PUSH1 0x20 DUP4 DUP3 DUP2 MLOAD DUP2 LT PUSH2 0x20CF JUMPI PUSH2 0x20CE PUSH2 0x48E3 JUMP JUMPDEST JUMPDEST PUSH1 0x20 ADD ADD MLOAD PUSH1 0xF8 SHR PUSH1 0xF8 SHL PUSH1 0xF8 SHR PUSH2 0x20E7 SWAP2 SWAP1 PUSH2 0x491F JUMP JUMPDEST PUSH1 0xF8 SHL DUP3 DUP3 DUP2 MLOAD DUP2 LT PUSH2 0x20FD JUMPI PUSH2 0x20FC PUSH2 0x48E3 JUMP JUMPDEST JUMPDEST PUSH1 0x20 ADD ADD SWAP1 PUSH31 0xFFFFFFFFFFFFFFFFFFFFFFFFFFFFFFFFFFFFFFFFFFFFFFFFFFFFFFFFFFFFFF NOT AND SWAP1 DUP2 PUSH1 0x0 BYTE SWAP1 MSTORE8 POP PUSH2 0x2192 JUMP JUMPDEST DUP3 DUP2 DUP2 MLOAD DUP2 LT PUSH2 0x2144 JUMPI PUSH2 0x2143 PUSH2 0x48E3 JUMP JUMPDEST JUMPDEST PUSH1 0x20 ADD ADD MLOAD PUSH1 0xF8 SHR PUSH1 0xF8 SHL DUP3 DUP3 DUP2 MLOAD DUP2 LT PUSH2 0x2162 JUMPI PUSH2 0x2161 PUSH2 0x48E3 JUMP JUMPDEST JUMPDEST PUSH1 0x20 ADD ADD SWAP1 PUSH31 0xFFFFFFFFFFFFFFFFFFFFFFFFFFFFFFFFFFFFFFFFFFFFFFFFFFFFFFFFFFFFFF NOT AND SWAP1 DUP2 PUSH1 0x0 BYTE SWAP1 MSTORE8 POP JUMPDEST DUP1 DUP1 PUSH2 0x219D SWAP1 PUSH2 0x4953 JUMP JUMPDEST SWAP2 POP POP PUSH2 0x2016 JUMP JUMPDEST POP DUP1 SWAP3 POP POP POP SWAP2 SWAP1 POP JUMP JUMPDEST PUSH1 0x0 DUP1 PUSH1 0x0 SWAP1 POP PUSH1 0x0 PUSH1 0x9 PUSH1 0x0 ADDRESS PUSH20 0xFFFFFFFFFFFFFFFFFFFFFFFFFFFFFFFFFFFFFFFF AND PUSH20 0xFFFFFFFFFFFFFFFFFFFFFFFFFFFFFFFFFFFFFFFF AND DUP2 MSTORE PUSH1 0x20 ADD SWAP1 DUP2 MSTORE PUSH1 0x20 ADD PUSH1 0x0 KECCAK256 SWAP1 POP DUP1 PUSH1 0x8 ADD DUP1 SLOAD PUSH2 0x2209 SWAP1 PUSH2 0x3D50 JUMP JUMPDEST DUP1 PUSH1 0x1F ADD PUSH1 0x20 DUP1 SWAP2 DIV MUL PUSH1 0x20 ADD PUSH1 0x40 MLOAD SWAP1 DUP2 ADD PUSH1 0x40 MSTORE DUP1 SWAP3 SWAP2 SWAP1 DUP2 DUP2 MSTORE PUSH1 0x20 ADD DUP3 DUP1 SLOAD PUSH2 0x2235 SWAP1 PUSH2 0x3D50 JUMP JUMPDEST DUP1 ISZERO PUSH2 0x2282 JUMPI DUP1 PUSH1 0x1F LT PUSH2 0x2257 JUMPI PUSH2 0x100 DUP1 DUP4 SLOAD DIV MUL DUP4 MSTORE SWAP2 PUSH1 0x20 ADD SWAP2 PUSH2 0x2282 JUMP JUMPDEST DUP3 ADD SWAP2 SWAP1 PUSH1 0x0 MSTORE PUSH1 0x20 PUSH1 0x0 KECCAK256 SWAP1 JUMPDEST DUP2 SLOAD DUP2 MSTORE SWAP1 PUSH1 0x1 ADD SWAP1 PUSH1 0x20 ADD DUP1 DUP4 GT PUSH2 0x2265 JUMPI DUP3 SWAP1 SUB PUSH1 0x1F AND DUP3 ADD SWAP2 JUMPDEST POP POP POP POP POP DUP1 PUSH1 0x20 ADD SWAP1 MLOAD DUP2 ADD SWAP1 PUSH2 0x229A SWAP2 SWAP1 PUSH2 0x4098 JUMP JUMPDEST DUP5 GT ISZERO PUSH2 0x22DC JUMPI PUSH1 0x40 MLOAD PUSH32 0x8C379A000000000000000000000000000000000000000000000000000000000 DUP2 MSTORE PUSH1 0x4 ADD PUSH2 0x22D3 SWAP1 PUSH2 0x4A0E JUMP JUMPDEST PUSH1 0x40 MLOAD DUP1 SWAP2 SUB SWAP1 REVERT JUMPDEST PUSH1 0x0 DUP6 PUSH1 0x40 MLOAD PUSH1 0x20 ADD PUSH2 0x22EF SWAP2 SWAP1 PUSH2 0x345D JUMP JUMPDEST PUSH1 0x40 MLOAD PUSH1 0x20 DUP2 DUP4 SUB SUB DUP2 MSTORE SWAP1 PUSH1 0x40 MSTORE SWAP1 POP PUSH2 0x2309 DUP2 PUSH2 0x2A01 JUMP JUMPDEST PUSH2 0x2348 JUMPI PUSH1 0x40 MLOAD PUSH32 0x8C379A000000000000000000000000000000000000000000000000000000000 DUP2 MSTORE PUSH1 0x4 ADD PUSH2 0x233F SWAP1 PUSH2 0x4AA0 JUMP JUMPDEST PUSH1 0x40 MLOAD DUP1 SWAP2 SUB SWAP1 REVERT JUMPDEST DUP1 MLOAD DUP3 PUSH1 0x7 ADD DUP1 SLOAD PUSH2 0x2359 SWAP1 PUSH2 0x3D50 JUMP JUMPDEST SWAP1 POP EQ ISZERO PUSH2 0x259F JUMPI PUSH1 0x0 JUMPDEST DUP3 PUSH1 0x7 ADD DUP1 SLOAD PUSH2 0x2373 SWAP1 PUSH2 0x3D50 JUMP JUMPDEST SWAP1 POP DUP2 LT ISZERO PUSH2 0x2599 JUMPI DUP2 DUP2 DUP2 MLOAD DUP2 LT PUSH2 0x238F JUMPI PUSH2 0x238E PUSH2 0x48E3 JUMP JUMPDEST JUMPDEST PUSH1 0x20 ADD ADD MLOAD PUSH1 0xF8 SHR PUSH1 0xF8 SHL PUSH31 0xFFFFFFFFFFFFFFFFFFFFFFFFFFFFFFFFFFFFFFFFFFFFFFFFFFFFFFFFFFFFFF NOT AND DUP4 PUSH1 0x7 ADD DUP3 DUP2 SLOAD PUSH2 0x23CC SWAP1 PUSH2 0x3D50 JUMP JUMPDEST DUP2 LT PUSH2 0x23DB JUMPI PUSH2 0x23DA PUSH2 0x48E3 JUMP JUMPDEST JUMPDEST DUP2 SLOAD PUSH1 0x1 AND ISZERO PUSH2 0x23FA JUMPI SWAP1 PUSH1 0x0 MSTORE PUSH1 0x20 PUSH1 0x0 KECCAK256 SWAP1 PUSH1 0x20 SWAP2 DUP3 DUP3 DIV ADD SWAP2 SWAP1 MOD JUMPDEST SWAP1 SLOAD SWAP1 BYTE PUSH32 0x100000000000000000000000000000000000000000000000000000000000000 MUL PUSH31 0xFFFFFFFFFFFFFFFFFFFFFFFFFFFFFFFFFFFFFFFFFFFFFFFFFFFFFFFFFFFFFF NOT AND GT ISZERO PUSH2 0x2464 JUMPI PUSH1 0x1 SWAP4 POP DUP3 PUSH1 0x7 ADD DUP1 SLOAD PUSH2 0x245B SWAP1 PUSH2 0x3D50 JUMP JUMPDEST SWAP1 POP SWAP1 POP PUSH2 0x2594 JUMP JUMPDEST DUP2 DUP2 DUP2 MLOAD DUP2 LT PUSH2 0x2477 JUMPI PUSH2 0x2476 PUSH2 0x48E3 JUMP JUMPDEST JUMPDEST PUSH1 0x20 ADD ADD MLOAD PUSH1 0xF8 SHR PUSH1 0xF8 SHL PUSH31 0xFFFFFFFFFFFFFFFFFFFFFFFFFFFFFFFFFFFFFFFFFFFFFFFFFFFFFFFFFFFFFF NOT AND DUP4 PUSH1 0x7 ADD DUP3 DUP2 SLOAD PUSH2 0x24B4 SWAP1 PUSH2 0x3D50 JUMP JUMPDEST DUP2 LT PUSH2 0x24C3 JUMPI PUSH2 0x24C2 PUSH2 0x48E3 JUMP JUMPDEST JUMPDEST DUP2 SLOAD PUSH1 0x1 AND ISZERO PUSH2 0x24E2 JUMPI SWAP1 PUSH1 0x0 MSTORE PUSH1 0x20 PUSH1 0x0 KECCAK256 SWAP1 PUSH1 0x20 SWAP2 DUP3 DUP3 DIV ADD SWAP2 SWAP1 MOD JUMPDEST SWAP1 SLOAD SWAP1 BYTE PUSH32 0x100000000000000000000000000000000000000000000000000000000000000 MUL PUSH31 0xFFFFFFFFFFFFFFFFFFFFFFFFFFFFFFFFFFFFFFFFFFFFFFFFFFFFFFFFFFFFFF NOT AND LT ISZERO PUSH2 0x2548 JUMPI DUP3 PUSH1 0x7 ADD DUP1 SLOAD PUSH2 0x253F SWAP1 PUSH2 0x3D50 JUMP JUMPDEST SWAP1 POP SWAP1 POP PUSH2 0x2593 JUMP JUMPDEST PUSH1 0x1 DUP4 PUSH1 0x7 ADD DUP1 SLOAD PUSH2 0x2559 SWAP1 PUSH2 0x3D50 JUMP JUMPDEST SWAP1 POP PUSH2 0x2565 SWAP2 SWAP1 PUSH2 0x4754 JUMP JUMPDEST DUP2 EQ ISZERO PUSH2 0x2583 JUMPI PUSH1 0x1 SWAP4 POP DUP1 DUP1 PUSH2 0x257B SWAP1 PUSH2 0x4953 JUMP JUMPDEST SWAP2 POP POP PUSH2 0x2592 JUMP JUMPDEST DUP1 DUP1 PUSH2 0x258E SWAP1 PUSH2 0x4953 JUMP JUMPDEST SWAP2 POP POP JUMPDEST JUMPDEST JUMPDEST PUSH2 0x2364 JUMP JUMPDEST POP PUSH2 0x25BE JUMP JUMPDEST DUP1 MLOAD DUP3 PUSH1 0x7 ADD DUP1 SLOAD PUSH2 0x25B0 SWAP1 PUSH2 0x3D50 JUMP JUMPDEST SWAP1 POP GT ISZERO PUSH2 0x25BD JUMPI PUSH1 0x1 SWAP3 POP JUMPDEST JUMPDEST DUP3 SWAP4 POP POP POP POP SWAP3 SWAP2 POP POP JUMP JUMPDEST PUSH2 0x25E4 DUP3 DUP3 PUSH1 0x40 MLOAD DUP1 PUSH1 0x20 ADD PUSH1 0x40 MSTORE DUP1 PUSH1 0x0 DUP2 MSTORE POP PUSH2 0x2AD1 JUMP JUMPDEST POP POP JUMP JUMPDEST PUSH2 0x25F3 DUP5 DUP5 DUP5 PUSH2 0x1CE1 JUMP JUMPDEST PUSH2 0x25FF DUP5 DUP5 DUP5 DUP5 PUSH2 0x2B2C JUMP JUMPDEST PUSH2 0x263E JUMPI PUSH1 0x40 MLOAD PUSH32 0x8C379A000000000000000000000000000000000000000000000000000000000 DUP2 MSTORE PUSH1 0x4 ADD PUSH2 0x2635 SWAP1 PUSH2 0x4B32 JUMP JUMPDEST PUSH1 0x40 MLOAD DUP1 SWAP2 SUB SWAP1 REVERT JUMPDEST POP POP POP POP JUMP JUMPDEST PUSH1 0x60 PUSH1 0x40 MLOAD DUP1 PUSH1 0x20 ADD PUSH1 0x40 MSTORE DUP1 PUSH1 0x0 DUP2 MSTORE POP SWAP1 POP SWAP1 JUMP JUMPDEST PUSH1 0x60 PUSH1 0x0 DUP3 EQ ISZERO PUSH2 0x26A3 JUMPI PUSH1 0x40 MLOAD DUP1 PUSH1 0x40 ADD PUSH1 0x40 MSTORE DUP1 PUSH1 0x1 DUP2 MSTORE PUSH1 0x20 ADD PUSH32 0x3000000000000000000000000000000000000000000000000000000000000000 DUP2 MSTORE POP SWAP1 POP PUSH2 0x27B7 JUMP JUMPDEST PUSH1 0x0 DUP3 SWAP1 POP PUSH1 0x0 JUMPDEST PUSH1 0x0 DUP3 EQ PUSH2 0x26D5 JUMPI DUP1 DUP1 PUSH2 0x26BE SWAP1 PUSH2 0x4953 JUMP JUMPDEST SWAP2 POP POP PUSH1 0xA DUP3 PUSH2 0x26CE SWAP2 SWAP1 PUSH2 0x4B81 JUMP JUMPDEST SWAP2 POP PUSH2 0x26AB JUMP JUMPDEST PUSH1 0x0 DUP2 PUSH8 0xFFFFFFFFFFFFFFFF DUP2 GT ISZERO PUSH2 0x26F1 JUMPI PUSH2 0x26F0 PUSH2 0x383E JUMP JUMPDEST JUMPDEST PUSH1 0x40 MLOAD SWAP1 DUP1 DUP3 MSTORE DUP1 PUSH1 0x1F ADD PUSH1 0x1F NOT AND PUSH1 0x20 ADD DUP3 ADD PUSH1 0x40 MSTORE DUP1 ISZERO PUSH2 0x2723 JUMPI DUP2 PUSH1 0x20 ADD PUSH1 0x1 DUP3 MUL DUP1 CALLDATASIZE DUP4 CALLDATACOPY DUP1 DUP3 ADD SWAP2 POP POP SWAP1 POP JUMPDEST POP SWAP1 POP JUMPDEST PUSH1 0x0 DUP6 EQ PUSH2 0x27B0 JUMPI PUSH1 0x1 DUP3 PUSH2 0x273C SWAP2 SWAP1 PUSH2 0x4754 JUMP JUMPDEST SWAP2 POP PUSH1 0xA DUP6 PUSH2 0x274B SWAP2 SWAP1 PUSH2 0x4BB2 JUMP JUMPDEST PUSH1 0x30 PUSH2 0x2757 SWAP2 SWAP1 PUSH2 0x4548 JUMP JUMPDEST PUSH1 0xF8 SHL DUP2 DUP4 DUP2 MLOAD DUP2 LT PUSH2 0x276D JUMPI PUSH2 0x276C PUSH2 0x48E3 JUMP JUMPDEST JUMPDEST PUSH1 0x20 ADD ADD SWAP1 PUSH31 0xFFFFFFFFFFFFFFFFFFFFFFFFFFFFFFFFFFFFFFFFFFFFFFFFFFFFFFFFFFFFFF NOT AND SWAP1 DUP2 PUSH1 0x0 BYTE SWAP1 MSTORE8 POP PUSH1 0xA DUP6 PUSH2 0x27A9 SWAP2 SWAP1 PUSH2 0x4B81 JUMP JUMPDEST SWAP5 POP PUSH2 0x2727 JUMP JUMPDEST DUP1 SWAP4 POP POP POP POP JUMPDEST SWAP2 SWAP1 POP JUMP JUMPDEST PUSH1 0x0 PUSH2 0x7B2 DUP5 LT ISZERO PUSH2 0x27CD JUMPI PUSH1 0x0 DUP1 REVERT JUMPDEST PUSH1 0x0 DUP5 SWAP1 POP PUSH1 0x0 DUP5 SWAP1 POP PUSH1 0x0 DUP5 SWAP1 POP PUSH1 0x0 PUSH3 0x253D8C PUSH1 0x4 PUSH1 0x64 PUSH1 0xC PUSH1 0xE DUP8 PUSH2 0x27F5 SWAP2 SWAP1 PUSH2 0x4BED JUMP JUMPDEST PUSH2 0x27FF SWAP2 SWAP1 PUSH2 0x4C81 JUMP JUMPDEST PUSH2 0x1324 DUP9 PUSH2 0x280D SWAP2 SWAP1 PUSH2 0x4CEB JUMP JUMPDEST PUSH2 0x2817 SWAP2 SWAP1 PUSH2 0x4CEB JUMP JUMPDEST PUSH2 0x2821 SWAP2 SWAP1 PUSH2 0x4C81 JUMP JUMPDEST PUSH1 0x3 PUSH2 0x282D SWAP2 SWAP1 PUSH2 0x4D7F JUMP JUMPDEST PUSH2 0x2837 SWAP2 SWAP1 PUSH2 0x4C81 JUMP JUMPDEST PUSH1 0xC DUP1 PUSH1 0xC PUSH1 0xE DUP9 PUSH2 0x2849 SWAP2 SWAP1 PUSH2 0x4BED JUMP JUMPDEST PUSH2 0x2853 SWAP2 SWAP1 PUSH2 0x4C81 JUMP JUMPDEST PUSH2 0x285D SWAP2 SWAP1 PUSH2 0x4D7F JUMP JUMPDEST PUSH1 0x2 DUP8 PUSH2 0x286A SWAP2 SWAP1 PUSH2 0x4BED JUMP JUMPDEST PUSH2 0x2874 SWAP2 SWAP1 PUSH2 0x4BED JUMP JUMPDEST PUSH2 0x16F PUSH2 0x2881 SWAP2 SWAP1 PUSH2 0x4D7F JUMP JUMPDEST PUSH2 0x288B SWAP2 SWAP1 PUSH2 0x4C81 JUMP JUMPDEST PUSH1 0x4 PUSH1 0xC PUSH1 0xE DUP9 PUSH2 0x289C SWAP2 SWAP1 PUSH2 0x4BED JUMP JUMPDEST PUSH2 0x28A6 SWAP2 SWAP1 PUSH2 0x4C81 JUMP JUMPDEST PUSH2 0x12C0 DUP10 PUSH2 0x28B4 SWAP2 SWAP1 PUSH2 0x4CEB JUMP JUMPDEST PUSH2 0x28BE SWAP2 SWAP1 PUSH2 0x4CEB JUMP JUMPDEST PUSH2 0x5B5 PUSH2 0x28CB SWAP2 SWAP1 PUSH2 0x4D7F JUMP JUMPDEST PUSH2 0x28D5 SWAP2 SWAP1 PUSH2 0x4C81 JUMP JUMPDEST PUSH2 0x7D4B DUP7 PUSH2 0x28E3 SWAP2 SWAP1 PUSH2 0x4BED JUMP JUMPDEST PUSH2 0x28ED SWAP2 SWAP1 PUSH2 0x4CEB JUMP JUMPDEST PUSH2 0x28F7 SWAP2 SWAP1 PUSH2 0x4CEB JUMP JUMPDEST PUSH2 0x2901 SWAP2 SWAP1 PUSH2 0x4BED JUMP JUMPDEST PUSH2 0x290B SWAP2 SWAP1 PUSH2 0x4BED JUMP JUMPDEST SWAP1 POP DUP1 SWAP5 POP POP POP POP POP SWAP4 SWAP3 POP POP POP JUMP JUMPDEST POP POP POP JUMP JUMPDEST PUSH1 0x0 DUP1 PUSH1 0x0 DUP1 PUSH1 0x0 DUP1 PUSH2 0x2940 PUSH3 0x15180 DUP9 PUSH2 0x293B SWAP2 SWAP1 PUSH2 0x4B81 JUMP JUMPDEST PUSH2 0x2CC3 JUMP JUMPDEST DUP1 SWAP7 POP DUP2 SWAP8 POP DUP3 SWAP9 POP POP POP POP PUSH1 0x0 PUSH3 0x15180 DUP9 PUSH2 0x295D SWAP2 SWAP1 PUSH2 0x4BB2 JUMP JUMPDEST SWAP1 POP PUSH2 0xE10 DUP2 PUSH2 0x296D SWAP2 SWAP1 PUSH2 0x4B81 JUMP JUMPDEST SWAP4 POP PUSH2 0xE10 DUP2 PUSH2 0x297D SWAP2 SWAP1 PUSH2 0x4BB2 JUMP JUMPDEST SWAP1 POP PUSH1 0x3C DUP2 PUSH2 0x298C SWAP2 SWAP1 PUSH2 0x4B81 JUMP JUMPDEST SWAP3 POP PUSH1 0x3C DUP2 PUSH2 0x299B SWAP2 SWAP1 PUSH2 0x4BB2 JUMP JUMPDEST SWAP2 POP POP SWAP2 SWAP4 SWAP6 POP SWAP2 SWAP4 SWAP6 JUMP JUMPDEST PUSH1 0x60 PUSH1 0x0 PUSH2 0x29B4 DUP4 PUSH2 0x2E62 JUMP JUMPDEST SWAP1 POP PUSH1 0x1 DUP2 MLOAD EQ ISZERO PUSH2 0x29EF JUMPI PUSH2 0x29C9 DUP4 PUSH2 0x2E62 JUMP JUMPDEST PUSH1 0x40 MLOAD PUSH1 0x20 ADD PUSH2 0x29D9 SWAP2 SWAP1 PUSH2 0x4EE2 JUMP JUMPDEST PUSH1 0x40 MLOAD PUSH1 0x20 DUP2 DUP4 SUB SUB DUP2 MSTORE SWAP1 PUSH1 0x40 MSTORE SWAP2 POP PUSH2 0x29FB JUMP JUMPDEST PUSH2 0x29F8 DUP4 PUSH2 0x2E62 JUMP JUMPDEST SWAP2 POP JUMPDEST POP SWAP2 SWAP1 POP JUMP JUMPDEST PUSH1 0x0 DUP1 PUSH1 0x0 SWAP1 POP PUSH1 0x0 JUMPDEST DUP4 MLOAD DUP2 LT ISZERO PUSH2 0x2AC7 JUMPI PUSH1 0x41 PUSH1 0xF8 SHL DUP5 DUP3 DUP2 MLOAD DUP2 LT PUSH2 0x2A2C JUMPI PUSH2 0x2A2B PUSH2 0x48E3 JUMP JUMPDEST JUMPDEST PUSH1 0x20 ADD ADD MLOAD PUSH1 0xF8 SHR PUSH1 0xF8 SHL PUSH31 0xFFFFFFFFFFFFFFFFFFFFFFFFFFFFFFFFFFFFFFFFFFFFFFFFFFFFFFFFFFFFFF NOT AND LT ISZERO DUP1 ISZERO PUSH2 0x2AAA JUMPI POP PUSH1 0x5A PUSH1 0xF8 SHL DUP5 DUP3 DUP2 MLOAD DUP2 LT PUSH2 0x2A7A JUMPI PUSH2 0x2A79 PUSH2 0x48E3 JUMP JUMPDEST JUMPDEST PUSH1 0x20 ADD ADD MLOAD PUSH1 0xF8 SHR PUSH1 0xF8 SHL PUSH31 0xFFFFFFFFFFFFFFFFFFFFFFFFFFFFFFFFFFFFFFFFFFFFFFFFFFFFFFFFFFFFFF NOT AND GT ISZERO JUMPDEST ISZERO PUSH2 0x2AB4 JUMPI PUSH1 0x1 SWAP2 POP JUMPDEST DUP1 DUP1 PUSH2 0x2ABF SWAP1 PUSH2 0x4953 JUMP JUMPDEST SWAP2 POP POP PUSH2 0x2A0B JUMP JUMPDEST POP DUP1 SWAP2 POP POP SWAP2 SWAP1 POP JUMP JUMPDEST PUSH2 0x2ADB DUP4 DUP4 PUSH2 0x2FEB JUMP JUMPDEST PUSH2 0x2AE8 PUSH1 0x0 DUP5 DUP5 DUP5 PUSH2 0x2B2C JUMP JUMPDEST PUSH2 0x2B27 JUMPI PUSH1 0x40 MLOAD PUSH32 0x8C379A000000000000000000000000000000000000000000000000000000000 DUP2 MSTORE PUSH1 0x4 ADD PUSH2 0x2B1E SWAP1 PUSH2 0x4B32 JUMP JUMPDEST PUSH1 0x40 MLOAD DUP1 SWAP2 SUB SWAP1 REVERT JUMPDEST POP POP POP JUMP JUMPDEST PUSH1 0x0 PUSH2 0x2B4D DUP5 PUSH20 0xFFFFFFFFFFFFFFFFFFFFFFFFFFFFFFFFFFFFFFFF AND PUSH2 0x31B9 JUMP JUMPDEST ISZERO PUSH2 0x2CB6 JUMPI DUP4 PUSH20 0xFFFFFFFFFFFFFFFFFFFFFFFFFFFFFFFFFFFFFFFF AND PUSH4 0x150B7A02 PUSH2 0x2B76 PUSH2 0x1B42 JUMP JUMPDEST DUP8 DUP7 DUP7 PUSH1 0x40 MLOAD DUP6 PUSH4 0xFFFFFFFF AND PUSH1 0xE0 SHL DUP2 MSTORE PUSH1 0x4 ADD PUSH2 0x2B98 SWAP5 SWAP4 SWAP3 SWAP2 SWAP1 PUSH2 0x4F04 JUMP JUMPDEST PUSH1 0x20 PUSH1 0x40 MLOAD DUP1 DUP4 SUB DUP2 PUSH1 0x0 DUP8 DUP1 EXTCODESIZE ISZERO DUP1 ISZERO PUSH2 0x2BB2 JUMPI PUSH1 0x0 DUP1 REVERT JUMPDEST POP GAS CALL SWAP3 POP POP POP DUP1 ISZERO PUSH2 0x2BE3 JUMPI POP PUSH1 0x40 MLOAD RETURNDATASIZE PUSH1 0x1F NOT PUSH1 0x1F DUP3 ADD AND DUP3 ADD DUP1 PUSH1 0x40 MSTORE POP DUP2 ADD SWAP1 PUSH2 0x2BE0 SWAP2 SWAP1 PUSH2 0x4F65 JUMP JUMPDEST PUSH1 0x1 JUMPDEST PUSH2 0x2C66 JUMPI RETURNDATASIZE DUP1 PUSH1 0x0 DUP2 EQ PUSH2 0x2C13 JUMPI PUSH1 0x40 MLOAD SWAP2 POP PUSH1 0x1F NOT PUSH1 0x3F RETURNDATASIZE ADD AND DUP3 ADD PUSH1 0x40 MSTORE RETURNDATASIZE DUP3 MSTORE RETURNDATASIZE PUSH1 0x0 PUSH1 0x20 DUP5 ADD RETURNDATACOPY PUSH2 0x2C18 JUMP JUMPDEST PUSH1 0x60 SWAP2 POP JUMPDEST POP PUSH1 0x0 DUP2 MLOAD EQ ISZERO PUSH2 0x2C5E JUMPI PUSH1 0x40 MLOAD PUSH32 0x8C379A000000000000000000000000000000000000000000000000000000000 DUP2 MSTORE PUSH1 0x4 ADD PUSH2 0x2C55 SWAP1 PUSH2 0x4B32 JUMP JUMPDEST PUSH1 0x40 MLOAD DUP1 SWAP2 SUB SWAP1 REVERT JUMPDEST DUP1 MLOAD DUP2 PUSH1 0x20 ADD REVERT JUMPDEST PUSH4 0x150B7A02 PUSH1 0xE0 SHL PUSH28 0xFFFFFFFFFFFFFFFFFFFFFFFFFFFFFFFFFFFFFFFFFFFFFFFFFFFFFFFF NOT AND DUP2 PUSH28 0xFFFFFFFFFFFFFFFFFFFFFFFFFFFFFFFFFFFFFFFFFFFFFFFFFFFFFFFF NOT AND EQ SWAP2 POP POP PUSH2 0x2CBB JUMP JUMPDEST PUSH1 0x1 SWAP1 POP JUMPDEST SWAP5 SWAP4 POP POP POP POP JUMP JUMPDEST PUSH1 0x0 DUP1 PUSH1 0x0 DUP1 DUP5 SWAP1 POP PUSH1 0x0 PUSH3 0x253D8C PUSH3 0x10BD9 DUP4 PUSH2 0x2CE1 SWAP2 SWAP1 PUSH2 0x4CEB JUMP JUMPDEST PUSH2 0x2CEB SWAP2 SWAP1 PUSH2 0x4CEB JUMP JUMPDEST SWAP1 POP PUSH1 0x0 PUSH3 0x23AB1 DUP3 PUSH1 0x4 PUSH2 0x2D00 SWAP2 SWAP1 PUSH2 0x4D7F JUMP JUMPDEST PUSH2 0x2D0A SWAP2 SWAP1 PUSH2 0x4C81 JUMP JUMPDEST SWAP1 POP PUSH1 0x4 PUSH1 0x3 DUP3 PUSH3 0x23AB1 PUSH2 0x2D1F SWAP2 SWAP1 PUSH2 0x4D7F JUMP JUMPDEST PUSH2 0x2D29 SWAP2 SWAP1 PUSH2 0x4CEB JUMP JUMPDEST PUSH2 0x2D33 SWAP2 SWAP1 PUSH2 0x4C81 JUMP JUMPDEST DUP3 PUSH2 0x2D3E SWAP2 SWAP1 PUSH2 0x4BED JUMP JUMPDEST SWAP2 POP PUSH1 0x0 PUSH3 0x164B09 PUSH1 0x1 DUP5 PUSH2 0x2D53 SWAP2 SWAP1 PUSH2 0x4CEB JUMP JUMPDEST PUSH2 0xFA0 PUSH2 0x2D60 SWAP2 SWAP1 PUSH2 0x4D7F JUMP JUMPDEST PUSH2 0x2D6A SWAP2 SWAP1 PUSH2 0x4C81 JUMP JUMPDEST SWAP1 POP PUSH1 0x1F PUSH1 0x4 DUP3 PUSH2 0x5B5 PUSH2 0x2D7E SWAP2 SWAP1 PUSH2 0x4D7F JUMP JUMPDEST PUSH2 0x2D88 SWAP2 SWAP1 PUSH2 0x4C81 JUMP JUMPDEST DUP5 PUSH2 0x2D93 SWAP2 SWAP1 PUSH2 0x4BED JUMP JUMPDEST PUSH2 0x2D9D SWAP2 SWAP1 PUSH2 0x4CEB JUMP JUMPDEST SWAP3 POP PUSH1 0x0 PUSH2 0x98F DUP5 PUSH1 0x50 PUSH2 0x2DB1 SWAP2 SWAP1 PUSH2 0x4D7F JUMP JUMPDEST PUSH2 0x2DBB SWAP2 SWAP1 PUSH2 0x4C81 JUMP JUMPDEST SWAP1 POP PUSH1 0x0 PUSH1 0x50 DUP3 PUSH2 0x98F PUSH2 0x2DCF SWAP2 SWAP1 PUSH2 0x4D7F JUMP JUMPDEST PUSH2 0x2DD9 SWAP2 SWAP1 PUSH2 0x4C81 JUMP JUMPDEST DUP6 PUSH2 0x2DE4 SWAP2 SWAP1 PUSH2 0x4BED JUMP JUMPDEST SWAP1 POP PUSH1 0xB DUP3 PUSH2 0x2DF3 SWAP2 SWAP1 PUSH2 0x4C81 JUMP JUMPDEST SWAP5 POP DUP5 PUSH1 0xC PUSH2 0x2E02 SWAP2 SWAP1 PUSH2 0x4D7F JUMP JUMPDEST PUSH1 0x2 DUP4 PUSH2 0x2E0F SWAP2 SWAP1 PUSH2 0x4CEB JUMP JUMPDEST PUSH2 0x2E19 SWAP2 SWAP1 PUSH2 0x4BED JUMP JUMPDEST SWAP2 POP DUP5 DUP4 PUSH1 0x31 DUP7 PUSH2 0x2E2A SWAP2 SWAP1 PUSH2 0x4BED JUMP JUMPDEST PUSH1 0x64 PUSH2 0x2E36 SWAP2 SWAP1 PUSH2 0x4D7F JUMP JUMPDEST PUSH2 0x2E40 SWAP2 SWAP1 PUSH2 0x4CEB JUMP JUMPDEST PUSH2 0x2E4A SWAP2 SWAP1 PUSH2 0x4CEB JUMP JUMPDEST SWAP3 POP DUP3 SWAP9 POP DUP2 SWAP8 POP DUP1 SWAP7 POP POP POP POP POP POP POP SWAP2 SWAP4 SWAP1 SWAP3 POP JUMP JUMPDEST PUSH1 0x60 PUSH1 0x0 DUP3 EQ ISZERO PUSH2 0x2EAA JUMPI PUSH1 0x40 MLOAD DUP1 PUSH1 0x40 ADD PUSH1 0x40 MSTORE DUP1 PUSH1 0x1 DUP2 MSTORE PUSH1 0x20 ADD PUSH32 0x3000000000000000000000000000000000000000000000000000000000000000 DUP2 MSTORE POP SWAP1 POP PUSH2 0x2FE6 JUMP JUMPDEST PUSH1 0x0 DUP3 SWAP1 POP PUSH1 0x0 JUMPDEST PUSH1 0x0 DUP3 EQ PUSH2 0x2EDC JUMPI DUP1 DUP1 PUSH2 0x2EC5 SWAP1 PUSH2 0x4953 JUMP JUMPDEST SWAP2 POP POP PUSH1 0xA DUP3 PUSH2 0x2ED5 SWAP2 SWAP1 PUSH2 0x4B81 JUMP JUMPDEST SWAP2 POP PUSH2 0x2EB2 JUMP JUMPDEST PUSH1 0x0 DUP2 PUSH8 0xFFFFFFFFFFFFFFFF DUP2 GT ISZERO PUSH2 0x2EF8 JUMPI PUSH2 0x2EF7 PUSH2 0x383E JUMP JUMPDEST JUMPDEST PUSH1 0x40 MLOAD SWAP1 DUP1 DUP3 MSTORE DUP1 PUSH1 0x1F ADD PUSH1 0x1F NOT AND PUSH1 0x20 ADD DUP3 ADD PUSH1 0x40 MSTORE DUP1 ISZERO PUSH2 0x2F2A JUMPI DUP2 PUSH1 0x20 ADD PUSH1 0x1 DUP3 MUL DUP1 CALLDATASIZE DUP4 CALLDATACOPY DUP1 DUP3 ADD SWAP2 POP POP SWAP1 POP JUMPDEST POP SWAP1 POP PUSH1 0x0 DUP3 SWAP1 POP JUMPDEST PUSH1 0x0 DUP7 EQ PUSH2 0x2FDE JUMPI PUSH1 0x1 DUP2 PUSH2 0x2F48 SWAP2 SWAP1 PUSH2 0x4754 JUMP JUMPDEST SWAP1 POP PUSH1 0x0 PUSH1 0xA DUP1 DUP9 PUSH2 0x2F5A SWAP2 SWAP1 PUSH2 0x4B81 JUMP JUMPDEST PUSH2 0x2F64 SWAP2 SWAP1 PUSH2 0x44EE JUMP JUMPDEST DUP8 PUSH2 0x2F6F SWAP2 SWAP1 PUSH2 0x4754 JUMP JUMPDEST PUSH1 0x30 PUSH2 0x2F7B SWAP2 SWAP1 PUSH2 0x4F92 JUMP JUMPDEST SWAP1 POP PUSH1 0x0 DUP2 PUSH1 0xF8 SHL SWAP1 POP DUP1 DUP5 DUP5 DUP2 MLOAD DUP2 LT PUSH2 0x2F99 JUMPI PUSH2 0x2F98 PUSH2 0x48E3 JUMP JUMPDEST JUMPDEST PUSH1 0x20 ADD ADD SWAP1 PUSH31 0xFFFFFFFFFFFFFFFFFFFFFFFFFFFFFFFFFFFFFFFFFFFFFFFFFFFFFFFFFFFFFF NOT AND SWAP1 DUP2 PUSH1 0x0 BYTE SWAP1 MSTORE8 POP PUSH1 0xA DUP9 PUSH2 0x2FD5 SWAP2 SWAP1 PUSH2 0x4B81 JUMP JUMPDEST SWAP8 POP POP POP PUSH2 0x2F33 JUMP JUMPDEST DUP2 SWAP5 POP POP POP POP POP JUMPDEST SWAP2 SWAP1 POP JUMP JUMPDEST PUSH1 0x0 PUSH20 0xFFFFFFFFFFFFFFFFFFFFFFFFFFFFFFFFFFFFFFFF AND DUP3 PUSH20 0xFFFFFFFFFFFFFFFFFFFFFFFFFFFFFFFFFFFFFFFF AND EQ ISZERO PUSH2 0x305B JUMPI PUSH1 0x40 MLOAD PUSH32 0x8C379A000000000000000000000000000000000000000000000000000000000 DUP2 MSTORE PUSH1 0x4 ADD PUSH2 0x3052 SWAP1 PUSH2 0x5015 JUMP JUMPDEST PUSH1 0x40 MLOAD DUP1 SWAP2 SUB SWAP1 REVERT JUMPDEST PUSH2 0x3064 DUP2 PUSH2 0x1AD6 JUMP JUMPDEST ISZERO PUSH2 0x30A4 JUMPI PUSH1 0x40 MLOAD PUSH32 0x8C379A000000000000000000000000000000000000000000000000000000000 DUP2 MSTORE PUSH1 0x4 ADD PUSH2 0x309B SWAP1 PUSH2 0x5081 JUMP JUMPDEST PUSH1 0x40 MLOAD DUP1 SWAP2 SUB SWAP1 REVERT JUMPDEST PUSH2 0x30B0 PUSH1 0x0 DUP4 DUP4 PUSH2 0x291B JUMP JUMPDEST PUSH1 0x1 PUSH1 0x3 PUSH1 0x0 DUP5 PUSH20 0xFFFFFFFFFFFFFFFFFFFFFFFFFFFFFFFFFFFFFFFF AND PUSH20 0xFFFFFFFFFFFFFFFFFFFFFFFFFFFFFFFFFFFFFFFF AND DUP2 MSTORE PUSH1 0x20 ADD SWAP1 DUP2 MSTORE PUSH1 0x20 ADD PUSH1 0x0 KECCAK256 PUSH1 0x0 DUP3 DUP3 SLOAD PUSH2 0x3100 SWAP2 SWAP1 PUSH2 0x4548 JUMP JUMPDEST SWAP3 POP POP DUP2 SWAP1 SSTORE POP DUP2 PUSH1 0x2 PUSH1 0x0 DUP4 DUP2 MSTORE PUSH1 0x20 ADD SWAP1 DUP2 MSTORE PUSH1 0x20 ADD PUSH1 0x0 KECCAK256 PUSH1 0x0 PUSH2 0x100 EXP DUP2 SLOAD DUP2 PUSH20 0xFFFFFFFFFFFFFFFFFFFFFFFFFFFFFFFFFFFFFFFF MUL NOT AND SWAP1 DUP4 PUSH20 0xFFFFFFFFFFFFFFFFFFFFFFFFFFFFFFFFFFFFFFFF AND MUL OR SWAP1 SSTORE POP DUP1 DUP3 PUSH20 0xFFFFFFFFFFFFFFFFFFFFFFFFFFFFFFFFFFFFFFFF AND PUSH1 0x0 PUSH20 0xFFFFFFFFFFFFFFFFFFFFFFFFFFFFFFFFFFFFFFFF AND PUSH32 0xDDF252AD1BE2C89B69C2B068FC378DAA952BA7F163C4A11628F55A4DF523B3EF PUSH1 0x40 MLOAD PUSH1 0x40 MLOAD DUP1 SWAP2 SUB SWAP1 LOG4 POP POP JUMP JUMPDEST PUSH1 0x0 DUP1 DUP3 EXTCODESIZE SWAP1 POP PUSH1 0x0 DUP2 GT SWAP2 POP POP SWAP2 SWAP1 POP JUMP JUMPDEST DUP3 DUP1 SLOAD PUSH2 0x31D8 SWAP1 PUSH2 0x3D50 JUMP JUMPDEST SWAP1 PUSH1 0x0 MSTORE PUSH1 0x20 PUSH1 0x0 KECCAK256 SWAP1 PUSH1 0x1F ADD PUSH1 0x20 SWAP1 DIV DUP2 ADD SWAP3 DUP3 PUSH2 0x31FA JUMPI PUSH1 0x0 DUP6 SSTORE PUSH2 0x3241 JUMP JUMPDEST DUP3 PUSH1 0x1F LT PUSH2 0x3213 JUMPI DUP1 MLOAD PUSH1 0xFF NOT AND DUP4 DUP1 ADD OR DUP6 SSTORE PUSH2 0x3241 JUMP JUMPDEST DUP3 DUP1 ADD PUSH1 0x1 ADD DUP6 SSTORE DUP3 ISZERO PUSH2 0x3241 JUMPI SWAP2 DUP3 ADD JUMPDEST DUP3 DUP2 GT ISZERO PUSH2 0x3240 JUMPI DUP3 MLOAD DUP3 SSTORE SWAP2 PUSH1 0x20 ADD SWAP2 SWAP1 PUSH1 0x1 ADD SWAP1 PUSH2 0x3225 JUMP JUMPDEST JUMPDEST POP SWAP1 POP PUSH2 0x324E SWAP2 SWAP1 PUSH2 0x32D8 JUMP JUMPDEST POP SWAP1 JUMP JUMPDEST DUP3 DUP1 SLOAD PUSH2 0x325E SWAP1 PUSH2 0x3D50 JUMP JUMPDEST SWAP1 PUSH1 0x0 MSTORE PUSH1 0x20 PUSH1 0x0 KECCAK256 SWAP1 PUSH1 0x1F ADD PUSH1 0x20 SWAP1 DIV DUP2 ADD SWAP3 DUP3 PUSH2 0x3280 JUMPI PUSH1 0x0 DUP6 SSTORE PUSH2 0x32C7 JUMP JUMPDEST DUP3 PUSH1 0x1F LT PUSH2 0x3299 JUMPI DUP1 MLOAD PUSH1 0xFF NOT AND DUP4 DUP1 ADD OR DUP6 SSTORE PUSH2 0x32C7 JUMP JUMPDEST DUP3 DUP1 ADD PUSH1 0x1 ADD DUP6 SSTORE DUP3 ISZERO PUSH2 0x32C7 JUMPI SWAP2 DUP3 ADD JUMPDEST DUP3 DUP2 GT ISZERO PUSH2 0x32C6 JUMPI DUP3 MLOAD DUP3 SSTORE SWAP2 PUSH1 0x20 ADD SWAP2 SWAP1 PUSH1 0x1 ADD SWAP1 PUSH2 0x32AB JUMP JUMPDEST JUMPDEST POP SWAP1 POP PUSH2 0x32D4 SWAP2 SWAP1 PUSH2 0x32D8 JUMP JUMPDEST POP SWAP1 JUMP JUMPDEST JUMPDEST DUP1 DUP3 GT ISZERO PUSH2 0x32F1 JUMPI PUSH1 0x0 DUP2 PUSH1 0x0 SWAP1 SSTORE POP PUSH1 0x1 ADD PUSH2 0x32D9 JUMP JUMPDEST POP SWAP1 JUMP JUMPDEST PUSH1 0x0 PUSH1 0x40 MLOAD SWAP1 POP SWAP1 JUMP JUMPDEST PUSH1 0x0 DUP1 REVERT JUMPDEST PUSH1 0x0 DUP1 REVERT JUMPDEST PUSH1 0x0 PUSH32 0xFFFFFFFF00000000000000000000000000000000000000000000000000000000 DUP3 AND SWAP1 POP SWAP2 SWAP1 POP JUMP JUMPDEST PUSH2 0x333E DUP2 PUSH2 0x3309 JUMP JUMPDEST DUP2 EQ PUSH2 0x3349 JUMPI PUSH1 0x0 DUP1 REVERT JUMPDEST POP JUMP JUMPDEST PUSH1 0x0 DUP2 CALLDATALOAD SWAP1 POP PUSH2 0x335B DUP2 PUSH2 0x3335 JUMP JUMPDEST SWAP3 SWAP2 POP POP JUMP JUMPDEST PUSH1 0x0 PUSH1 0x20 DUP3 DUP5 SUB SLT ISZERO PUSH2 0x3377 JUMPI PUSH2 0x3376 PUSH2 0x32FF JUMP JUMPDEST JUMPDEST PUSH1 0x0 PUSH2 0x3385 DUP5 DUP3 DUP6 ADD PUSH2 0x334C JUMP JUMPDEST SWAP2 POP POP SWAP3 SWAP2 POP POP JUMP JUMPDEST PUSH1 0x0 DUP2 ISZERO ISZERO SWAP1 POP SWAP2 SWAP1 POP JUMP JUMPDEST PUSH2 0x33A3 DUP2 PUSH2 0x338E JUMP JUMPDEST DUP3 MSTORE POP POP JUMP JUMPDEST PUSH1 0x0 PUSH1 0x20 DUP3 ADD SWAP1 POP PUSH2 0x33BE PUSH1 0x0 DUP4 ADD DUP5 PUSH2 0x339A JUMP JUMPDEST SWAP3 SWAP2 POP POP JUMP JUMPDEST PUSH1 0x0 DUP2 MLOAD SWAP1 POP SWAP2 SWAP1 POP JUMP JUMPDEST PUSH1 0x0 DUP3 DUP3 MSTORE PUSH1 0x20 DUP3 ADD SWAP1 POP SWAP3 SWAP2 POP POP JUMP JUMPDEST PUSH1 0x0 JUMPDEST DUP4 DUP2 LT ISZERO PUSH2 0x33FE JUMPI DUP1 DUP3 ADD MLOAD DUP2 DUP5 ADD MSTORE PUSH1 0x20 DUP2 ADD SWAP1 POP PUSH2 0x33E3 JUMP JUMPDEST DUP4 DUP2 GT ISZERO PUSH2 0x340D JUMPI PUSH1 0x0 DUP5 DUP5 ADD MSTORE JUMPDEST POP POP POP POP JUMP JUMPDEST PUSH1 0x0 PUSH1 0x1F NOT PUSH1 0x1F DUP4 ADD AND SWAP1 POP SWAP2 SWAP1 POP JUMP JUMPDEST PUSH1 0x0 PUSH2 0x342F DUP3 PUSH2 0x33C4 JUMP JUMPDEST PUSH2 0x3439 DUP2 DUP6 PUSH2 0x33CF JUMP JUMPDEST SWAP4 POP PUSH2 0x3449 DUP2 DUP6 PUSH1 0x20 DUP7 ADD PUSH2 0x33E0 JUMP JUMPDEST PUSH2 0x3452 DUP2 PUSH2 0x3413 JUMP JUMPDEST DUP5 ADD SWAP2 POP POP SWAP3 SWAP2 POP POP JUMP JUMPDEST PUSH1 0x0 PUSH1 0x20 DUP3 ADD SWAP1 POP DUP2 DUP2 SUB PUSH1 0x0 DUP4 ADD MSTORE PUSH2 0x3477 DUP2 DUP5 PUSH2 0x3424 JUMP JUMPDEST SWAP1 POP SWAP3 SWAP2 POP POP JUMP JUMPDEST PUSH1 0x0 DUP2 SWAP1 POP SWAP2 SWAP1 POP JUMP JUMPDEST PUSH2 0x3492 DUP2 PUSH2 0x347F JUMP JUMPDEST DUP2 EQ PUSH2 0x349D JUMPI PUSH1 0x0 DUP1 REVERT JUMPDEST POP JUMP JUMPDEST PUSH1 0x0 DUP2 CALLDATALOAD SWAP1 POP PUSH2 0x34AF DUP2 PUSH2 0x3489 JUMP JUMPDEST SWAP3 SWAP2 POP POP JUMP JUMPDEST PUSH1 0x0 PUSH1 0x20 DUP3 DUP5 SUB SLT ISZERO PUSH2 0x34CB JUMPI PUSH2 0x34CA PUSH2 0x32FF JUMP JUMPDEST JUMPDEST PUSH1 0x0 PUSH2 0x34D9 DUP5 DUP3 DUP6 ADD PUSH2 0x34A0 JUMP JUMPDEST SWAP2 POP POP SWAP3 SWAP2 POP POP JUMP JUMPDEST PUSH1 0x0 PUSH20 0xFFFFFFFFFFFFFFFFFFFFFFFFFFFFFFFFFFFFFFFF DUP3 AND SWAP1 POP SWAP2 SWAP1 POP JUMP JUMPDEST PUSH1 0x0 PUSH2 0x350D DUP3 PUSH2 0x34E2 JUMP JUMPDEST SWAP1 POP SWAP2 SWAP1 POP JUMP JUMPDEST PUSH2 0x351D DUP2 PUSH2 0x3502 JUMP JUMPDEST DUP3 MSTORE POP POP JUMP JUMPDEST PUSH1 0x0 PUSH1 0x20 DUP3 ADD SWAP1 POP PUSH2 0x3538 PUSH1 0x0 DUP4 ADD DUP5 PUSH2 0x3514 JUMP JUMPDEST SWAP3 SWAP2 POP POP JUMP JUMPDEST PUSH2 0x3547 DUP2 PUSH2 0x3502 JUMP JUMPDEST DUP2 EQ PUSH2 0x3552 JUMPI PUSH1 0x0 DUP1 REVERT JUMPDEST POP JUMP JUMPDEST PUSH1 0x0 DUP2 CALLDATALOAD SWAP1 POP PUSH2 0x3564 DUP2 PUSH2 0x353E JUMP JUMPDEST SWAP3 SWAP2 POP POP JUMP JUMPDEST PUSH1 0x0 DUP1 PUSH1 0x40 DUP4 DUP6 SUB SLT ISZERO PUSH2 0x3581 JUMPI PUSH2 0x3580 PUSH2 0x32FF JUMP JUMPDEST JUMPDEST PUSH1 0x0 PUSH2 0x358F DUP6 DUP3 DUP7 ADD PUSH2 0x3555 JUMP JUMPDEST SWAP3 POP POP PUSH1 0x20 PUSH2 0x35A0 DUP6 DUP3 DUP7 ADD PUSH2 0x34A0 JUMP JUMPDEST SWAP2 POP POP SWAP3 POP SWAP3 SWAP1 POP JUMP JUMPDEST PUSH1 0x0 DUP1 PUSH1 0x0 PUSH1 0x60 DUP5 DUP7 SUB SLT ISZERO PUSH2 0x35C3 JUMPI PUSH2 0x35C2 PUSH2 0x32FF JUMP JUMPDEST JUMPDEST PUSH1 0x0 PUSH2 0x35D1 DUP7 DUP3 DUP8 ADD PUSH2 0x3555 JUMP JUMPDEST SWAP4 POP POP PUSH1 0x20 PUSH2 0x35E2 DUP7 DUP3 DUP8 ADD PUSH2 0x3555 JUMP JUMPDEST SWAP3 POP POP PUSH1 0x40 PUSH2 0x35F3 DUP7 DUP3 DUP8 ADD PUSH2 0x34A0 JUMP JUMPDEST SWAP2 POP POP SWAP3 POP SWAP3 POP SWAP3 JUMP JUMPDEST PUSH2 0x3606 DUP2 PUSH2 0x347F JUMP JUMPDEST DUP3 MSTORE POP POP JUMP JUMPDEST PUSH1 0x0 PUSH1 0xC0 DUP3 ADD SWAP1 POP DUP2 DUP2 SUB PUSH1 0x0 DUP4 ADD MSTORE PUSH2 0x3626 DUP2 DUP10 PUSH2 0x3424 JUMP JUMPDEST SWAP1 POP DUP2 DUP2 SUB PUSH1 0x20 DUP4 ADD MSTORE PUSH2 0x363A DUP2 DUP9 PUSH2 0x3424 JUMP JUMPDEST SWAP1 POP DUP2 DUP2 SUB PUSH1 0x40 DUP4 ADD MSTORE PUSH2 0x364E DUP2 DUP8 PUSH2 0x3424 JUMP JUMPDEST SWAP1 POP PUSH2 0x365D PUSH1 0x60 DUP4 ADD DUP7 PUSH2 0x35FD JUMP JUMPDEST PUSH2 0x366A PUSH1 0x80 DUP4 ADD DUP6 PUSH2 0x35FD JUMP JUMPDEST DUP2 DUP2 SUB PUSH1 0xA0 DUP4 ADD MSTORE PUSH2 0x367C DUP2 DUP5 PUSH2 0x3424 JUMP JUMPDEST SWAP1 POP SWAP8 SWAP7 POP POP POP POP POP POP POP JUMP JUMPDEST PUSH1 0x0 PUSH1 0x20 DUP3 DUP5 SUB SLT ISZERO PUSH2 0x369F JUMPI PUSH2 0x369E PUSH2 0x32FF JUMP JUMPDEST JUMPDEST PUSH1 0x0 PUSH2 0x36AD DUP5 DUP3 DUP6 ADD PUSH2 0x3555 JUMP JUMPDEST SWAP2 POP POP SWAP3 SWAP2 POP POP JUMP JUMPDEST PUSH1 0x0 DUP2 MLOAD SWAP1 POP SWAP2 SWAP1 POP JUMP JUMPDEST PUSH1 0x0 DUP3 DUP3 MSTORE PUSH1 0x20 DUP3 ADD SWAP1 POP SWAP3 SWAP2 POP POP JUMP JUMPDEST PUSH1 0x0 PUSH2 0x36DD DUP3 PUSH2 0x36B6 JUMP JUMPDEST PUSH2 0x36E7 DUP2 DUP6 PUSH2 0x36C1 JUMP JUMPDEST SWAP4 POP PUSH2 0x36F7 DUP2 DUP6 PUSH1 0x20 DUP7 ADD PUSH2 0x33E0 JUMP JUMPDEST PUSH2 0x3700 DUP2 PUSH2 0x3413 JUMP JUMPDEST DUP5 ADD SWAP2 POP POP SWAP3 SWAP2 POP POP JUMP JUMPDEST PUSH1 0x0 PUSH2 0x120 DUP3 ADD SWAP1 POP DUP2 DUP2 SUB PUSH1 0x0 DUP4 ADD MSTORE PUSH2 0x3726 DUP2 DUP13 PUSH2 0x3424 JUMP JUMPDEST SWAP1 POP PUSH2 0x3735 PUSH1 0x20 DUP4 ADD DUP12 PUSH2 0x35FD JUMP JUMPDEST PUSH2 0x3742 PUSH1 0x40 DUP4 ADD DUP11 PUSH2 0x35FD JUMP JUMPDEST PUSH2 0x374F PUSH1 0x60 DUP4 ADD DUP10 PUSH2 0x35FD JUMP JUMPDEST PUSH2 0x375C PUSH1 0x80 DUP4 ADD DUP9 PUSH2 0x35FD JUMP JUMPDEST PUSH2 0x3769 PUSH1 0xA0 DUP4 ADD DUP8 PUSH2 0x35FD JUMP JUMPDEST PUSH2 0x3776 PUSH1 0xC0 DUP4 ADD DUP7 PUSH2 0x35FD JUMP JUMPDEST DUP2 DUP2 SUB PUSH1 0xE0 DUP4 ADD MSTORE PUSH2 0x3788 DUP2 DUP6 PUSH2 0x36D2 JUMP JUMPDEST SWAP1 POP DUP2 DUP2 SUB PUSH2 0x100 DUP4 ADD MSTORE PUSH2 0x379D DUP2 DUP5 PUSH2 0x36D2 JUMP JUMPDEST SWAP1 POP SWAP11 SWAP10 POP POP POP POP POP POP POP POP POP POP JUMP JUMPDEST PUSH1 0x0 PUSH1 0x20 DUP3 ADD SWAP1 POP PUSH2 0x37C2 PUSH1 0x0 DUP4 ADD DUP5 PUSH2 0x35FD JUMP JUMPDEST SWAP3 SWAP2 POP POP JUMP JUMPDEST PUSH2 0x37D1 DUP2 PUSH2 0x338E JUMP JUMPDEST DUP2 EQ PUSH2 0x37DC JUMPI PUSH1 0x0 DUP1 REVERT JUMPDEST POP JUMP JUMPDEST PUSH1 0x0 DUP2 CALLDATALOAD SWAP1 POP PUSH2 0x37EE DUP2 PUSH2 0x37C8 JUMP JUMPDEST SWAP3 SWAP2 POP POP JUMP JUMPDEST PUSH1 0x0 DUP1 PUSH1 0x40 DUP4 DUP6 SUB SLT ISZERO PUSH2 0x380B JUMPI PUSH2 0x380A PUSH2 0x32FF JUMP JUMPDEST JUMPDEST PUSH1 0x0 PUSH2 0x3819 DUP6 DUP3 DUP7 ADD PUSH2 0x3555 JUMP JUMPDEST SWAP3 POP POP PUSH1 0x20 PUSH2 0x382A DUP6 DUP3 DUP7 ADD PUSH2 0x37DF JUMP JUMPDEST SWAP2 POP POP SWAP3 POP SWAP3 SWAP1 POP JUMP JUMPDEST PUSH1 0x0 DUP1 REVERT JUMPDEST PUSH1 0x0 DUP1 REVERT JUMPDEST PUSH32 0x4E487B7100000000000000000000000000000000000000000000000000000000 PUSH1 0x0 MSTORE PUSH1 0x41 PUSH1 0x4 MSTORE PUSH1 0x24 PUSH1 0x0 REVERT JUMPDEST PUSH2 0x3876 DUP3 PUSH2 0x3413 JUMP JUMPDEST DUP2 ADD DUP2 DUP2 LT PUSH8 0xFFFFFFFFFFFFFFFF DUP3 GT OR ISZERO PUSH2 0x3895 JUMPI PUSH2 0x3894 PUSH2 0x383E JUMP JUMPDEST JUMPDEST DUP1 PUSH1 0x40 MSTORE POP POP POP JUMP JUMPDEST PUSH1 0x0 PUSH2 0x38A8 PUSH2 0x32F5 JUMP JUMPDEST SWAP1 POP PUSH2 0x38B4 DUP3 DUP3 PUSH2 0x386D JUMP JUMPDEST SWAP2 SWAP1 POP JUMP JUMPDEST PUSH1 0x0 PUSH8 0xFFFFFFFFFFFFFFFF DUP3 GT ISZERO PUSH2 0x38D4 JUMPI PUSH2 0x38D3 PUSH2 0x383E JUMP JUMPDEST JUMPDEST PUSH2 0x38DD DUP3 PUSH2 0x3413 JUMP JUMPDEST SWAP1 POP PUSH1 0x20 DUP2 ADD SWAP1 POP SWAP2 SWAP1 POP JUMP JUMPDEST DUP3 DUP2 DUP4 CALLDATACOPY PUSH1 0x0 DUP4 DUP4 ADD MSTORE POP POP POP JUMP JUMPDEST PUSH1 0x0 PUSH2 0x390C PUSH2 0x3907 DUP5 PUSH2 0x38B9 JUMP JUMPDEST PUSH2 0x389E JUMP JUMPDEST SWAP1 POP DUP3 DUP2 MSTORE PUSH1 0x20 DUP2 ADD DUP5 DUP5 DUP5 ADD GT ISZERO PUSH2 0x3928 JUMPI PUSH2 0x3927 PUSH2 0x3839 JUMP JUMPDEST JUMPDEST PUSH2 0x3933 DUP5 DUP3 DUP6 PUSH2 0x38EA JUMP JUMPDEST POP SWAP4 SWAP3 POP POP POP JUMP JUMPDEST PUSH1 0x0 DUP3 PUSH1 0x1F DUP4 ADD SLT PUSH2 0x3950 JUMPI PUSH2 0x394F PUSH2 0x3834 JUMP JUMPDEST JUMPDEST DUP2 CALLDATALOAD PUSH2 0x3960 DUP5 DUP3 PUSH1 0x20 DUP7 ADD PUSH2 0x38F9 JUMP JUMPDEST SWAP2 POP POP SWAP3 SWAP2 POP POP JUMP JUMPDEST PUSH1 0x0 DUP1 PUSH1 0x40 DUP4 DUP6 SUB SLT ISZERO PUSH2 0x3980 JUMPI PUSH2 0x397F PUSH2 0x32FF JUMP JUMPDEST JUMPDEST PUSH1 0x0 DUP4 ADD CALLDATALOAD PUSH8 0xFFFFFFFFFFFFFFFF DUP2 GT ISZERO PUSH2 0x399E JUMPI PUSH2 0x399D PUSH2 0x3304 JUMP JUMPDEST JUMPDEST PUSH2 0x39AA DUP6 DUP3 DUP7 ADD PUSH2 0x393B JUMP JUMPDEST SWAP3 POP POP PUSH1 0x20 PUSH2 0x39BB DUP6 DUP3 DUP7 ADD PUSH2 0x34A0 JUMP JUMPDEST SWAP2 POP POP SWAP3 POP SWAP3 SWAP1 POP JUMP JUMPDEST PUSH1 0x0 PUSH8 0xFFFFFFFFFFFFFFFF DUP3 GT ISZERO PUSH2 0x39E0 JUMPI PUSH2 0x39DF PUSH2 0x383E JUMP JUMPDEST JUMPDEST PUSH2 0x39E9 DUP3 PUSH2 0x3413 JUMP JUMPDEST SWAP1 POP PUSH1 0x20 DUP2 ADD SWAP1 POP SWAP2 SWAP1 POP JUMP JUMPDEST PUSH1 0x0 PUSH2 0x3A09 PUSH2 0x3A04 DUP5 PUSH2 0x39C5 JUMP JUMPDEST PUSH2 0x389E JUMP JUMPDEST SWAP1 POP DUP3 DUP2 MSTORE PUSH1 0x20 DUP2 ADD DUP5 DUP5 DUP5 ADD GT ISZERO PUSH2 0x3A25 JUMPI PUSH2 0x3A24 PUSH2 0x3839 JUMP JUMPDEST JUMPDEST PUSH2 0x3A30 DUP5 DUP3 DUP6 PUSH2 0x38EA JUMP JUMPDEST POP SWAP4 SWAP3 POP POP POP JUMP JUMPDEST PUSH1 0x0 DUP3 PUSH1 0x1F DUP4 ADD SLT PUSH2 0x3A4D JUMPI PUSH2 0x3A4C PUSH2 0x3834 JUMP JUMPDEST JUMPDEST DUP2 CALLDATALOAD PUSH2 0x3A5D DUP5 DUP3 PUSH1 0x20 DUP7 ADD PUSH2 0x39F6 JUMP JUMPDEST SWAP2 POP POP SWAP3 SWAP2 POP POP JUMP JUMPDEST PUSH1 0x0 DUP1 PUSH1 0x0 DUP1 PUSH1 0x80 DUP6 DUP8 SUB SLT ISZERO PUSH2 0x3A80 JUMPI PUSH2 0x3A7F PUSH2 0x32FF JUMP JUMPDEST JUMPDEST PUSH1 0x0 PUSH2 0x3A8E DUP8 DUP3 DUP9 ADD PUSH2 0x3555 JUMP JUMPDEST SWAP5 POP POP PUSH1 0x20 PUSH2 0x3A9F DUP8 DUP3 DUP9 ADD PUSH2 0x3555 JUMP JUMPDEST SWAP4 POP POP PUSH1 0x40 PUSH2 0x3AB0 DUP8 DUP3 DUP9 ADD PUSH2 0x34A0 JUMP JUMPDEST SWAP3 POP POP PUSH1 0x60 DUP6 ADD CALLDATALOAD PUSH8 0xFFFFFFFFFFFFFFFF DUP2 GT ISZERO PUSH2 0x3AD1 JUMPI PUSH2 0x3AD0 PUSH2 0x3304 JUMP JUMPDEST JUMPDEST PUSH2 0x3ADD DUP8 DUP3 DUP9 ADD PUSH2 0x3A38 JUMP JUMPDEST SWAP2 POP POP SWAP3 SWAP6 SWAP2 SWAP5 POP SWAP3 POP JUMP JUMPDEST PUSH1 0x0 DUP2 MLOAD SWAP1 POP SWAP2 SWAP1 POP JUMP JUMPDEST PUSH1 0x0 DUP3 DUP3 MSTORE PUSH1 0x20 DUP3 ADD SWAP1 POP SWAP3 SWAP2 POP POP JUMP JUMPDEST PUSH1 0x0 DUP2 SWAP1 POP PUSH1 0x20 DUP3 ADD SWAP1 POP SWAP2 SWAP1 POP JUMP JUMPDEST PUSH1 0x0 DUP3 DUP3 MSTORE PUSH1 0x20 DUP3 ADD SWAP1 POP SWAP3 SWAP2 POP POP JUMP JUMPDEST PUSH1 0x0 PUSH2 0x3B31 DUP3 PUSH2 0x36B6 JUMP JUMPDEST PUSH2 0x3B3B DUP2 DUP6 PUSH2 0x3B15 JUMP JUMPDEST SWAP4 POP PUSH2 0x3B4B DUP2 DUP6 PUSH1 0x20 DUP7 ADD PUSH2 0x33E0 JUMP JUMPDEST PUSH2 0x3B54 DUP2 PUSH2 0x3413 JUMP JUMPDEST DUP5 ADD SWAP2 POP POP SWAP3 SWAP2 POP POP JUMP JUMPDEST PUSH1 0x0 PUSH2 0x3B6B DUP4 DUP4 PUSH2 0x3B26 JUMP JUMPDEST SWAP1 POP SWAP3 SWAP2 POP POP JUMP JUMPDEST PUSH1 0x0 PUSH1 0x20 DUP3 ADD SWAP1 POP SWAP2 SWAP1 POP JUMP JUMPDEST PUSH1 0x0 PUSH2 0x3B8B DUP3 PUSH2 0x3AE9 JUMP JUMPDEST PUSH2 0x3B95 DUP2 DUP6 PUSH2 0x3AF4 JUMP JUMPDEST SWAP4 POP DUP4 PUSH1 0x20 DUP3 MUL DUP6 ADD PUSH2 0x3BA7 DUP6 PUSH2 0x3B05 JUMP JUMPDEST DUP1 PUSH1 0x0 JUMPDEST DUP6 DUP2 LT ISZERO PUSH2 0x3BE3 JUMPI DUP5 DUP5 SUB DUP10 MSTORE DUP2 MLOAD PUSH2 0x3BC4 DUP6 DUP3 PUSH2 0x3B5F JUMP JUMPDEST SWAP5 POP PUSH2 0x3BCF DUP4 PUSH2 0x3B73 JUMP JUMPDEST SWAP3 POP PUSH1 0x20 DUP11 ADD SWAP10 POP POP PUSH1 0x1 DUP2 ADD SWAP1 POP PUSH2 0x3BAB JUMP JUMPDEST POP DUP3 SWAP8 POP DUP8 SWAP6 POP POP POP POP POP POP SWAP3 SWAP2 POP POP JUMP JUMPDEST PUSH1 0x0 PUSH1 0xA0 DUP3 ADD SWAP1 POP DUP2 DUP2 SUB PUSH1 0x0 DUP4 ADD MSTORE PUSH2 0x3C0F DUP2 DUP9 PUSH2 0x3424 JUMP JUMPDEST SWAP1 POP DUP2 DUP2 SUB PUSH1 0x20 DUP4 ADD MSTORE PUSH2 0x3C23 DUP2 DUP8 PUSH2 0x3424 JUMP JUMPDEST SWAP1 POP DUP2 DUP2 SUB PUSH1 0x40 DUP4 ADD MSTORE PUSH2 0x3C37 DUP2 DUP7 PUSH2 0x3424 JUMP JUMPDEST SWAP1 POP PUSH2 0x3C46 PUSH1 0x60 DUP4 ADD DUP6 PUSH2 0x35FD JUMP JUMPDEST DUP2 DUP2 SUB PUSH1 0x80 DUP4 ADD MSTORE PUSH2 0x3C58 DUP2 DUP5 PUSH2 0x3B80 JUMP JUMPDEST SWAP1 POP SWAP7 SWAP6 POP POP POP POP POP POP JUMP JUMPDEST PUSH1 0x0 PUSH1 0xC0 DUP3 ADD SWAP1 POP DUP2 DUP2 SUB PUSH1 0x0 DUP4 ADD MSTORE PUSH2 0x3C7E DUP2 DUP10 PUSH2 0x3424 JUMP JUMPDEST SWAP1 POP PUSH2 0x3C8D PUSH1 0x20 DUP4 ADD DUP9 PUSH2 0x35FD JUMP JUMPDEST DUP2 DUP2 SUB PUSH1 0x40 DUP4 ADD MSTORE PUSH2 0x3C9F DUP2 DUP8 PUSH2 0x36D2 JUMP JUMPDEST SWAP1 POP DUP2 DUP2 SUB PUSH1 0x60 DUP4 ADD MSTORE PUSH2 0x3CB3 DUP2 DUP7 PUSH2 0x36D2 JUMP JUMPDEST SWAP1 POP PUSH2 0x3CC2 PUSH1 0x80 DUP4 ADD DUP6 PUSH2 0x35FD JUMP JUMPDEST DUP2 DUP2 SUB PUSH1 0xA0 DUP4 ADD MSTORE PUSH2 0x3CD4 DUP2 DUP5 PUSH2 0x3424 JUMP JUMPDEST SWAP1 POP SWAP8 SWAP7 POP POP POP POP POP POP POP JUMP JUMPDEST PUSH1 0x0 DUP1 PUSH1 0x40 DUP4 DUP6 SUB SLT ISZERO PUSH2 0x3CF8 JUMPI PUSH2 0x3CF7 PUSH2 0x32FF JUMP JUMPDEST JUMPDEST PUSH1 0x0 PUSH2 0x3D06 DUP6 DUP3 DUP7 ADD PUSH2 0x3555 JUMP JUMPDEST SWAP3 POP POP PUSH1 0x20 PUSH2 0x3D17 DUP6 DUP3 DUP7 ADD PUSH2 0x3555 JUMP JUMPDEST SWAP2 POP POP SWAP3 POP SWAP3 SWAP1 POP JUMP JUMPDEST PUSH32 0x4E487B7100000000000000000000000000000000000000000000000000000000 PUSH1 0x0 MSTORE PUSH1 0x22 PUSH1 0x4 MSTORE PUSH1 0x24 PUSH1 0x0 REVERT JUMPDEST PUSH1 0x0 PUSH1 0x2 DUP3 DIV SWAP1 POP PUSH1 0x1 DUP3 AND DUP1 PUSH2 0x3D68 JUMPI PUSH1 0x7F DUP3 AND SWAP2 POP JUMPDEST PUSH1 0x20 DUP3 LT DUP2 EQ ISZERO PUSH2 0x3D7C JUMPI PUSH2 0x3D7B PUSH2 0x3D21 JUMP JUMPDEST JUMPDEST POP SWAP2 SWAP1 POP JUMP JUMPDEST PUSH32 0x4552433732313A20617070726F76656420717565727920666F72206E6F6E6578 PUSH1 0x0 DUP3 ADD MSTORE PUSH32 0x697374656E7420746F6B656E0000000000000000000000000000000000000000 PUSH1 0x20 DUP3 ADD MSTORE POP JUMP JUMPDEST PUSH1 0x0 PUSH2 0x3DDE PUSH1 0x2C DUP4 PUSH2 0x33CF JUMP JUMPDEST SWAP2 POP PUSH2 0x3DE9 DUP3 PUSH2 0x3D82 JUMP JUMPDEST PUSH1 0x40 DUP3 ADD SWAP1 POP SWAP2 SWAP1 POP JUMP JUMPDEST PUSH1 0x0 PUSH1 0x20 DUP3 ADD SWAP1 POP DUP2 DUP2 SUB PUSH1 0x0 DUP4 ADD MSTORE PUSH2 0x3E0D DUP2 PUSH2 0x3DD1 JUMP JUMPDEST SWAP1 POP SWAP2 SWAP1 POP JUMP JUMPDEST PUSH32 0x4552433732313A20617070726F76616C20746F2063757272656E74206F776E65 PUSH1 0x0 DUP3 ADD MSTORE PUSH32 0x7200000000000000000000000000000000000000000000000000000000000000 PUSH1 0x20 DUP3 ADD MSTORE POP JUMP JUMPDEST PUSH1 0x0 PUSH2 0x3E70 PUSH1 0x21 DUP4 PUSH2 0x33CF JUMP JUMPDEST SWAP2 POP PUSH2 0x3E7B DUP3 PUSH2 0x3E14 JUMP JUMPDEST PUSH1 0x40 DUP3 ADD SWAP1 POP SWAP2 SWAP1 POP JUMP JUMPDEST PUSH1 0x0 PUSH1 0x20 DUP3 ADD SWAP1 POP DUP2 DUP2 SUB PUSH1 0x0 DUP4 ADD MSTORE PUSH2 0x3E9F DUP2 PUSH2 0x3E63 JUMP JUMPDEST SWAP1 POP SWAP2 SWAP1 POP JUMP JUMPDEST PUSH32 0x4552433732313A20617070726F76652063616C6C6572206973206E6F74206F77 PUSH1 0x0 DUP3 ADD MSTORE PUSH32 0x6E6572206E6F7220617070726F76656420666F7220616C6C0000000000000000 PUSH1 0x20 DUP3 ADD MSTORE POP JUMP JUMPDEST PUSH1 0x0 PUSH2 0x3F02 PUSH1 0x38 DUP4 PUSH2 0x33CF JUMP JUMPDEST SWAP2 POP PUSH2 0x3F0D DUP3 PUSH2 0x3EA6 JUMP JUMPDEST PUSH1 0x40 DUP3 ADD SWAP1 POP SWAP2 SWAP1 POP JUMP JUMPDEST PUSH1 0x0 PUSH1 0x20 DUP3 ADD SWAP1 POP DUP2 DUP2 SUB PUSH1 0x0 DUP4 ADD MSTORE PUSH2 0x3F31 DUP2 PUSH2 0x3EF5 JUMP JUMPDEST SWAP1 POP SWAP2 SWAP1 POP JUMP JUMPDEST PUSH32 0x4552433732313A207472616E736665722063616C6C6572206973206E6F74206F PUSH1 0x0 DUP3 ADD MSTORE PUSH32 0x776E6572206E6F7220617070726F766564000000000000000000000000000000 PUSH1 0x20 DUP3 ADD MSTORE POP JUMP JUMPDEST PUSH1 0x0 PUSH2 0x3F94 PUSH1 0x31 DUP4 PUSH2 0x33CF JUMP JUMPDEST SWAP2 POP PUSH2 0x3F9F DUP3 PUSH2 0x3F38 JUMP JUMPDEST PUSH1 0x40 DUP3 ADD SWAP1 POP SWAP2 SWAP1 POP JUMP JUMPDEST PUSH1 0x0 PUSH1 0x20 DUP3 ADD SWAP1 POP DUP2 DUP2 SUB PUSH1 0x0 DUP4 ADD MSTORE PUSH2 0x3FC3 DUP2 PUSH2 0x3F87 JUMP JUMPDEST SWAP1 POP SWAP2 SWAP1 POP JUMP JUMPDEST PUSH1 0x0 PUSH2 0x3FDD PUSH2 0x3FD8 DUP5 PUSH2 0x38B9 JUMP JUMPDEST PUSH2 0x389E JUMP JUMPDEST SWAP1 POP DUP3 DUP2 MSTORE PUSH1 0x20 DUP2 ADD DUP5 DUP5 DUP5 ADD GT ISZERO PUSH2 0x3FF9 JUMPI PUSH2 0x3FF8 PUSH2 0x3839 JUMP JUMPDEST JUMPDEST PUSH2 0x4004 DUP5 DUP3 DUP6 PUSH2 0x33E0 JUMP JUMPDEST POP SWAP4 SWAP3 POP POP POP JUMP JUMPDEST PUSH1 0x0 DUP3 PUSH1 0x1F DUP4 ADD SLT PUSH2 0x4021 JUMPI PUSH2 0x4020 PUSH2 0x3834 JUMP JUMPDEST JUMPDEST DUP2 MLOAD PUSH2 0x4031 DUP5 DUP3 PUSH1 0x20 DUP7 ADD PUSH2 0x3FCA JUMP JUMPDEST SWAP2 POP POP SWAP3 SWAP2 POP POP JUMP JUMPDEST PUSH1 0x0 PUSH1 0x20 DUP3 DUP5 SUB SLT ISZERO PUSH2 0x4050 JUMPI PUSH2 0x404F PUSH2 0x32FF JUMP JUMPDEST JUMPDEST PUSH1 0x0 DUP3 ADD MLOAD PUSH8 0xFFFFFFFFFFFFFFFF DUP2 GT ISZERO PUSH2 0x406E JUMPI PUSH2 0x406D PUSH2 0x3304 JUMP JUMPDEST JUMPDEST PUSH2 0x407A DUP5 DUP3 DUP6 ADD PUSH2 0x400C JUMP JUMPDEST SWAP2 POP POP SWAP3 SWAP2 POP POP JUMP JUMPDEST PUSH1 0x0 DUP2 MLOAD SWAP1 POP PUSH2 0x4092 DUP2 PUSH2 0x3489 JUMP JUMPDEST SWAP3 SWAP2 POP POP JUMP JUMPDEST PUSH1 0x0 PUSH1 0x20 DUP3 DUP5 SUB SLT ISZERO PUSH2 0x40AE JUMPI PUSH2 0x40AD PUSH2 0x32FF JUMP JUMPDEST JUMPDEST PUSH1 0x0 PUSH2 0x40BC DUP5 DUP3 DUP6 ADD PUSH2 0x4083 JUMP JUMPDEST SWAP2 POP POP SWAP3 SWAP2 POP POP JUMP JUMPDEST PUSH32 0x4552433732313A206F776E657220717565727920666F72206E6F6E6578697374 PUSH1 0x0 DUP3 ADD MSTORE PUSH32 0x656E7420746F6B656E0000000000000000000000000000000000000000000000 PUSH1 0x20 DUP3 ADD MSTORE POP JUMP JUMPDEST PUSH1 0x0 PUSH2 0x4121 PUSH1 0x29 DUP4 PUSH2 0x33CF JUMP JUMPDEST SWAP2 POP PUSH2 0x412C DUP3 PUSH2 0x40C5 JUMP JUMPDEST PUSH1 0x40 DUP3 ADD SWAP1 POP SWAP2 SWAP1 POP JUMP JUMPDEST PUSH1 0x0 PUSH1 0x20 DUP3 ADD SWAP1 POP DUP2 DUP2 SUB PUSH1 0x0 DUP4 ADD MSTORE PUSH2 0x4150 DUP2 PUSH2 0x4114 JUMP JUMPDEST SWAP1 POP SWAP2 SWAP1 POP JUMP JUMPDEST PUSH32 0x4552433732313A2062616C616E636520717565727920666F7220746865207A65 PUSH1 0x0 DUP3 ADD MSTORE PUSH32 0x726F206164647265737300000000000000000000000000000000000000000000 PUSH1 0x20 DUP3 ADD MSTORE POP JUMP JUMPDEST PUSH1 0x0 PUSH2 0x41B3 PUSH1 0x2A DUP4 PUSH2 0x33CF JUMP JUMPDEST SWAP2 POP PUSH2 0x41BE DUP3 PUSH2 0x4157 JUMP JUMPDEST PUSH1 0x40 DUP3 ADD SWAP1 POP SWAP2 SWAP1 POP JUMP JUMPDEST PUSH1 0x0 PUSH1 0x20 DUP3 ADD SWAP1 POP DUP2 DUP2 SUB PUSH1 0x0 DUP4 ADD MSTORE PUSH2 0x41E2 DUP2 PUSH2 0x41A6 JUMP JUMPDEST SWAP1 POP SWAP2 SWAP1 POP JUMP JUMPDEST PUSH32 0x4552433732313A20617070726F766520746F2063616C6C657200000000000000 PUSH1 0x0 DUP3 ADD MSTORE POP JUMP JUMPDEST PUSH1 0x0 PUSH2 0x421F PUSH1 0x19 DUP4 PUSH2 0x33CF JUMP JUMPDEST SWAP2 POP PUSH2 0x422A DUP3 PUSH2 0x41E9 JUMP JUMPDEST PUSH1 0x20 DUP3 ADD SWAP1 POP SWAP2 SWAP1 POP JUMP JUMPDEST PUSH1 0x0 PUSH1 0x20 DUP3 ADD SWAP1 POP DUP2 DUP2 SUB PUSH1 0x0 DUP4 ADD MSTORE PUSH2 0x424E DUP2 PUSH2 0x4212 JUMP JUMPDEST SWAP1 POP SWAP2 SWAP1 POP JUMP JUMPDEST PUSH32 0x5365617420726F77206578636565647320746865207468656174726527732063 PUSH1 0x0 DUP3 ADD MSTORE PUSH32 0x617061636974792E000000000000000000000000000000000000000000000000 PUSH1 0x20 DUP3 ADD MSTORE POP JUMP JUMPDEST PUSH1 0x0 PUSH2 0x42B1 PUSH1 0x28 DUP4 PUSH2 0x33CF JUMP JUMPDEST SWAP2 POP PUSH2 0x42BC DUP3 PUSH2 0x4255 JUMP JUMPDEST PUSH1 0x40 DUP3 ADD SWAP1 POP SWAP2 SWAP1 POP JUMP JUMPDEST PUSH1 0x0 PUSH1 0x20 DUP3 ADD SWAP1 POP DUP2 DUP2 SUB PUSH1 0x0 DUP4 ADD MSTORE PUSH2 0x42E0 DUP2 PUSH2 0x42A4 JUMP JUMPDEST SWAP1 POP SWAP2 SWAP1 POP JUMP JUMPDEST PUSH1 0x0 PUSH1 0x40 DUP3 ADD SWAP1 POP DUP2 DUP2 SUB PUSH1 0x0 DUP4 ADD MSTORE PUSH2 0x4301 DUP2 DUP6 PUSH2 0x3424 JUMP JUMPDEST SWAP1 POP PUSH2 0x4310 PUSH1 0x20 DUP4 ADD DUP5 PUSH2 0x35FD JUMP JUMPDEST SWAP4 SWAP3 POP POP POP JUMP JUMPDEST PUSH1 0x0 DUP2 SWAP1 POP SWAP3 SWAP2 POP POP JUMP JUMPDEST PUSH1 0x0 PUSH2 0x432D DUP3 PUSH2 0x36B6 JUMP JUMPDEST PUSH2 0x4337 DUP2 DUP6 PUSH2 0x4317 JUMP JUMPDEST SWAP4 POP PUSH2 0x4347 DUP2 DUP6 PUSH1 0x20 DUP7 ADD PUSH2 0x33E0 JUMP JUMPDEST DUP1 DUP5 ADD SWAP2 POP POP SWAP3 SWAP2 POP POP JUMP JUMPDEST PUSH1 0x0 PUSH2 0x435F DUP3 DUP5 PUSH2 0x4322 JUMP JUMPDEST SWAP2 POP DUP2 SWAP1 POP SWAP3 SWAP2 POP POP JUMP JUMPDEST PUSH1 0x0 DUP2 SWAP1 POP SWAP2 SWAP1 POP JUMP JUMPDEST PUSH2 0x437D DUP2 PUSH2 0x436A JUMP JUMPDEST DUP2 EQ PUSH2 0x4388 JUMPI PUSH1 0x0 DUP1 REVERT JUMPDEST POP JUMP JUMPDEST PUSH1 0x0 DUP2 MLOAD SWAP1 POP PUSH2 0x439A DUP2 PUSH2 0x4374 JUMP JUMPDEST SWAP3 SWAP2 POP POP JUMP JUMPDEST PUSH1 0x0 PUSH1 0x20 DUP3 DUP5 SUB SLT ISZERO PUSH2 0x43B6 JUMPI PUSH2 0x43B5 PUSH2 0x32FF JUMP JUMPDEST JUMPDEST PUSH1 0x0 PUSH2 0x43C4 DUP5 DUP3 DUP6 ADD PUSH2 0x438B JUMP JUMPDEST SWAP2 POP POP SWAP3 SWAP2 POP POP JUMP JUMPDEST PUSH32 0x4552433732314D657461646174613A2055524920717565727920666F72206E6F PUSH1 0x0 DUP3 ADD MSTORE PUSH32 0x6E6578697374656E7420746F6B656E0000000000000000000000000000000000 PUSH1 0x20 DUP3 ADD MSTORE POP JUMP JUMPDEST PUSH1 0x0 PUSH2 0x4429 PUSH1 0x2F DUP4 PUSH2 0x33CF JUMP JUMPDEST SWAP2 POP PUSH2 0x4434 DUP3 PUSH2 0x43CD JUMP JUMPDEST PUSH1 0x40 DUP3 ADD SWAP1 POP SWAP2 SWAP1 POP JUMP JUMPDEST PUSH1 0x0 PUSH1 0x20 DUP3 ADD SWAP1 POP DUP2 DUP2 SUB PUSH1 0x0 DUP4 ADD MSTORE PUSH2 0x4458 DUP2 PUSH2 0x441C JUMP JUMPDEST SWAP1 POP SWAP2 SWAP1 POP JUMP JUMPDEST PUSH1 0x0 DUP2 SWAP1 POP SWAP3 SWAP2 POP POP JUMP JUMPDEST PUSH1 0x0 PUSH2 0x4475 DUP3 PUSH2 0x33C4 JUMP JUMPDEST PUSH2 0x447F DUP2 DUP6 PUSH2 0x445F JUMP JUMPDEST SWAP4 POP PUSH2 0x448F DUP2 DUP6 PUSH1 0x20 DUP7 ADD PUSH2 0x33E0 JUMP JUMPDEST DUP1 DUP5 ADD SWAP2 POP POP SWAP3 SWAP2 POP POP JUMP JUMPDEST PUSH1 0x0 PUSH2 0x44A7 DUP3 DUP6 PUSH2 0x446A JUMP JUMPDEST SWAP2 POP PUSH2 0x44B3 DUP3 DUP5 PUSH2 0x446A JUMP JUMPDEST SWAP2 POP DUP2 SWAP1 POP SWAP4 SWAP3 POP POP POP JUMP JUMPDEST PUSH32 0x4E487B7100000000000000000000000000000000000000000000000000000000 PUSH1 0x0 MSTORE PUSH1 0x11 PUSH1 0x4 MSTORE PUSH1 0x24 PUSH1 0x0 REVERT JUMPDEST PUSH1 0x0 PUSH2 0x44F9 DUP3 PUSH2 0x347F JUMP JUMPDEST SWAP2 POP PUSH2 0x4504 DUP4 PUSH2 0x347F JUMP JUMPDEST SWAP3 POP DUP2 PUSH32 0xFFFFFFFFFFFFFFFFFFFFFFFFFFFFFFFFFFFFFFFFFFFFFFFFFFFFFFFFFFFFFFFF DIV DUP4 GT DUP3 ISZERO ISZERO AND ISZERO PUSH2 0x453D JUMPI PUSH2 0x453C PUSH2 0x44BF JUMP JUMPDEST JUMPDEST DUP3 DUP3 MUL SWAP1 POP SWAP3 SWAP2 POP POP JUMP JUMPDEST PUSH1 0x0 PUSH2 0x4553 DUP3 PUSH2 0x347F JUMP JUMPDEST SWAP2 POP PUSH2 0x455E DUP4 PUSH2 0x347F JUMP JUMPDEST SWAP3 POP DUP3 PUSH32 0xFFFFFFFFFFFFFFFFFFFFFFFFFFFFFFFFFFFFFFFFFFFFFFFFFFFFFFFFFFFFFFFF SUB DUP3 GT ISZERO PUSH2 0x4593 JUMPI PUSH2 0x4592 PUSH2 0x44BF JUMP JUMPDEST JUMPDEST DUP3 DUP3 ADD SWAP1 POP SWAP3 SWAP2 POP POP JUMP JUMPDEST PUSH32 0x4552433732313A206F70657261746F7220717565727920666F72206E6F6E6578 PUSH1 0x0 DUP3 ADD MSTORE PUSH32 0x697374656E7420746F6B656E0000000000000000000000000000000000000000 PUSH1 0x20 DUP3 ADD MSTORE POP JUMP JUMPDEST PUSH1 0x0 PUSH2 0x45FA PUSH1 0x2C DUP4 PUSH2 0x33CF JUMP JUMPDEST SWAP2 POP PUSH2 0x4605 DUP3 PUSH2 0x459E JUMP JUMPDEST PUSH1 0x40 DUP3 ADD SWAP1 POP SWAP2 SWAP1 POP JUMP JUMPDEST PUSH1 0x0 PUSH1 0x20 DUP3 ADD SWAP1 POP DUP2 DUP2 SUB PUSH1 0x0 DUP4 ADD MSTORE PUSH2 0x4629 DUP2 PUSH2 0x45ED JUMP JUMPDEST SWAP1 POP SWAP2 SWAP1 POP JUMP JUMPDEST PUSH32 0x4552433732313A207472616E73666572206F6620746F6B656E20746861742069 PUSH1 0x0 DUP3 ADD MSTORE PUSH32 0x73206E6F74206F776E0000000000000000000000000000000000000000000000 PUSH1 0x20 DUP3 ADD MSTORE POP JUMP JUMPDEST PUSH1 0x0 PUSH2 0x468C PUSH1 0x29 DUP4 PUSH2 0x33CF JUMP JUMPDEST SWAP2 POP PUSH2 0x4697 DUP3 PUSH2 0x4630 JUMP JUMPDEST PUSH1 0x40 DUP3 ADD SWAP1 POP SWAP2 SWAP1 POP JUMP JUMPDEST PUSH1 0x0 PUSH1 0x20 DUP3 ADD SWAP1 POP DUP2 DUP2 SUB PUSH1 0x0 DUP4 ADD MSTORE PUSH2 0x46BB DUP2 PUSH2 0x467F JUMP JUMPDEST SWAP1 POP SWAP2 SWAP1 POP JUMP JUMPDEST PUSH32 0x4552433732313A207472616E7366657220746F20746865207A65726F20616464 PUSH1 0x0 DUP3 ADD MSTORE PUSH32 0x7265737300000000000000000000000000000000000000000000000000000000 PUSH1 0x20 DUP3 ADD MSTORE POP JUMP JUMPDEST PUSH1 0x0 PUSH2 0x471E PUSH1 0x24 DUP4 PUSH2 0x33CF JUMP JUMPDEST SWAP2 POP PUSH2 0x4729 DUP3 PUSH2 0x46C2 JUMP JUMPDEST PUSH1 0x40 DUP3 ADD SWAP1 POP SWAP2 SWAP1 POP JUMP JUMPDEST PUSH1 0x0 PUSH1 0x20 DUP3 ADD SWAP1 POP DUP2 DUP2 SUB PUSH1 0x0 DUP4 ADD MSTORE PUSH2 0x474D DUP2 PUSH2 0x4711 JUMP JUMPDEST SWAP1 POP SWAP2 SWAP1 POP JUMP JUMPDEST PUSH1 0x0 PUSH2 0x475F DUP3 PUSH2 0x347F JUMP JUMPDEST SWAP2 POP PUSH2 0x476A DUP4 PUSH2 0x347F JUMP JUMPDEST SWAP3 POP DUP3 DUP3 LT ISZERO PUSH2 0x477D JUMPI PUSH2 0x477C PUSH2 0x44BF JUMP JUMPDEST JUMPDEST DUP3 DUP3 SUB SWAP1 POP SWAP3 SWAP2 POP POP JUMP JUMPDEST PUSH32 0x2F00000000000000000000000000000000000000000000000000000000000000 PUSH1 0x0 DUP3 ADD MSTORE POP JUMP JUMPDEST PUSH1 0x0 PUSH2 0x47BE PUSH1 0x1 DUP4 PUSH2 0x445F JUMP JUMPDEST SWAP2 POP PUSH2 0x47C9 DUP3 PUSH2 0x4788 JUMP JUMPDEST PUSH1 0x1 DUP3 ADD SWAP1 POP SWAP2 SWAP1 POP JUMP JUMPDEST PUSH32 0x2000000000000000000000000000000000000000000000000000000000000000 PUSH1 0x0 DUP3 ADD MSTORE POP JUMP JUMPDEST PUSH1 0x0 PUSH2 0x480A PUSH1 0x1 DUP4 PUSH2 0x445F JUMP JUMPDEST SWAP2 POP PUSH2 0x4815 DUP3 PUSH2 0x47D4 JUMP JUMPDEST PUSH1 0x1 DUP3 ADD SWAP1 POP SWAP2 SWAP1 POP JUMP JUMPDEST PUSH32 0x3A00000000000000000000000000000000000000000000000000000000000000 PUSH1 0x0 DUP3 ADD MSTORE POP JUMP JUMPDEST PUSH1 0x0 PUSH2 0x4856 PUSH1 0x1 DUP4 PUSH2 0x445F JUMP JUMPDEST SWAP2 POP PUSH2 0x4861 DUP3 PUSH2 0x4820 JUMP JUMPDEST PUSH1 0x1 DUP3 ADD SWAP1 POP SWAP2 SWAP1 POP JUMP JUMPDEST PUSH1 0x0 PUSH2 0x4878 DUP3 DUP9 PUSH2 0x446A JUMP JUMPDEST SWAP2 POP PUSH2 0x4883 DUP3 PUSH2 0x47B1 JUMP JUMPDEST SWAP2 POP PUSH2 0x488F DUP3 DUP8 PUSH2 0x446A JUMP JUMPDEST SWAP2 POP PUSH2 0x489A DUP3 PUSH2 0x47B1 JUMP JUMPDEST SWAP2 POP PUSH2 0x48A6 DUP3 DUP7 PUSH2 0x446A JUMP JUMPDEST SWAP2 POP PUSH2 0x48B1 DUP3 PUSH2 0x47FD JUMP JUMPDEST SWAP2 POP PUSH2 0x48BD DUP3 DUP6 PUSH2 0x446A JUMP JUMPDEST SWAP2 POP PUSH2 0x48C8 DUP3 PUSH2 0x4849 JUMP JUMPDEST SWAP2 POP PUSH2 0x48D4 DUP3 DUP5 PUSH2 0x446A JUMP JUMPDEST SWAP2 POP DUP2 SWAP1 POP SWAP7 SWAP6 POP POP POP POP POP POP JUMP JUMPDEST PUSH32 0x4E487B7100000000000000000000000000000000000000000000000000000000 PUSH1 0x0 MSTORE PUSH1 0x32 PUSH1 0x4 MSTORE PUSH1 0x24 PUSH1 0x0 REVERT JUMPDEST PUSH1 0x0 PUSH1 0xFF DUP3 AND SWAP1 POP SWAP2 SWAP1 POP JUMP JUMPDEST PUSH1 0x0 PUSH2 0x492A DUP3 PUSH2 0x4912 JUMP JUMPDEST SWAP2 POP PUSH2 0x4935 DUP4 PUSH2 0x4912 JUMP JUMPDEST SWAP3 POP DUP3 DUP3 LT ISZERO PUSH2 0x4948 JUMPI PUSH2 0x4947 PUSH2 0x44BF JUMP JUMPDEST JUMPDEST DUP3 DUP3 SUB SWAP1 POP SWAP3 SWAP2 POP POP JUMP JUMPDEST PUSH1 0x0 PUSH2 0x495E DUP3 PUSH2 0x347F JUMP JUMPDEST SWAP2 POP PUSH32 0xFFFFFFFFFFFFFFFFFFFFFFFFFFFFFFFFFFFFFFFFFFFFFFFFFFFFFFFFFFFFFFFF DUP3 EQ ISZERO PUSH2 0x4991 JUMPI PUSH2 0x4990 PUSH2 0x44BF JUMP JUMPDEST JUMPDEST PUSH1 0x1 DUP3 ADD SWAP1 POP SWAP2 SWAP1 POP JUMP JUMPDEST PUSH32 0x53656174206E756D626572206578636565647320746865207468656174726527 PUSH1 0x0 DUP3 ADD MSTORE PUSH32 0x732063617061636974792E000000000000000000000000000000000000000000 PUSH1 0x20 DUP3 ADD MSTORE POP JUMP JUMPDEST PUSH1 0x0 PUSH2 0x49F8 PUSH1 0x2B DUP4 PUSH2 0x33CF JUMP JUMPDEST SWAP2 POP PUSH2 0x4A03 DUP3 PUSH2 0x499C JUMP JUMPDEST PUSH1 0x40 DUP3 ADD SWAP1 POP SWAP2 SWAP1 POP JUMP JUMPDEST PUSH1 0x0 PUSH1 0x20 DUP3 ADD SWAP1 POP DUP2 DUP2 SUB PUSH1 0x0 DUP4 ADD MSTORE PUSH2 0x4A27 DUP2 PUSH2 0x49EB JUMP JUMPDEST SWAP1 POP SWAP2 SWAP1 POP JUMP JUMPDEST PUSH32 0x56616C6964206C65747465722066726F6D204120746F205A2072657175697265 PUSH1 0x0 DUP3 ADD MSTORE PUSH32 0x642E000000000000000000000000000000000000000000000000000000000000 PUSH1 0x20 DUP3 ADD MSTORE POP JUMP JUMPDEST PUSH1 0x0 PUSH2 0x4A8A PUSH1 0x22 DUP4 PUSH2 0x33CF JUMP JUMPDEST SWAP2 POP PUSH2 0x4A95 DUP3 PUSH2 0x4A2E JUMP JUMPDEST PUSH1 0x40 DUP3 ADD SWAP1 POP SWAP2 SWAP1 POP JUMP JUMPDEST PUSH1 0x0 PUSH1 0x20 DUP3 ADD SWAP1 POP DUP2 DUP2 SUB PUSH1 0x0 DUP4 ADD MSTORE PUSH2 0x4AB9 DUP2 PUSH2 0x4A7D JUMP JUMPDEST SWAP1 POP SWAP2 SWAP1 POP JUMP JUMPDEST PUSH32 0x4552433732313A207472616E7366657220746F206E6F6E204552433732315265 PUSH1 0x0 DUP3 ADD MSTORE PUSH32 0x63656976657220696D706C656D656E7465720000000000000000000000000000 PUSH1 0x20 DUP3 ADD MSTORE POP JUMP JUMPDEST PUSH1 0x0 PUSH2 0x4B1C PUSH1 0x32 DUP4 PUSH2 0x33CF JUMP JUMPDEST SWAP2 POP PUSH2 0x4B27 DUP3 PUSH2 0x4AC0 JUMP JUMPDEST PUSH1 0x40 DUP3 ADD SWAP1 POP SWAP2 SWAP1 POP JUMP JUMPDEST PUSH1 0x0 PUSH1 0x20 DUP3 ADD SWAP1 POP DUP2 DUP2 SUB PUSH1 0x0 DUP4 ADD MSTORE PUSH2 0x4B4B DUP2 PUSH2 0x4B0F JUMP JUMPDEST SWAP1 POP SWAP2 SWAP1 POP JUMP JUMPDEST PUSH32 0x4E487B7100000000000000000000000000000000000000000000000000000000 PUSH1 0x0 MSTORE PUSH1 0x12 PUSH1 0x4 MSTORE PUSH1 0x24 PUSH1 0x0 REVERT JUMPDEST PUSH1 0x0 PUSH2 0x4B8C DUP3 PUSH2 0x347F JUMP JUMPDEST SWAP2 POP PUSH2 0x4B97 DUP4 PUSH2 0x347F JUMP JUMPDEST SWAP3 POP DUP3 PUSH2 0x4BA7 JUMPI PUSH2 0x4BA6 PUSH2 0x4B52 JUMP JUMPDEST JUMPDEST DUP3 DUP3 DIV SWAP1 POP SWAP3 SWAP2 POP POP JUMP JUMPDEST PUSH1 0x0 PUSH2 0x4BBD DUP3 PUSH2 0x347F JUMP JUMPDEST SWAP2 POP PUSH2 0x4BC8 DUP4 PUSH2 0x347F JUMP JUMPDEST SWAP3 POP DUP3 PUSH2 0x4BD8 JUMPI PUSH2 0x4BD7 PUSH2 0x4B52 JUMP JUMPDEST JUMPDEST DUP3 DUP3 MOD SWAP1 POP SWAP3 SWAP2 POP POP JUMP JUMPDEST PUSH1 0x0 DUP2 SWAP1 POP SWAP2 SWAP1 POP JUMP JUMPDEST PUSH1 0x0 PUSH2 0x4BF8 DUP3 PUSH2 0x4BE3 JUMP JUMPDEST SWAP2 POP PUSH2 0x4C03 DUP4 PUSH2 0x4BE3 JUMP JUMPDEST SWAP3 POP DUP3 PUSH32 0x8000000000000000000000000000000000000000000000000000000000000000 ADD DUP3 SLT PUSH1 0x0 DUP5 SLT ISZERO AND ISZERO PUSH2 0x4C3E JUMPI PUSH2 0x4C3D PUSH2 0x44BF JUMP JUMPDEST JUMPDEST DUP3 PUSH32 0x7FFFFFFFFFFFFFFFFFFFFFFFFFFFFFFFFFFFFFFFFFFFFFFFFFFFFFFFFFFFFFFF ADD DUP3 SGT PUSH1 0x0 DUP5 SLT AND ISZERO PUSH2 0x4C76 JUMPI PUSH2 0x4C75 PUSH2 0x44BF JUMP JUMPDEST JUMPDEST DUP3 DUP3 SUB SWAP1 POP SWAP3 SWAP2 POP POP JUMP JUMPDEST PUSH1 0x0 PUSH2 0x4C8C DUP3 PUSH2 0x4BE3 JUMP JUMPDEST SWAP2 POP PUSH2 0x4C97 DUP4 PUSH2 0x4BE3 JUMP JUMPDEST SWAP3 POP DUP3 PUSH2 0x4CA7 JUMPI PUSH2 0x4CA6 PUSH2 0x4B52 JUMP JUMPDEST JUMPDEST PUSH1 0x1 PUSH1 0x0 SUB DUP4 EQ PUSH32 0x8000000000000000000000000000000000000000000000000000000000000000 DUP4 EQ AND ISZERO PUSH2 0x4CE0 JUMPI PUSH2 0x4CDF PUSH2 0x44BF JUMP JUMPDEST JUMPDEST DUP3 DUP3 SDIV SWAP1 POP SWAP3 SWAP2 POP POP JUMP JUMPDEST PUSH1 0x0 PUSH2 0x4CF6 DUP3 PUSH2 0x4BE3 JUMP JUMPDEST SWAP2 POP PUSH2 0x4D01 DUP4 PUSH2 0x4BE3 JUMP JUMPDEST SWAP3 POP DUP2 PUSH32 0x7FFFFFFFFFFFFFFFFFFFFFFFFFFFFFFFFFFFFFFFFFFFFFFFFFFFFFFFFFFFFFFF SUB DUP4 SGT PUSH1 0x0 DUP4 SLT ISZERO AND ISZERO PUSH2 0x4D3C JUMPI PUSH2 0x4D3B PUSH2 0x44BF JUMP JUMPDEST JUMPDEST DUP2 PUSH32 0x8000000000000000000000000000000000000000000000000000000000000000 SUB DUP4 SLT PUSH1 0x0 DUP4 SLT AND ISZERO PUSH2 0x4D74 JUMPI PUSH2 0x4D73 PUSH2 0x44BF JUMP JUMPDEST JUMPDEST DUP3 DUP3 ADD SWAP1 POP SWAP3 SWAP2 POP POP JUMP JUMPDEST PUSH1 0x0 PUSH2 0x4D8A DUP3 PUSH2 0x4BE3 JUMP JUMPDEST SWAP2 POP PUSH2 0x4D95 DUP4 PUSH2 0x4BE3 JUMP JUMPDEST SWAP3 POP DUP3 PUSH32 0x7FFFFFFFFFFFFFFFFFFFFFFFFFFFFFFFFFFFFFFFFFFFFFFFFFFFFFFFFFFFFFFF DIV DUP3 GT PUSH1 0x0 DUP5 SGT PUSH1 0x0 DUP5 SGT AND AND ISZERO PUSH2 0x4DD4 JUMPI PUSH2 0x4DD3 PUSH2 0x44BF JUMP JUMPDEST JUMPDEST DUP2 PUSH32 0x8000000000000000000000000000000000000000000000000000000000000000 SDIV DUP4 SLT PUSH1 0x0 DUP5 SLT PUSH1 0x0 DUP5 SGT AND AND ISZERO PUSH2 0x4E11 JUMPI PUSH2 0x4E10 PUSH2 0x44BF JUMP JUMPDEST JUMPDEST DUP3 PUSH32 0x8000000000000000000000000000000000000000000000000000000000000000 SDIV DUP3 SLT PUSH1 0x0 DUP5 SGT PUSH1 0x0 DUP5 SLT AND AND ISZERO PUSH2 0x4E4E JUMPI PUSH2 0x4E4D PUSH2 0x44BF JUMP JUMPDEST JUMPDEST DUP3 PUSH32 0x7FFFFFFFFFFFFFFFFFFFFFFFFFFFFFFFFFFFFFFFFFFFFFFFFFFFFFFFFFFFFFFF SDIV DUP3 SLT PUSH1 0x0 DUP5 SLT PUSH1 0x0 DUP5 SLT AND AND ISZERO PUSH2 0x4E8B JUMPI PUSH2 0x4E8A PUSH2 0x44BF JUMP JUMPDEST JUMPDEST DUP3 DUP3 MUL SWAP1 POP SWAP3 SWAP2 POP POP JUMP JUMPDEST PUSH32 0x3000000000000000000000000000000000000000000000000000000000000000 PUSH1 0x0 DUP3 ADD MSTORE POP JUMP JUMPDEST PUSH1 0x0 PUSH2 0x4ECC PUSH1 0x1 DUP4 PUSH2 0x445F JUMP JUMPDEST SWAP2 POP PUSH2 0x4ED7 DUP3 PUSH2 0x4E96 JUMP JUMPDEST PUSH1 0x1 DUP3 ADD SWAP1 POP SWAP2 SWAP1 POP JUMP JUMPDEST PUSH1 0x0 PUSH2 0x4EED DUP3 PUSH2 0x4EBF JUMP JUMPDEST SWAP2 POP PUSH2 0x4EF9 DUP3 DUP5 PUSH2 0x446A JUMP JUMPDEST SWAP2 POP DUP2 SWAP1 POP SWAP3 SWAP2 POP POP JUMP JUMPDEST PUSH1 0x0 PUSH1 0x80 DUP3 ADD SWAP1 POP PUSH2 0x4F19 PUSH1 0x0 DUP4 ADD DUP8 PUSH2 0x3514 JUMP JUMPDEST PUSH2 0x4F26 PUSH1 0x20 DUP4 ADD DUP7 PUSH2 0x3514 JUMP JUMPDEST PUSH2 0x4F33 PUSH1 0x40 DUP4 ADD DUP6 PUSH2 0x35FD JUMP JUMPDEST DUP2 DUP2 SUB PUSH1 0x60 DUP4 ADD MSTORE PUSH2 0x4F45 DUP2 DUP5 PUSH2 0x36D2 JUMP JUMPDEST SWAP1 POP SWAP6 SWAP5 POP POP POP POP POP JUMP JUMPDEST PUSH1 0x0 DUP2 MLOAD SWAP1 POP PUSH2 0x4F5F DUP2 PUSH2 0x3335 JUMP JUMPDEST SWAP3 SWAP2 POP POP JUMP JUMPDEST PUSH1 0x0 PUSH1 0x20 DUP3 DUP5 SUB SLT ISZERO PUSH2 0x4F7B JUMPI PUSH2 0x4F7A PUSH2 0x32FF JUMP JUMPDEST JUMPDEST PUSH1 0x0 PUSH2 0x4F89 DUP5 DUP3 DUP6 ADD PUSH2 0x4F50 JUMP JUMPDEST SWAP2 POP POP SWAP3 SWAP2 POP POP JUMP JUMPDEST PUSH1 0x0 PUSH2 0x4F9D DUP3 PUSH2 0x4912 JUMP JUMPDEST SWAP2 POP PUSH2 0x4FA8 DUP4 PUSH2 0x4912 JUMP JUMPDEST SWAP3 POP DUP3 PUSH1 0xFF SUB DUP3 GT ISZERO PUSH2 0x4FBE JUMPI PUSH2 0x4FBD PUSH2 0x44BF JUMP JUMPDEST JUMPDEST DUP3 DUP3 ADD SWAP1 POP SWAP3 SWAP2 POP POP JUMP JUMPDEST PUSH32 0x4552433732313A206D696E7420746F20746865207A65726F2061646472657373 PUSH1 0x0 DUP3 ADD MSTORE POP JUMP JUMPDEST PUSH1 0x0 PUSH2 0x4FFF PUSH1 0x20 DUP4 PUSH2 0x33CF JUMP JUMPDEST SWAP2 POP PUSH2 0x500A DUP3 PUSH2 0x4FC9 JUMP JUMPDEST PUSH1 0x20 DUP3 ADD SWAP1 POP SWAP2 SWAP1 POP JUMP JUMPDEST PUSH1 0x0 PUSH1 0x20 DUP3 ADD SWAP1 POP DUP2 DUP2 SUB PUSH1 0x0 DUP4 ADD MSTORE PUSH2 0x502E DUP2 PUSH2 0x4FF2 JUMP JUMPDEST SWAP1 POP SWAP2 SWAP1 POP JUMP JUMPDEST PUSH32 0x4552433732313A20746F6B656E20616C7265616479206D696E74656400000000 PUSH1 0x0 DUP3 ADD MSTORE POP JUMP JUMPDEST PUSH1 0x0 PUSH2 0x506B PUSH1 0x1C DUP4 PUSH2 0x33CF JUMP JUMPDEST SWAP2 POP PUSH2 0x5076 DUP3 PUSH2 0x5035 JUMP JUMPDEST PUSH1 0x20 DUP3 ADD SWAP1 POP SWAP2 SWAP1 POP JUMP JUMPDEST PUSH1 0x0 PUSH1 0x20 DUP3 ADD SWAP1 POP DUP2 DUP2 SUB PUSH1 0x0 DUP4 ADD MSTORE PUSH2 0x509A DUP2 PUSH2 0x505E JUMP JUMPDEST SWAP1 POP SWAP2 SWAP1 POP JUMP INVALID LOG2 PUSH5 0x6970667358 0x22 SLT KECCAK256 0x2F 0xC1 PUSH6 0x9DB125C96C25 BALANCE JUMPDEST JUMPDEST SWAP2 ORIGIN MLOAD ADDRESS PUSH8 0xF3F2123A40FE39A7 SWAP8 RETURNDATASIZE SDIV MULMOD SWAP7 0xD0 CHAINID PUSH5 0x736F6C6343 STOP ADDMOD MULMOD STOP CALLER "
		},
		"gasEstimates": {
			"creation": {
				"codeDepositCost": "4139000",
				"executionCost": "infinite",
				"totalCost": "infinite"
			},
			"external": {
				"approve(address,uint256)": "infinite",
				"balanceOf(address)": "2902",
				"buyTicket(string,uint256)": "infinite",
				"getApproved(uint256)": "5228",
				"getShowDetails()": "infinite",
				"getTicketDetails(uint256)": "infinite",
				"isApprovedForAll(address,address)": "infinite",
				"name()": "infinite",
				"ownerOf(uint256)": "3088",
				"safeTransferFrom(address,address,uint256)": "infinite",
				"safeTransferFrom(address,address,uint256,bytes)": "infinite",
				"setApprovalForAll(address,bool)": "infinite",
				"show(address)": "infinite",
				"supportsInterface(bytes4)": "797",
				"symbol()": "infinite",
				"ticket(uint256)": "infinite",
				"tokenURI(uint256)": "3417",
				"transferFrom(address,address,uint256)": "infinite"
			},
			"internal": {
				"checkValidSeatInput(string memory,uint256)": "infinite",
				"checkValidSeatLetters(bytes memory)": "infinite",
				"niceDatetimeFromTimestamp(uint256)": "infinite",
				"strToUpper(string memory)": "infinite",
				"uint2dtstr(uint256)": "infinite",
				"uint2str(uint256)": "infinite"
			}
		},
		"methodIdentifiers": {
			"approve(address,uint256)": "095ea7b3",
			"balanceOf(address)": "70a08231",
			"buyTicket(string,uint256)": "a28f161c",
			"getApproved(uint256)": "081812fc",
			"getShowDetails()": "bb63fc3e",
			"getTicketDetails(uint256)": "24c14160",
			"isApprovedForAll(address,address)": "e985e9c5",
			"name()": "06fdde03",
			"ownerOf(uint256)": "6352211e",
			"safeTransferFrom(address,address,uint256)": "42842e0e",
			"safeTransferFrom(address,address,uint256,bytes)": "b88d4fde",
			"setApprovalForAll(address,bool)": "a22cb465",
			"show(address)": "287a61e4",
			"supportsInterface(bytes4)": "01ffc9a7",
			"symbol()": "95d89b41",
			"ticket(uint256)": "c129ff32",
			"tokenURI(uint256)": "c87b56dd",
			"transferFrom(address,address,uint256)": "23b872dd"
		}
	},
	"abi": [
		{
			"inputs": [
				{
					"internalType": "string",
					"name": "_title",
					"type": "string"
				},
				{
					"internalType": "uint256",
					"name": "_day",
					"type": "uint256"
				},
				{
					"internalType": "uint256",
					"name": "_month",
					"type": "uint256"
				},
				{
					"internalType": "uint256",
					"name": "_year",
					"type": "uint256"
				},
				{
					"internalType": "uint256",
					"name": "_hour",
					"type": "uint256"
				},
				{
					"internalType": "uint256",
					"name": "_min",
					"type": "uint256"
				},
				{
					"internalType": "string",
					"name": "_maxRow",
					"type": "string"
				},
				{
					"internalType": "uint256",
					"name": "_maxSeatPerRow",
					"type": "uint256"
				}
			],
			"stateMutability": "nonpayable",
			"type": "constructor"
		},
		{
			"anonymous": false,
			"inputs": [
				{
					"indexed": true,
					"internalType": "address",
					"name": "owner",
					"type": "address"
				},
				{
					"indexed": true,
					"internalType": "address",
					"name": "approved",
					"type": "address"
				},
				{
					"indexed": true,
					"internalType": "uint256",
					"name": "tokenId",
					"type": "uint256"
				}
			],
			"name": "Approval",
			"type": "event"
		},
		{
			"anonymous": false,
			"inputs": [
				{
					"indexed": true,
					"internalType": "address",
					"name": "owner",
					"type": "address"
				},
				{
					"indexed": true,
					"internalType": "address",
					"name": "operator",
					"type": "address"
				},
				{
					"indexed": false,
					"internalType": "bool",
					"name": "approved",
					"type": "bool"
				}
			],
			"name": "ApprovalForAll",
			"type": "event"
		},
		{
			"anonymous": false,
			"inputs": [
				{
					"indexed": true,
					"internalType": "address",
					"name": "from",
					"type": "address"
				},
				{
					"indexed": true,
					"internalType": "address",
					"name": "to",
					"type": "address"
				},
				{
					"indexed": true,
					"internalType": "uint256",
					"name": "tokenId",
					"type": "uint256"
				}
			],
			"name": "Transfer",
			"type": "event"
		},
		{
			"inputs": [
				{
					"internalType": "address",
					"name": "to",
					"type": "address"
				},
				{
					"internalType": "uint256",
					"name": "tokenId",
					"type": "uint256"
				}
			],
			"name": "approve",
			"outputs": [],
			"stateMutability": "nonpayable",
			"type": "function"
		},
		{
			"inputs": [
				{
					"internalType": "address",
					"name": "owner",
					"type": "address"
				}
			],
			"name": "balanceOf",
			"outputs": [
				{
					"internalType": "uint256",
					"name": "",
					"type": "uint256"
				}
			],
			"stateMutability": "view",
			"type": "function"
		},
		{
			"inputs": [
				{
					"internalType": "string",
					"name": "_seatRow",
					"type": "string"
				},
				{
					"internalType": "uint256",
					"name": "_seatNumber",
					"type": "uint256"
				}
			],
			"name": "buyTicket",
			"outputs": [
				{
					"internalType": "uint256",
					"name": "",
					"type": "uint256"
				}
			],
			"stateMutability": "nonpayable",
			"type": "function"
		},
		{
			"inputs": [
				{
					"internalType": "uint256",
					"name": "tokenId",
					"type": "uint256"
				}
			],
			"name": "getApproved",
			"outputs": [
				{
					"internalType": "address",
					"name": "",
					"type": "address"
				}
			],
			"stateMutability": "view",
			"type": "function"
		},
		{
			"inputs": [],
			"name": "getShowDetails",
			"outputs": [
				{
					"internalType": "string",
					"name": "",
					"type": "string"
				},
				{
					"internalType": "string",
					"name": "",
					"type": "string"
				},
				{
					"internalType": "string",
					"name": "",
					"type": "string"
				},
				{
					"internalType": "uint256",
					"name": "",
					"type": "uint256"
				},
				{
					"internalType": "bytes[]",
					"name": "",
					"type": "bytes[]"
				}
			],
			"stateMutability": "view",
			"type": "function"
		},
		{
			"inputs": [
				{
					"internalType": "uint256",
					"name": "_tokenId",
					"type": "uint256"
				}
			],
			"name": "getTicketDetails",
			"outputs": [
				{
					"internalType": "string",
					"name": "",
					"type": "string"
				},
				{
					"internalType": "string",
					"name": "",
					"type": "string"
				},
				{
					"internalType": "string",
					"name": "",
					"type": "string"
				},
				{
					"internalType": "uint256",
					"name": "",
					"type": "uint256"
				},
				{
					"internalType": "uint256",
					"name": "",
					"type": "uint256"
				},
				{
					"internalType": "string",
					"name": "",
					"type": "string"
				}
			],
			"stateMutability": "view",
			"type": "function"
		},
		{
			"inputs": [
				{
					"internalType": "address",
					"name": "owner",
					"type": "address"
				},
				{
					"internalType": "address",
					"name": "operator",
					"type": "address"
				}
			],
			"name": "isApprovedForAll",
			"outputs": [
				{
					"internalType": "bool",
					"name": "",
					"type": "bool"
				}
			],
			"stateMutability": "view",
			"type": "function"
		},
		{
			"inputs": [],
			"name": "name",
			"outputs": [
				{
					"internalType": "string",
					"name": "",
					"type": "string"
				}
			],
			"stateMutability": "view",
			"type": "function"
		},
		{
			"inputs": [
				{
					"internalType": "uint256",
					"name": "tokenId",
					"type": "uint256"
				}
			],
			"name": "ownerOf",
			"outputs": [
				{
					"internalType": "address",
					"name": "",
					"type": "address"
				}
			],
			"stateMutability": "view",
			"type": "function"
		},
		{
			"inputs": [
				{
					"internalType": "address",
					"name": "from",
					"type": "address"
				},
				{
					"internalType": "address",
					"name": "to",
					"type": "address"
				},
				{
					"internalType": "uint256",
					"name": "tokenId",
					"type": "uint256"
				}
			],
			"name": "safeTransferFrom",
			"outputs": [],
			"stateMutability": "nonpayable",
			"type": "function"
		},
		{
			"inputs": [
				{
					"internalType": "address",
					"name": "from",
					"type": "address"
				},
				{
					"internalType": "address",
					"name": "to",
					"type": "address"
				},
				{
					"internalType": "uint256",
					"name": "tokenId",
					"type": "uint256"
				},
				{
					"internalType": "bytes",
					"name": "_data",
					"type": "bytes"
				}
			],
			"name": "safeTransferFrom",
			"outputs": [],
			"stateMutability": "nonpayable",
			"type": "function"
		},
		{
			"inputs": [
				{
					"internalType": "address",
					"name": "operator",
					"type": "address"
				},
				{
					"internalType": "bool",
					"name": "approved",
					"type": "bool"
				}
			],
			"name": "setApprovalForAll",
			"outputs": [],
			"stateMutability": "nonpayable",
			"type": "function"
		},
		{
			"inputs": [
				{
					"internalType": "address",
					"name": "",
					"type": "address"
				}
			],
			"name": "show",
			"outputs": [
				{
					"internalType": "string",
					"name": "title",
					"type": "string"
				},
				{
					"internalType": "uint256",
					"name": "year",
					"type": "uint256"
				},
				{
					"internalType": "uint256",
					"name": "month",
					"type": "uint256"
				},
				{
					"internalType": "uint256",
					"name": "day",
					"type": "uint256"
				},
				{
					"internalType": "uint256",
					"name": "hour",
					"type": "uint256"
				},
				{
					"internalType": "uint256",
					"name": "min",
					"type": "uint256"
				},
				{
					"internalType": "uint256",
					"name": "timestamp",
					"type": "uint256"
				},
				{
					"internalType": "bytes",
					"name": "maxRow",
					"type": "bytes"
				},
				{
					"internalType": "bytes",
					"name": "maxSeatPerRow",
					"type": "bytes"
				}
			],
			"stateMutability": "view",
			"type": "function"
		},
		{
			"inputs": [
				{
					"internalType": "bytes4",
					"name": "interfaceId",
					"type": "bytes4"
				}
			],
			"name": "supportsInterface",
			"outputs": [
				{
					"internalType": "bool",
					"name": "",
					"type": "bool"
				}
			],
			"stateMutability": "view",
			"type": "function"
		},
		{
			"inputs": [],
			"name": "symbol",
			"outputs": [
				{
					"internalType": "string",
					"name": "",
					"type": "string"
				}
			],
			"stateMutability": "view",
			"type": "function"
		},
		{
			"inputs": [
				{
					"internalType": "uint256",
					"name": "",
					"type": "uint256"
				}
			],
			"name": "ticket",
			"outputs": [
				{
					"internalType": "string",
					"name": "title",
					"type": "string"
				},
				{
					"internalType": "uint256",
					"name": "timestamp",
					"type": "uint256"
				},
				{
					"internalType": "bytes",
					"name": "seatRow",
					"type": "bytes"
				},
				{
					"internalType": "bytes",
					"name": "seatNumber",
					"type": "bytes"
				},
				{
					"internalType": "uint256",
					"name": "price",
					"type": "uint256"
				},
				{
					"internalType": "string",
					"name": "seatPlan",
					"type": "string"
				}
			],
			"stateMutability": "view",
			"type": "function"
		},
		{
			"inputs": [
				{
					"internalType": "uint256",
					"name": "tokenId",
					"type": "uint256"
				}
			],
			"name": "tokenURI",
			"outputs": [
				{
					"internalType": "string",
					"name": "",
					"type": "string"
				}
			],
			"stateMutability": "view",
			"type": "function"
		},
		{
			"inputs": [
				{
					"internalType": "address",
					"name": "from",
					"type": "address"
				},
				{
					"internalType": "address",
					"name": "to",
					"type": "address"
				},
				{
					"internalType": "uint256",
					"name": "tokenId",
					"type": "uint256"
				}
			],
			"name": "transferFrom",
			"outputs": [],
			"stateMutability": "nonpayable",
			"type": "function"
		}
	]
}